{
	"contracts/LiskGarden.sol": {
		"LiskGarden": {
			"abi": [
				{
					"inputs": [],
					"stateMutability": "nonpayable",
					"type": "constructor"
				},
				{
					"anonymous": false,
					"inputs": [
						{
							"indexed": true,
							"internalType": "uint256",
							"name": "plantId",
							"type": "uint256"
						}
					],
					"name": "PlantDied",
					"type": "event"
				},
				{
					"anonymous": false,
					"inputs": [
						{
							"indexed": true,
							"internalType": "uint256",
							"name": "plantId",
							"type": "uint256"
						},
						{
							"indexed": true,
							"internalType": "address",
							"name": "owner",
							"type": "address"
						},
						{
							"indexed": true,
							"internalType": "uint256",
							"name": "reward",
							"type": "uint256"
						}
					],
					"name": "PlantHarvested",
					"type": "event"
				},
				{
					"anonymous": false,
					"inputs": [
						{
							"indexed": true,
							"internalType": "address",
							"name": "owner",
							"type": "address"
						},
						{
							"indexed": true,
							"internalType": "uint256",
							"name": "plantId",
							"type": "uint256"
						}
					],
					"name": "PlantSeeded",
					"type": "event"
				},
				{
					"anonymous": false,
					"inputs": [
						{
							"indexed": true,
							"internalType": "uint256",
							"name": "plantId",
							"type": "uint256"
						},
						{
							"indexed": true,
							"internalType": "uint8",
							"name": "newWaterLevel",
							"type": "uint8"
						}
					],
					"name": "PlantWatered",
					"type": "event"
				},
				{
					"anonymous": false,
					"inputs": [
						{
							"indexed": true,
							"internalType": "uint256",
							"name": "plantId",
							"type": "uint256"
						},
						{
							"indexed": false,
							"internalType": "enum LiskGarden.GrowthStage",
							"name": "newStage",
							"type": "uint8"
						}
					],
					"name": "StageAdvanced",
					"type": "event"
				},
				{
					"inputs": [],
					"name": "HARVEST_REWARD",
					"outputs": [
						{
							"internalType": "uint256",
							"name": "",
							"type": "uint256"
						}
					],
					"stateMutability": "view",
					"type": "function"
				},
				{
					"inputs": [],
					"name": "PLANT_PRICE",
					"outputs": [
						{
							"internalType": "uint256",
							"name": "",
							"type": "uint256"
						}
					],
					"stateMutability": "view",
					"type": "function"
				},
				{
					"inputs": [],
					"name": "STAGE_DURATION",
					"outputs": [
						{
							"internalType": "uint256",
							"name": "",
							"type": "uint256"
						}
					],
					"stateMutability": "view",
					"type": "function"
				},
				{
					"inputs": [],
					"name": "WATER_DEPLETION_RATE",
					"outputs": [
						{
							"internalType": "uint8",
							"name": "",
							"type": "uint8"
						}
					],
					"stateMutability": "view",
					"type": "function"
				},
				{
					"inputs": [],
					"name": "WATER_DEPLETION_TIME",
					"outputs": [
						{
							"internalType": "uint256",
							"name": "",
							"type": "uint256"
						}
					],
					"stateMutability": "view",
					"type": "function"
				},
				{
					"inputs": [],
					"name": "balanceOwner",
					"outputs": [],
					"stateMutability": "payable",
					"type": "function"
				},
				{
					"inputs": [
						{
							"internalType": "uint256",
							"name": "plantId",
							"type": "uint256"
						}
					],
					"name": "calculateWaterLevel",
					"outputs": [
						{
							"internalType": "uint8",
							"name": "",
							"type": "uint8"
						}
					],
					"stateMutability": "view",
					"type": "function"
				},
				{
					"inputs": [
						{
							"internalType": "uint256",
							"name": "plantId",
							"type": "uint256"
						}
					],
					"name": "getPlant",
					"outputs": [
						{
							"components": [
								{
									"internalType": "uint256",
									"name": "id",
									"type": "uint256"
								},
								{
									"internalType": "address",
									"name": "owner",
									"type": "address"
								},
								{
									"internalType": "enum LiskGarden.GrowthStage",
									"name": "stage",
									"type": "uint8"
								},
								{
									"internalType": "uint256",
									"name": "plantedDate",
									"type": "uint256"
								},
								{
									"internalType": "uint256",
									"name": "lastWatered",
									"type": "uint256"
								},
								{
									"internalType": "uint8",
									"name": "waterLevel",
									"type": "uint8"
								},
								{
									"internalType": "bool",
									"name": "exists",
									"type": "bool"
								},
								{
									"internalType": "bool",
									"name": "isDead",
									"type": "bool"
								}
							],
							"internalType": "struct LiskGarden.Plant",
							"name": "",
							"type": "tuple"
						}
					],
					"stateMutability": "view",
					"type": "function"
				},
				{
					"inputs": [
						{
							"internalType": "address",
							"name": "user",
							"type": "address"
						}
					],
					"name": "getUserPlants",
					"outputs": [
						{
							"internalType": "uint256[]",
							"name": "",
							"type": "uint256[]"
						}
					],
					"stateMutability": "view",
					"type": "function"
				},
				{
					"inputs": [
						{
							"internalType": "uint256",
							"name": "plantId",
							"type": "uint256"
						}
					],
					"name": "harvestPlant",
					"outputs": [],
					"stateMutability": "nonpayable",
					"type": "function"
				},
				{
					"inputs": [],
					"name": "owner",
					"outputs": [
						{
							"internalType": "address",
							"name": "",
							"type": "address"
						}
					],
					"stateMutability": "view",
					"type": "function"
				},
				{
					"inputs": [],
					"name": "plantCounter",
					"outputs": [
						{
							"internalType": "uint256",
							"name": "",
							"type": "uint256"
						}
					],
					"stateMutability": "view",
					"type": "function"
				},
				{
					"inputs": [],
					"name": "plantSeed",
					"outputs": [
						{
							"internalType": "uint256",
							"name": "",
							"type": "uint256"
						}
					],
					"stateMutability": "payable",
					"type": "function"
				},
				{
					"inputs": [
						{
							"internalType": "uint256",
							"name": "",
							"type": "uint256"
						}
					],
					"name": "plants",
					"outputs": [
						{
							"internalType": "uint256",
							"name": "id",
							"type": "uint256"
						},
						{
							"internalType": "address",
							"name": "owner",
							"type": "address"
						},
						{
							"internalType": "enum LiskGarden.GrowthStage",
							"name": "stage",
							"type": "uint8"
						},
						{
							"internalType": "uint256",
							"name": "plantedDate",
							"type": "uint256"
						},
						{
							"internalType": "uint256",
							"name": "lastWatered",
							"type": "uint256"
						},
						{
							"internalType": "uint8",
							"name": "waterLevel",
							"type": "uint8"
						},
						{
							"internalType": "bool",
							"name": "exists",
							"type": "bool"
						},
						{
							"internalType": "bool",
							"name": "isDead",
							"type": "bool"
						}
					],
					"stateMutability": "view",
					"type": "function"
				},
				{
					"inputs": [
						{
							"internalType": "uint256",
							"name": "plantId",
							"type": "uint256"
						}
					],
					"name": "updatePlantStage",
					"outputs": [],
					"stateMutability": "nonpayable",
					"type": "function"
				},
				{
					"inputs": [
						{
							"internalType": "address",
							"name": "",
							"type": "address"
						},
						{
							"internalType": "uint256",
							"name": "",
							"type": "uint256"
						}
					],
					"name": "userPlants",
					"outputs": [
						{
							"internalType": "uint256",
							"name": "",
							"type": "uint256"
						}
					],
					"stateMutability": "view",
					"type": "function"
				},
				{
					"inputs": [
						{
							"internalType": "uint256",
							"name": "plantId",
							"type": "uint256"
						}
					],
					"name": "waterPlant",
					"outputs": [],
					"stateMutability": "nonpayable",
					"type": "function"
				},
				{
					"inputs": [],
					"name": "withdraw",
					"outputs": [],
					"stateMutability": "nonpayable",
					"type": "function"
				},
				{
					"stateMutability": "payable",
					"type": "receive"
				}
			],
			"devdoc": {
				"kind": "dev",
				"methods": {},
				"version": 1
			},
			"evm": {
				"assembly": "    /* \"contracts/LiskGarden.sol\":61:10333  contract LiskGarden {... */\n  mstore(0x40, 0x80)\n    /* \"contracts/LiskGarden.sol\":3690:3741  constructor() {... */\n  callvalue\n  dup1\n  iszero\n  tag_1\n  jumpi\n  revert(0x00, 0x00)\ntag_1:\n  pop\n    /* \"contracts/LiskGarden.sol\":3723:3733  msg.sender */\n  caller\n    /* \"contracts/LiskGarden.sol\":3715:3720  owner */\n  0x03\n  0x00\n    /* \"contracts/LiskGarden.sol\":3715:3733  owner = msg.sender */\n  0x0100\n  exp\n  dup2\n  sload\n  dup2\n  0xffffffffffffffffffffffffffffffffffffffff\n  mul\n  not\n  and\n  swap1\n  dup4\n  0xffffffffffffffffffffffffffffffffffffffff\n  and\n  mul\n  or\n  swap1\n  sstore\n  pop\n    /* \"contracts/LiskGarden.sol\":61:10333  contract LiskGarden {... */\n  dataSize(sub_0)\n  dup1\n  dataOffset(sub_0)\n  0x00\n  codecopy\n  0x00\n  return\nstop\n\nsub_0: assembly {\n        /* \"contracts/LiskGarden.sol\":61:10333  contract LiskGarden {... */\n      mstore(0x40, 0x80)\n      jumpi(tag_1, lt(calldatasize, 0x04))\n      shr(0xe0, calldataload(0x00))\n      dup1\n      0x8da5cb5b\n      gt\n      tag_21\n      jumpi\n      dup1\n      0xbacb5ebd\n      gt\n      tag_22\n      jumpi\n      dup1\n      0xbacb5ebd\n      eq\n      tag_16\n      jumpi\n      dup1\n      0xcfc9a5f8\n      eq\n      tag_17\n      jumpi\n      dup1\n      0xddd42596\n      eq\n      tag_18\n      jumpi\n      dup1\n      0xe38f8448\n      eq\n      tag_19\n      jumpi\n      dup1\n      0xed0b1f5f\n      eq\n      tag_20\n      jumpi\n      jump(tag_2)\n    tag_22:\n      dup1\n      0x8da5cb5b\n      eq\n      tag_12\n      jumpi\n      dup1\n      0x8dd2361c\n      eq\n      tag_13\n      jumpi\n      dup1\n      0x9886bcfa\n      eq\n      tag_14\n      jumpi\n      dup1\n      0x9c471749\n      eq\n      tag_15\n      jumpi\n      jump(tag_2)\n    tag_21:\n      dup1\n      0x74119a38\n      gt\n      tag_23\n      jumpi\n      dup1\n      0x74119a38\n      eq\n      tag_7\n      jumpi\n      dup1\n      0x754e150d\n      eq\n      tag_8\n      jumpi\n      dup1\n      0x7ed4c5be\n      eq\n      tag_9\n      jumpi\n      dup1\n      0x891c0785\n      eq\n      tag_10\n      jumpi\n      dup1\n      0x8aee578b\n      eq\n      tag_11\n      jumpi\n      jump(tag_2)\n    tag_23:\n      dup1\n      0x1b2da512\n      eq\n      tag_3\n      jumpi\n      dup1\n      0x30cec0eb\n      eq\n      tag_4\n      jumpi\n      dup1\n      0x3ccfd60b\n      eq\n      tag_5\n      jumpi\n      dup1\n      0x51f9efde\n      eq\n      tag_6\n      jumpi\n      jump(tag_2)\n    tag_1:\n      jumpi(tag_2, calldatasize)\n      stop\n    tag_2:\n      revert(0x00, 0x00)\n        /* \"contracts/LiskGarden.sol\":943:991  function balanceOwner() public payable{... */\n    tag_3:\n      tag_26\n      tag_27\n      jump\t// in\n    tag_26:\n      stop\n        /* \"contracts/LiskGarden.sol\":9955:10075  function getUserPlants(address user) external view returns (uint256[] memory) {... */\n    tag_4:\n      callvalue\n      dup1\n      iszero\n      tag_28\n      jumpi\n      revert(0x00, 0x00)\n    tag_28:\n      pop\n      tag_29\n      0x04\n      dup1\n      calldatasize\n      sub\n      dup2\n      add\n      swap1\n      tag_30\n      swap2\n      swap1\n      tag_31\n      jump\t// in\n    tag_30:\n      tag_32\n      jump\t// in\n    tag_29:\n      mload(0x40)\n      tag_33\n      swap2\n      swap1\n      tag_34\n      jump\t// in\n    tag_33:\n      mload(0x40)\n      dup1\n      swap2\n      sub\n      swap1\n      return\n        /* \"contracts/LiskGarden.sol\":10083:10293  function withdraw() external {... */\n    tag_5:\n      callvalue\n      dup1\n      iszero\n      tag_35\n      jumpi\n      revert(0x00, 0x00)\n    tag_35:\n      pop\n      tag_36\n      tag_37\n      jump\t// in\n    tag_36:\n      stop\n        /* \"contracts/LiskGarden.sol\":2249:2299  uint256 public constant STAGE_DURATION = 1 minutes */\n    tag_6:\n      callvalue\n      dup1\n      iszero\n      tag_38\n      jumpi\n      revert(0x00, 0x00)\n    tag_38:\n      pop\n      tag_39\n      tag_40\n      jump\t// in\n    tag_39:\n      mload(0x40)\n      tag_41\n      swap2\n      swap1\n      tag_42\n      jump\t// in\n    tag_41:\n      mload(0x40)\n      dup1\n      swap2\n      sub\n      swap1\n      return\n        /* \"contracts/LiskGarden.sol\":4256:4999  function plantSeed() external payable returns (uint256) {... */\n    tag_7:\n      tag_43\n      tag_44\n      jump\t// in\n    tag_43:\n      mload(0x40)\n      tag_45\n      swap2\n      swap1\n      tag_42\n      jump\t// in\n    tag_45:\n      mload(0x40)\n      dup1\n      swap2\n      sub\n      swap1\n      return\n        /* \"contracts/LiskGarden.sol\":5631:6184  function calculateWaterLevel(uint256 plantId) public view returns (uint8) {... */\n    tag_8:\n      callvalue\n      dup1\n      iszero\n      tag_46\n      jumpi\n      revert(0x00, 0x00)\n    tag_46:\n      pop\n      tag_47\n      0x04\n      dup1\n      calldatasize\n      sub\n      dup2\n      add\n      swap1\n      tag_48\n      swap2\n      swap1\n      tag_49\n      jump\t// in\n    tag_48:\n      tag_50\n      jump\t// in\n    tag_47:\n      mload(0x40)\n      tag_51\n      swap2\n      swap1\n      tag_52\n      jump\t// in\n    tag_51:\n      mload(0x40)\n      dup1\n      swap2\n      sub\n      swap1\n      return\n        /* \"contracts/LiskGarden.sol\":2355:2404  uint256 public constant WATER_DEPLETION_TIME = 30 */\n    tag_9:\n      callvalue\n      dup1\n      iszero\n      tag_53\n      jumpi\n      revert(0x00, 0x00)\n    tag_53:\n      pop\n      tag_54\n      tag_55\n      jump\t// in\n    tag_54:\n      mload(0x40)\n      tag_56\n      swap2\n      swap1\n      tag_42\n      jump\t// in\n    tag_56:\n      mload(0x40)\n      dup1\n      swap2\n      sub\n      swap1\n      return\n        /* \"contracts/LiskGarden.sol\":2076:2129  uint256 public constant HARVEST_REWARD = 0.0003 ether */\n    tag_10:\n      callvalue\n      dup1\n      iszero\n      tag_57\n      jumpi\n      revert(0x00, 0x00)\n    tag_57:\n      pop\n      tag_58\n      tag_59\n      jump\t// in\n    tag_58:\n      mload(0x40)\n      tag_60\n      swap2\n      swap1\n      tag_42\n      jump\t// in\n    tag_60:\n      mload(0x40)\n      dup1\n      swap2\n      sub\n      swap1\n      return\n        /* \"contracts/LiskGarden.sol\":1423:1470  mapping(address => uint256[]) public userPlants */\n    tag_11:\n      callvalue\n      dup1\n      iszero\n      tag_61\n      jumpi\n      revert(0x00, 0x00)\n    tag_61:\n      pop\n      tag_62\n      0x04\n      dup1\n      calldatasize\n      sub\n      dup2\n      add\n      swap1\n      tag_63\n      swap2\n      swap1\n      tag_64\n      jump\t// in\n    tag_63:\n      tag_65\n      jump\t// in\n    tag_62:\n      mload(0x40)\n      tag_66\n      swap2\n      swap1\n      tag_42\n      jump\t// in\n    tag_66:\n      mload(0x40)\n      dup1\n      swap2\n      sub\n      swap1\n      return\n        /* \"contracts/LiskGarden.sol\":1683:1703  address public owner */\n    tag_12:\n      callvalue\n      dup1\n      iszero\n      tag_67\n      jumpi\n      revert(0x00, 0x00)\n    tag_67:\n      pop\n      tag_68\n      tag_69\n      jump\t// in\n    tag_68:\n      mload(0x40)\n      tag_70\n      swap2\n      swap1\n      tag_71\n      jump\t// in\n    tag_70:\n      mload(0x40)\n      dup1\n      swap2\n      sub\n      swap1\n      return\n        /* \"contracts/LiskGarden.sol\":1238:1277  mapping(uint256 => Plant) public plants */\n    tag_13:\n      callvalue\n      dup1\n      iszero\n      tag_72\n      jumpi\n      revert(0x00, 0x00)\n    tag_72:\n      pop\n      tag_73\n      0x04\n      dup1\n      calldatasize\n      sub\n      dup2\n      add\n      swap1\n      tag_74\n      swap2\n      swap1\n      tag_49\n      jump\t// in\n    tag_74:\n      tag_75\n      jump\t// in\n    tag_73:\n      mload(0x40)\n      tag_76\n      swap9\n      swap8\n      swap7\n      swap6\n      swap5\n      swap4\n      swap3\n      swap2\n      swap1\n      tag_77\n      jump\t// in\n    tag_76:\n      mload(0x40)\n      dup1\n      swap2\n      sub\n      swap1\n      return\n        /* \"contracts/LiskGarden.sol\":7141:7533  function waterPlant(uint256 plantId) external {... */\n    tag_14:\n      callvalue\n      dup1\n      iszero\n      tag_78\n      jumpi\n      revert(0x00, 0x00)\n    tag_78:\n      pop\n      tag_79\n      0x04\n      dup1\n      calldatasize\n      sub\n      dup2\n      add\n      swap1\n      tag_80\n      swap2\n      swap1\n      tag_49\n      jump\t// in\n    tag_80:\n      tag_81\n      jump\t// in\n    tag_79:\n      stop\n        /* \"contracts/LiskGarden.sol\":1570:1597  uint256 public plantCounter */\n    tag_15:\n      callvalue\n      dup1\n      iszero\n      tag_82\n      jumpi\n      revert(0x00, 0x00)\n    tag_82:\n      pop\n      tag_83\n      tag_84\n      jump\t// in\n    tag_83:\n      mload(0x40)\n      tag_85\n      swap2\n      swap1\n      tag_42\n      jump\t// in\n    tag_85:\n      mload(0x40)\n      dup1\n      swap2\n      sub\n      swap1\n      return\n        /* \"contracts/LiskGarden.sol\":2531:2577  uint8 public constant WATER_DEPLETION_RATE = 2 */\n    tag_16:\n      callvalue\n      dup1\n      iszero\n      tag_86\n      jumpi\n      revert(0x00, 0x00)\n    tag_86:\n      pop\n      tag_87\n      tag_88\n      jump\t// in\n    tag_87:\n      mload(0x40)\n      tag_89\n      swap2\n      swap1\n      tag_52\n      jump\t// in\n    tag_89:\n      mload(0x40)\n      dup1\n      swap2\n      sub\n      swap1\n      return\n        /* \"contracts/LiskGarden.sol\":1973:2022  uint256 public constant PLANT_PRICE = 0.001 ether */\n    tag_17:\n      callvalue\n      dup1\n      iszero\n      tag_90\n      jumpi\n      revert(0x00, 0x00)\n    tag_90:\n      pop\n      tag_91\n      tag_92\n      jump\t// in\n    tag_91:\n      mload(0x40)\n      tag_93\n      swap2\n      swap1\n      tag_42\n      jump\t// in\n    tag_93:\n      mload(0x40)\n      dup1\n      swap2\n      sub\n      swap1\n      return\n        /* \"contracts/LiskGarden.sol\":8017:8753  function updatePlantStage(uint256 plantId) public {... */\n    tag_18:\n      callvalue\n      dup1\n      iszero\n      tag_94\n      jumpi\n      revert(0x00, 0x00)\n    tag_94:\n      pop\n      tag_95\n      0x04\n      dup1\n      calldatasize\n      sub\n      dup2\n      add\n      swap1\n      tag_96\n      swap2\n      swap1\n      tag_49\n      jump\t// in\n    tag_96:\n      tag_97\n      jump\t// in\n    tag_95:\n      stop\n        /* \"contracts/LiskGarden.sol\":9104:9580  function harvestPlant(uint256 plantId) external {... */\n    tag_19:\n      callvalue\n      dup1\n      iszero\n      tag_98\n      jumpi\n      revert(0x00, 0x00)\n    tag_98:\n      pop\n      tag_99\n      0x04\n      dup1\n      calldatasize\n      sub\n      dup2\n      add\n      swap1\n      tag_100\n      swap2\n      swap1\n      tag_49\n      jump\t// in\n    tag_100:\n      tag_101\n      jump\t// in\n    tag_99:\n      stop\n        /* \"contracts/LiskGarden.sol\":9739:9947  function getPlant(uint256 plantId) external view returns (Plant memory) {... */\n    tag_20:\n      callvalue\n      dup1\n      iszero\n      tag_102\n      jumpi\n      revert(0x00, 0x00)\n    tag_102:\n      pop\n      tag_103\n      0x04\n      dup1\n      calldatasize\n      sub\n      dup2\n      add\n      swap1\n      tag_104\n      swap2\n      swap1\n      tag_49\n      jump\t// in\n    tag_104:\n      tag_105\n      jump\t// in\n    tag_103:\n      mload(0x40)\n      tag_106\n      swap2\n      swap1\n      tag_107\n      jump\t// in\n    tag_106:\n      mload(0x40)\n      dup1\n      swap2\n      sub\n      swap1\n      return\n        /* \"contracts/LiskGarden.sol\":943:991  function balanceOwner() public payable{... */\n    tag_27:\n      jump\t// out\n        /* \"contracts/LiskGarden.sol\":9955:10075  function getUserPlants(address user) external view returns (uint256[] memory) {... */\n    tag_32:\n        /* \"contracts/LiskGarden.sol\":10015:10031  uint256[] memory */\n      0x60\n        /* \"contracts/LiskGarden.sol\":10051:10061  userPlants */\n      0x01\n        /* \"contracts/LiskGarden.sol\":10051:10067  userPlants[user] */\n      0x00\n        /* \"contracts/LiskGarden.sol\":10062:10066  user */\n      dup4\n        /* \"contracts/LiskGarden.sol\":10051:10067  userPlants[user] */\n      0xffffffffffffffffffffffffffffffffffffffff\n      and\n      0xffffffffffffffffffffffffffffffffffffffff\n      and\n      dup2\n      mstore\n      0x20\n      add\n      swap1\n      dup2\n      mstore\n      0x20\n      add\n      0x00\n      keccak256\n        /* \"contracts/LiskGarden.sol\":10044:10067  return userPlants[user] */\n      dup1\n      sload\n      dup1\n      0x20\n      mul\n      0x20\n      add\n      mload(0x40)\n      swap1\n      dup2\n      add\n      0x40\n      mstore\n      dup1\n      swap3\n      swap2\n      swap1\n      dup2\n      dup2\n      mstore\n      0x20\n      add\n      dup3\n      dup1\n      sload\n      dup1\n      iszero\n      tag_110\n      jumpi\n      0x20\n      mul\n      dup3\n      add\n      swap2\n      swap1\n      0x00\n      mstore\n      keccak256(0x00, 0x20)\n      swap1\n    tag_111:\n      dup2\n      sload\n      dup2\n      mstore\n      0x20\n      add\n      swap1\n      0x01\n      add\n      swap1\n      dup1\n      dup4\n      gt\n      tag_111\n      jumpi\n    tag_110:\n      pop\n      pop\n      pop\n      pop\n      pop\n      swap1\n      pop\n        /* \"contracts/LiskGarden.sol\":9955:10075  function getUserPlants(address user) external view returns (uint256[] memory) {... */\n      swap2\n      swap1\n      pop\n      jump\t// out\n        /* \"contracts/LiskGarden.sol\":10083:10293  function withdraw() external {... */\n    tag_37:\n        /* \"contracts/LiskGarden.sol\":10145:10150  owner */\n      0x03\n      0x00\n      swap1\n      sload\n      swap1\n      0x0100\n      exp\n      swap1\n      div\n      0xffffffffffffffffffffffffffffffffffffffff\n      and\n        /* \"contracts/LiskGarden.sol\":10131:10150  msg.sender == owner */\n      0xffffffffffffffffffffffffffffffffffffffff\n      and\n        /* \"contracts/LiskGarden.sol\":10131:10141  msg.sender */\n      caller\n        /* \"contracts/LiskGarden.sol\":10131:10150  msg.sender == owner */\n      0xffffffffffffffffffffffffffffffffffffffff\n      and\n      eq\n        /* \"contracts/LiskGarden.sol\":10123:10166  require(msg.sender == owner, \"Bukan owner\") */\n      tag_113\n      jumpi\n      mload(0x40)\n      0x08c379a000000000000000000000000000000000000000000000000000000000\n      dup2\n      mstore\n      0x04\n      add\n      tag_114\n      swap1\n      tag_115\n      jump\t// in\n    tag_114:\n      mload(0x40)\n      dup1\n      swap2\n      sub\n      swap1\n      revert\n    tag_113:\n        /* \"contracts/LiskGarden.sol\":10178:10190  bool success */\n      0x00\n        /* \"contracts/LiskGarden.sol\":10196:10201  owner */\n      0x03\n      0x00\n      swap1\n      sload\n      swap1\n      0x0100\n      exp\n      swap1\n      div\n      0xffffffffffffffffffffffffffffffffffffffff\n      and\n        /* \"contracts/LiskGarden.sol\":10196:10206  owner.call */\n      0xffffffffffffffffffffffffffffffffffffffff\n      and\n        /* \"contracts/LiskGarden.sol\":10214:10235  address(this).balance */\n      selfbalance\n        /* \"contracts/LiskGarden.sol\":10196:10240  owner.call{value: address(this).balance}(\"\") */\n      mload(0x40)\n      tag_116\n      swap1\n      tag_117\n      jump\t// in\n    tag_116:\n      0x00\n      mload(0x40)\n      dup1\n      dup4\n      sub\n      dup2\n      dup6\n      dup8\n      gas\n      call\n      swap3\n      pop\n      pop\n      pop\n      returndatasize\n      dup1\n      0x00\n      dup2\n      eq\n      tag_120\n      jumpi\n      mload(0x40)\n      swap2\n      pop\n      and(add(returndatasize, 0x3f), not(0x1f))\n      dup3\n      add\n      0x40\n      mstore\n      returndatasize\n      dup3\n      mstore\n      returndatasize\n      0x00\n      0x20\n      dup5\n      add\n      returndatacopy\n      jump(tag_119)\n    tag_120:\n      0x60\n      swap2\n      pop\n    tag_119:\n      pop\n        /* \"contracts/LiskGarden.sol\":10177:10240  (bool success, ) = owner.call{value: address(this).balance}(\"\") */\n      pop\n      swap1\n      pop\n        /* \"contracts/LiskGarden.sol\":10259:10266  success */\n      dup1\n        /* \"contracts/LiskGarden.sol\":10251:10285  require(success, \"Transfer gagal\") */\n      tag_121\n      jumpi\n      mload(0x40)\n      0x08c379a000000000000000000000000000000000000000000000000000000000\n      dup2\n      mstore\n      0x04\n      add\n      tag_122\n      swap1\n      tag_123\n      jump\t// in\n    tag_122:\n      mload(0x40)\n      dup1\n      swap2\n      sub\n      swap1\n      revert\n    tag_121:\n        /* \"contracts/LiskGarden.sol\":10112:10293  {... */\n      pop\n        /* \"contracts/LiskGarden.sol\":10083:10293  function withdraw() external {... */\n      jump\t// out\n        /* \"contracts/LiskGarden.sol\":2249:2299  uint256 public constant STAGE_DURATION = 1 minutes */\n    tag_40:\n        /* \"contracts/LiskGarden.sol\":2290:2299  1 minutes */\n      0x3c\n        /* \"contracts/LiskGarden.sol\":2249:2299  uint256 public constant STAGE_DURATION = 1 minutes */\n      dup2\n      jump\t// out\n        /* \"contracts/LiskGarden.sol\":4256:4999  function plantSeed() external payable returns (uint256) {... */\n    tag_44:\n        /* \"contracts/LiskGarden.sol\":4303:4310  uint256 */\n      0x00\n        /* \"contracts/LiskGarden.sol\":2011:2022  0.001 ether */\n      0x038d7ea4c68000\n        /* \"contracts/LiskGarden.sol\":4415:4424  msg.value */\n      callvalue\n        /* \"contracts/LiskGarden.sol\":4415:4439  msg.value >= PLANT_PRICE */\n      lt\n      iszero\n        /* \"contracts/LiskGarden.sol\":4407:4462  require(msg.value >= PLANT_PRICE, \"Saldo Kurang!!!!!!\") */\n      tag_125\n      jumpi\n      mload(0x40)\n      0x08c379a000000000000000000000000000000000000000000000000000000000\n      dup2\n      mstore\n      0x04\n      add\n      tag_126\n      swap1\n      tag_127\n      jump\t// in\n    tag_126:\n      mload(0x40)\n      dup1\n      swap2\n      sub\n      swap1\n      revert\n    tag_125:\n        /* \"contracts/LiskGarden.sol\":4473:4485  plantCounter */\n      0x02\n      0x00\n        /* \"contracts/LiskGarden.sol\":4473:4487  plantCounter++ */\n      dup2\n      sload\n      dup1\n      swap3\n      swap2\n      swap1\n      tag_128\n      swap1\n      tag_129\n      jump\t// in\n    tag_128:\n      swap2\n      swap1\n      pop\n      sstore\n      pop\n        /* \"contracts/LiskGarden.sol\":4498:4519  Plant memory newPlant */\n      0x00\n        /* \"contracts/LiskGarden.sol\":4522:4812  Plant({... */\n      mload(0x40)\n      dup1\n      0x0100\n      add\n      0x40\n      mstore\n      dup1\n        /* \"contracts/LiskGarden.sol\":4547:4559  plantCounter */\n      sload(0x02)\n        /* \"contracts/LiskGarden.sol\":4522:4812  Plant({... */\n      dup2\n      mstore\n      0x20\n      add\n        /* \"contracts/LiskGarden.sol\":4581:4591  msg.sender */\n      caller\n        /* \"contracts/LiskGarden.sol\":4522:4812  Plant({... */\n      0xffffffffffffffffffffffffffffffffffffffff\n      and\n      dup2\n      mstore\n      0x20\n      add\n        /* \"contracts/LiskGarden.sol\":4613:4629  GrowthStage.SEED */\n      0x00\n        /* \"contracts/LiskGarden.sol\":4522:4812  Plant({... */\n      0x03\n      dup2\n      gt\n      iszero\n      tag_130\n      jumpi\n      tag_131\n      tag_132\n      jump\t// in\n    tag_131:\n    tag_130:\n      dup2\n      mstore\n      0x20\n      add\n        /* \"contracts/LiskGarden.sol\":4657:4672  block.timestamp */\n      timestamp\n        /* \"contracts/LiskGarden.sol\":4522:4812  Plant({... */\n      dup2\n      mstore\n      0x20\n      add\n        /* \"contracts/LiskGarden.sol\":4700:4715  block.timestamp */\n      timestamp\n        /* \"contracts/LiskGarden.sol\":4522:4812  Plant({... */\n      dup2\n      mstore\n      0x20\n      add\n        /* \"contracts/LiskGarden.sol\":4742:4745  100 */\n      0x64\n        /* \"contracts/LiskGarden.sol\":4522:4812  Plant({... */\n      0xff\n      and\n      dup2\n      mstore\n      0x20\n      add\n        /* \"contracts/LiskGarden.sol\":4768:4772  true */\n      0x01\n        /* \"contracts/LiskGarden.sol\":4522:4812  Plant({... */\n      iszero\n      iszero\n      dup2\n      mstore\n      0x20\n      add\n        /* \"contracts/LiskGarden.sol\":4795:4800  false */\n      0x00\n        /* \"contracts/LiskGarden.sol\":4522:4812  Plant({... */\n      iszero\n      iszero\n      dup2\n      mstore\n      pop\n        /* \"contracts/LiskGarden.sol\":4498:4812  Plant memory newPlant = Plant({... */\n      swap1\n      pop\n        /* \"contracts/LiskGarden.sol\":4848:4856  newPlant */\n      dup1\n        /* \"contracts/LiskGarden.sol\":4825:4831  plants */\n      0x00\n        /* \"contracts/LiskGarden.sol\":4825:4845  plants[plantCounter] */\n      0x00\n        /* \"contracts/LiskGarden.sol\":4832:4844  plantCounter */\n      sload(0x02)\n        /* \"contracts/LiskGarden.sol\":4825:4845  plants[plantCounter] */\n      dup2\n      mstore\n      0x20\n      add\n      swap1\n      dup2\n      mstore\n      0x20\n      add\n      0x00\n      keccak256\n        /* \"contracts/LiskGarden.sol\":4825:4856  plants[plantCounter] = newPlant */\n      0x00\n      dup3\n      add\n      mload\n      dup2\n      0x00\n      add\n      sstore\n      0x20\n      dup3\n      add\n      mload\n      dup2\n      0x01\n      add\n      exp(0x0100, 0x00)\n      dup2\n      sload\n      dup2\n      0xffffffffffffffffffffffffffffffffffffffff\n      mul\n      not\n      and\n      swap1\n      dup4\n      0xffffffffffffffffffffffffffffffffffffffff\n      and\n      mul\n      or\n      swap1\n      sstore\n      pop\n      0x40\n      dup3\n      add\n      mload\n      dup2\n      0x01\n      add\n      exp(0x0100, 0x14)\n      dup2\n      sload\n      dup2\n      0xff\n      mul\n      not\n      and\n      swap1\n      dup4\n      0x03\n      dup2\n      gt\n      iszero\n      tag_133\n      jumpi\n      tag_134\n      tag_132\n      jump\t// in\n    tag_134:\n    tag_133:\n      mul\n      or\n      swap1\n      sstore\n      pop\n      0x60\n      dup3\n      add\n      mload\n      dup2\n      0x02\n      add\n      sstore\n      0x80\n      dup3\n      add\n      mload\n      dup2\n      0x03\n      add\n      sstore\n      0xa0\n      dup3\n      add\n      mload\n      dup2\n      0x04\n      add\n      exp(0x0100, 0x00)\n      dup2\n      sload\n      dup2\n      0xff\n      mul\n      not\n      and\n      swap1\n      dup4\n      0xff\n      and\n      mul\n      or\n      swap1\n      sstore\n      pop\n      0xc0\n      dup3\n      add\n      mload\n      dup2\n      0x04\n      add\n      exp(0x0100, 0x01)\n      dup2\n      sload\n      dup2\n      0xff\n      mul\n      not\n      and\n      swap1\n      dup4\n      iszero\n      iszero\n      mul\n      or\n      swap1\n      sstore\n      pop\n      0xe0\n      dup3\n      add\n      mload\n      dup2\n      0x04\n      add\n      exp(0x0100, 0x02)\n      dup2\n      sload\n      dup2\n      0xff\n      mul\n      not\n      and\n      swap1\n      dup4\n      iszero\n      iszero\n      mul\n      or\n      swap1\n      sstore\n      pop\n      swap1\n      pop\n      pop\n        /* \"contracts/LiskGarden.sol\":4867:4877  userPlants */\n      0x01\n        /* \"contracts/LiskGarden.sol\":4867:4889  userPlants[msg.sender] */\n      0x00\n        /* \"contracts/LiskGarden.sol\":4878:4888  msg.sender */\n      caller\n        /* \"contracts/LiskGarden.sol\":4867:4889  userPlants[msg.sender] */\n      0xffffffffffffffffffffffffffffffffffffffff\n      and\n      0xffffffffffffffffffffffffffffffffffffffff\n      and\n      dup2\n      mstore\n      0x20\n      add\n      swap1\n      dup2\n      mstore\n      0x20\n      add\n      0x00\n      keccak256\n        /* \"contracts/LiskGarden.sol\":4895:4907  plantCounter */\n      sload(0x02)\n        /* \"contracts/LiskGarden.sol\":4867:4908  userPlants[msg.sender].push(plantCounter) */\n      swap1\n      dup1\n      0x01\n      dup2\n      sload\n      add\n      dup1\n      dup3\n      sstore\n      dup1\n      swap2\n      pop\n      pop\n      0x01\n      swap1\n      sub\n      swap1\n      0x00\n      mstore\n      keccak256(0x00, 0x20)\n      add\n      0x00\n      swap1\n      swap2\n      swap1\n      swap2\n      swap1\n      swap2\n      pop\n      sstore\n        /* \"contracts/LiskGarden.sol\":4948:4960  plantCounter */\n      sload(0x02)\n        /* \"contracts/LiskGarden.sol\":4936:4946  msg.sender */\n      caller\n        /* \"contracts/LiskGarden.sol\":4924:4961  PlantSeeded(msg.sender, plantCounter) */\n      0xffffffffffffffffffffffffffffffffffffffff\n      and\n      0x4f5b22082ac57121703b0b6c1203ef527cfbfa5069616fee6deb979d124adbf0\n      mload(0x40)\n      mload(0x40)\n      dup1\n      swap2\n      sub\n      swap1\n      log3\n        /* \"contracts/LiskGarden.sol\":4979:4991  plantCounter */\n      sload(0x02)\n        /* \"contracts/LiskGarden.sol\":4972:4991  return plantCounter */\n      swap2\n      pop\n      pop\n        /* \"contracts/LiskGarden.sol\":4256:4999  function plantSeed() external payable returns (uint256) {... */\n      swap1\n      jump\t// out\n        /* \"contracts/LiskGarden.sol\":5631:6184  function calculateWaterLevel(uint256 plantId) public view returns (uint8) {... */\n    tag_50:\n        /* \"contracts/LiskGarden.sol\":5698:5703  uint8 */\n      0x00\n        /* \"contracts/LiskGarden.sol\":5744:5765  Plant storage myPlant */\n      0x00\n        /* \"contracts/LiskGarden.sol\":5768:5774  plants */\n      0x00\n        /* \"contracts/LiskGarden.sol\":5768:5783  plants[plantId] */\n      0x00\n        /* \"contracts/LiskGarden.sol\":5775:5782  plantId */\n      dup5\n        /* \"contracts/LiskGarden.sol\":5768:5783  plants[plantId] */\n      dup2\n      mstore\n      0x20\n      add\n      swap1\n      dup2\n      mstore\n      0x20\n      add\n      0x00\n      keccak256\n        /* \"contracts/LiskGarden.sol\":5744:5783  Plant storage myPlant = plants[plantId] */\n      swap1\n      pop\n        /* \"contracts/LiskGarden.sol\":5798:5805  myPlant */\n      dup1\n        /* \"contracts/LiskGarden.sol\":5798:5812  myPlant.exists */\n      0x04\n      add\n      0x01\n      swap1\n      sload\n      swap1\n      0x0100\n      exp\n      swap1\n      div\n      0xff\n      and\n        /* \"contracts/LiskGarden.sol\":5797:5812  !myPlant.exists */\n      iszero\n        /* \"contracts/LiskGarden.sol\":5797:5830  !myPlant.exists || myPlant.isDead */\n      dup1\n      tag_137\n      jumpi\n      pop\n        /* \"contracts/LiskGarden.sol\":5816:5823  myPlant */\n      dup1\n        /* \"contracts/LiskGarden.sol\":5816:5830  myPlant.isDead */\n      0x04\n      add\n      0x02\n      swap1\n      sload\n      swap1\n      0x0100\n      exp\n      swap1\n      div\n      0xff\n      and\n        /* \"contracts/LiskGarden.sol\":5797:5830  !myPlant.exists || myPlant.isDead */\n    tag_137:\n        /* \"contracts/LiskGarden.sol\":5794:5840  if(!myPlant.exists || myPlant.isDead) return 0 */\n      iszero\n      tag_138\n      jumpi\n        /* \"contracts/LiskGarden.sol\":5839:5840  0 */\n      0x00\n        /* \"contracts/LiskGarden.sol\":5832:5840  return 0 */\n      swap2\n      pop\n      pop\n      jump(tag_136)\n        /* \"contracts/LiskGarden.sol\":5794:5840  if(!myPlant.exists || myPlant.isDead) return 0 */\n    tag_138:\n        /* \"contracts/LiskGarden.sol\":5851:5875  uint256 timeSinceWatered */\n      0x00\n        /* \"contracts/LiskGarden.sol\":5896:5903  myPlant */\n      dup2\n        /* \"contracts/LiskGarden.sol\":5896:5915  myPlant.lastWatered */\n      0x03\n      add\n      sload\n        /* \"contracts/LiskGarden.sol\":5878:5893  block.timestamp */\n      timestamp\n        /* \"contracts/LiskGarden.sol\":5878:5915  block.timestamp - myPlant.lastWatered */\n      tag_139\n      swap2\n      swap1\n      tag_140\n      jump\t// in\n    tag_139:\n        /* \"contracts/LiskGarden.sol\":5851:5915  uint256 timeSinceWatered = block.timestamp - myPlant.lastWatered */\n      swap1\n      pop\n        /* \"contracts/LiskGarden.sol\":5926:5952  uint256 depletionIntervals */\n      0x00\n        /* \"contracts/LiskGarden.sol\":2402:2404  30 */\n      0x1e\n        /* \"contracts/LiskGarden.sol\":5955:5971  timeSinceWatered */\n      dup3\n        /* \"contracts/LiskGarden.sol\":5955:5994  timeSinceWatered / WATER_DEPLETION_TIME */\n      tag_141\n      swap2\n      swap1\n      tag_142\n      jump\t// in\n    tag_141:\n        /* \"contracts/LiskGarden.sol\":5926:5994  uint256 depletionIntervals = timeSinceWatered / WATER_DEPLETION_TIME */\n      swap1\n      pop\n        /* \"contracts/LiskGarden.sol\":6005:6022  uint256 waterLost */\n      0x00\n        /* \"contracts/LiskGarden.sol\":2576:2577  2 */\n      0x02\n        /* \"contracts/LiskGarden.sol\":6025:6066  depletionIntervals * WATER_DEPLETION_RATE */\n      0xff\n      and\n        /* \"contracts/LiskGarden.sol\":6025:6043  depletionIntervals */\n      dup3\n        /* \"contracts/LiskGarden.sol\":6025:6066  depletionIntervals * WATER_DEPLETION_RATE */\n      tag_143\n      swap2\n      swap1\n      tag_144\n      jump\t// in\n    tag_143:\n        /* \"contracts/LiskGarden.sol\":6005:6066  uint256 waterLost = depletionIntervals * WATER_DEPLETION_RATE */\n      swap1\n      pop\n        /* \"contracts/LiskGarden.sol\":6093:6100  myPlant */\n      dup4\n        /* \"contracts/LiskGarden.sol\":6093:6111  myPlant.waterLevel */\n      0x04\n      add\n      0x00\n      swap1\n      sload\n      swap1\n      0x0100\n      exp\n      swap1\n      div\n      0xff\n      and\n        /* \"contracts/LiskGarden.sol\":6080:6111  waterLost >= myPlant.waterLevel */\n      0xff\n      and\n        /* \"contracts/LiskGarden.sol\":6080:6089  waterLost */\n      dup2\n        /* \"contracts/LiskGarden.sol\":6080:6111  waterLost >= myPlant.waterLevel */\n      lt\n        /* \"contracts/LiskGarden.sol\":6077:6121  if(waterLost >= myPlant.waterLevel) return 0 */\n      tag_145\n      jumpi\n        /* \"contracts/LiskGarden.sol\":6120:6121  0 */\n      0x00\n        /* \"contracts/LiskGarden.sol\":6113:6121  return 0 */\n      swap5\n      pop\n      pop\n      pop\n      pop\n      pop\n      jump(tag_136)\n        /* \"contracts/LiskGarden.sol\":6077:6121  if(waterLost >= myPlant.waterLevel) return 0 */\n    tag_145:\n        /* \"contracts/LiskGarden.sol\":6166:6175  waterLost */\n      dup1\n        /* \"contracts/LiskGarden.sol\":6145:6152  myPlant */\n      dup5\n        /* \"contracts/LiskGarden.sol\":6145:6163  myPlant.waterLevel */\n      0x04\n      add\n      0x00\n      swap1\n      sload\n      swap1\n      0x0100\n      exp\n      swap1\n      div\n      0xff\n      and\n        /* \"contracts/LiskGarden.sol\":6145:6175  myPlant.waterLevel - waterLost */\n      0xff\n      and\n      tag_146\n      swap2\n      swap1\n      tag_140\n      jump\t// in\n    tag_146:\n        /* \"contracts/LiskGarden.sol\":6132:6176  return uint8(myPlant.waterLevel - waterLost) */\n      swap5\n      pop\n      pop\n      pop\n      pop\n      pop\n        /* \"contracts/LiskGarden.sol\":5631:6184  function calculateWaterLevel(uint256 plantId) public view returns (uint8) {... */\n    tag_136:\n      swap2\n      swap1\n      pop\n      jump\t// out\n        /* \"contracts/LiskGarden.sol\":2355:2404  uint256 public constant WATER_DEPLETION_TIME = 30 */\n    tag_55:\n        /* \"contracts/LiskGarden.sol\":2402:2404  30 */\n      0x1e\n        /* \"contracts/LiskGarden.sol\":2355:2404  uint256 public constant WATER_DEPLETION_TIME = 30 */\n      dup2\n      jump\t// out\n        /* \"contracts/LiskGarden.sol\":2076:2129  uint256 public constant HARVEST_REWARD = 0.0003 ether */\n    tag_59:\n        /* \"contracts/LiskGarden.sol\":2117:2129  0.0003 ether */\n      0x0110d9316ec000\n        /* \"contracts/LiskGarden.sol\":2076:2129  uint256 public constant HARVEST_REWARD = 0.0003 ether */\n      dup2\n      jump\t// out\n        /* \"contracts/LiskGarden.sol\":1423:1470  mapping(address => uint256[]) public userPlants */\n    tag_65:\n      mstore(0x20, 0x01)\n      dup2\n      0x00\n      mstore\n      keccak256(0x00, 0x40)\n      dup2\n      dup2\n      sload\n      dup2\n      lt\n      tag_147\n      jumpi\n      0x00\n      dup1\n      revert\n    tag_147:\n      swap1\n      0x00\n      mstore\n      keccak256(0x00, 0x20)\n      add\n      0x00\n      swap2\n      pop\n      swap2\n      pop\n      pop\n      sload\n      dup2\n      jump\t// out\n        /* \"contracts/LiskGarden.sol\":1683:1703  address public owner */\n    tag_69:\n      0x03\n      0x00\n      swap1\n      sload\n      swap1\n      0x0100\n      exp\n      swap1\n      div\n      0xffffffffffffffffffffffffffffffffffffffff\n      and\n      dup2\n      jump\t// out\n        /* \"contracts/LiskGarden.sol\":1238:1277  mapping(uint256 => Plant) public plants */\n    tag_75:\n      mstore(0x20, 0x00)\n      dup1\n      0x00\n      mstore\n      keccak256(0x00, 0x40)\n      0x00\n      swap2\n      pop\n      swap1\n      pop\n      dup1\n      0x00\n      add\n      sload\n      swap1\n      dup1\n      0x01\n      add\n      0x00\n      swap1\n      sload\n      swap1\n      0x0100\n      exp\n      swap1\n      div\n      0xffffffffffffffffffffffffffffffffffffffff\n      and\n      swap1\n      dup1\n      0x01\n      add\n      0x14\n      swap1\n      sload\n      swap1\n      0x0100\n      exp\n      swap1\n      div\n      0xff\n      and\n      swap1\n      dup1\n      0x02\n      add\n      sload\n      swap1\n      dup1\n      0x03\n      add\n      sload\n      swap1\n      dup1\n      0x04\n      add\n      0x00\n      swap1\n      sload\n      swap1\n      0x0100\n      exp\n      swap1\n      div\n      0xff\n      and\n      swap1\n      dup1\n      0x04\n      add\n      0x01\n      swap1\n      sload\n      swap1\n      0x0100\n      exp\n      swap1\n      div\n      0xff\n      and\n      swap1\n      dup1\n      0x04\n      add\n      0x02\n      swap1\n      sload\n      swap1\n      0x0100\n      exp\n      swap1\n      div\n      0xff\n      and\n      swap1\n      pop\n      dup9\n      jump\t// out\n        /* \"contracts/LiskGarden.sol\":7141:7533  function waterPlant(uint256 plantId) external {... */\n    tag_81:\n        /* \"contracts/LiskGarden.sol\":7222:7243  Plant storage myPlant */\n      0x00\n        /* \"contracts/LiskGarden.sol\":7246:7252  plants */\n      0x00\n        /* \"contracts/LiskGarden.sol\":7246:7261  plants[plantId] */\n      0x00\n        /* \"contracts/LiskGarden.sol\":7253:7260  plantId */\n      dup4\n        /* \"contracts/LiskGarden.sol\":7246:7261  plants[plantId] */\n      dup2\n      mstore\n      0x20\n      add\n      swap1\n      dup2\n      mstore\n      0x20\n      add\n      0x00\n      keccak256\n        /* \"contracts/LiskGarden.sol\":7222:7261  Plant storage myPlant = plants[plantId] */\n      swap1\n      pop\n        /* \"contracts/LiskGarden.sol\":7276:7283  myPlant */\n      dup1\n        /* \"contracts/LiskGarden.sol\":7276:7290  myPlant.exists */\n      0x04\n      add\n      0x01\n      swap1\n      sload\n      swap1\n      0x0100\n      exp\n      swap1\n      div\n      0xff\n      and\n        /* \"contracts/LiskGarden.sol\":7268:7291  require(myPlant.exists) */\n      tag_150\n      jumpi\n      revert(0x00, 0x00)\n    tag_150:\n        /* \"contracts/LiskGarden.sol\":7323:7333  msg.sender */\n      caller\n        /* \"contracts/LiskGarden.sol\":7306:7333  myPlant.owner == msg.sender */\n      0xffffffffffffffffffffffffffffffffffffffff\n      and\n        /* \"contracts/LiskGarden.sol\":7306:7313  myPlant */\n      dup2\n        /* \"contracts/LiskGarden.sol\":7306:7319  myPlant.owner */\n      0x01\n      add\n      0x00\n      swap1\n      sload\n      swap1\n      0x0100\n      exp\n      swap1\n      div\n      0xffffffffffffffffffffffffffffffffffffffff\n      and\n        /* \"contracts/LiskGarden.sol\":7306:7333  myPlant.owner == msg.sender */\n      0xffffffffffffffffffffffffffffffffffffffff\n      and\n      eq\n        /* \"contracts/LiskGarden.sol\":7298:7334  require(myPlant.owner == msg.sender) */\n      tag_151\n      jumpi\n      revert(0x00, 0x00)\n    tag_151:\n        /* \"contracts/LiskGarden.sol\":7350:7357  myPlant */\n      dup1\n        /* \"contracts/LiskGarden.sol\":7350:7364  myPlant.isDead */\n      0x04\n      add\n      0x02\n      swap1\n      sload\n      swap1\n      0x0100\n      exp\n      swap1\n      div\n      0xff\n      and\n        /* \"contracts/LiskGarden.sol\":7349:7364  !myPlant.isDead */\n      iszero\n        /* \"contracts/LiskGarden.sol\":7341:7365  require(!myPlant.isDead) */\n      tag_152\n      jumpi\n      revert(0x00, 0x00)\n    tag_152:\n        /* \"contracts/LiskGarden.sol\":7393:7396  100 */\n      0x64\n        /* \"contracts/LiskGarden.sol\":7372:7379  myPlant */\n      dup2\n        /* \"contracts/LiskGarden.sol\":7372:7390  myPlant.waterLevel */\n      0x04\n      add\n      0x00\n        /* \"contracts/LiskGarden.sol\":7372:7396  myPlant.waterLevel = 100 */\n      0x0100\n      exp\n      dup2\n      sload\n      dup2\n      0xff\n      mul\n      not\n      and\n      swap1\n      dup4\n      0xff\n      and\n      mul\n      or\n      swap1\n      sstore\n      pop\n        /* \"contracts/LiskGarden.sol\":7425:7440  block.timestamp */\n      timestamp\n        /* \"contracts/LiskGarden.sol\":7403:7410  myPlant */\n      dup2\n        /* \"contracts/LiskGarden.sol\":7403:7422  myPlant.lastWatered */\n      0x03\n      add\n        /* \"contracts/LiskGarden.sol\":7403:7440  myPlant.lastWatered = block.timestamp */\n      dup2\n      swap1\n      sstore\n      pop\n        /* \"contracts/LiskGarden.sol\":7474:7481  myPlant */\n      dup1\n        /* \"contracts/LiskGarden.sol\":7474:7492  myPlant.waterLevel */\n      0x04\n      add\n      0x00\n      swap1\n      sload\n      swap1\n      0x0100\n      exp\n      swap1\n      div\n      0xff\n      and\n        /* \"contracts/LiskGarden.sol\":7452:7493  PlantWatered(plantId, myPlant.waterLevel) */\n      0xff\n      and\n        /* \"contracts/LiskGarden.sol\":7465:7472  plantId */\n      dup3\n        /* \"contracts/LiskGarden.sol\":7452:7493  PlantWatered(plantId, myPlant.waterLevel) */\n      0xd4b742b9ba48fffa1f14267075a7793851770764117c423fd0a6550dfc8cb574\n      mload(0x40)\n      mload(0x40)\n      dup1\n      swap2\n      sub\n      swap1\n      log3\n        /* \"contracts/LiskGarden.sol\":7500:7525  updatePlantStage(plantId) */\n      tag_153\n        /* \"contracts/LiskGarden.sol\":7517:7524  plantId */\n      dup3\n        /* \"contracts/LiskGarden.sol\":7500:7516  updatePlantStage */\n      tag_97\n        /* \"contracts/LiskGarden.sol\":7500:7525  updatePlantStage(plantId) */\n      jump\t// in\n    tag_153:\n        /* \"contracts/LiskGarden.sol\":7187:7533  {... */\n      pop\n        /* \"contracts/LiskGarden.sol\":7141:7533  function waterPlant(uint256 plantId) external {... */\n      pop\n      jump\t// out\n        /* \"contracts/LiskGarden.sol\":1570:1597  uint256 public plantCounter */\n    tag_84:\n      sload(0x02)\n      dup2\n      jump\t// out\n        /* \"contracts/LiskGarden.sol\":2531:2577  uint8 public constant WATER_DEPLETION_RATE = 2 */\n    tag_88:\n        /* \"contracts/LiskGarden.sol\":2576:2577  2 */\n      0x02\n        /* \"contracts/LiskGarden.sol\":2531:2577  uint8 public constant WATER_DEPLETION_RATE = 2 */\n      dup2\n      jump\t// out\n        /* \"contracts/LiskGarden.sol\":1973:2022  uint256 public constant PLANT_PRICE = 0.001 ether */\n    tag_92:\n        /* \"contracts/LiskGarden.sol\":2011:2022  0.001 ether */\n      0x038d7ea4c68000\n        /* \"contracts/LiskGarden.sol\":1973:2022  uint256 public constant PLANT_PRICE = 0.001 ether */\n      dup2\n      jump\t// out\n        /* \"contracts/LiskGarden.sol\":8017:8753  function updatePlantStage(uint256 plantId) public {... */\n    tag_97:\n        /* \"contracts/LiskGarden.sol\":8106:8127  Plant storage myPlant */\n      0x00\n        /* \"contracts/LiskGarden.sol\":8130:8136  plants */\n      0x00\n        /* \"contracts/LiskGarden.sol\":8130:8145  plants[plantId] */\n      0x00\n        /* \"contracts/LiskGarden.sol\":8137:8144  plantId */\n      dup4\n        /* \"contracts/LiskGarden.sol\":8130:8145  plants[plantId] */\n      dup2\n      mstore\n      0x20\n      add\n      swap1\n      dup2\n      mstore\n      0x20\n      add\n      0x00\n      keccak256\n        /* \"contracts/LiskGarden.sol\":8106:8145  Plant storage myPlant = plants[plantId] */\n      swap1\n      pop\n        /* \"contracts/LiskGarden.sol\":8164:8171  myPlant */\n      dup1\n        /* \"contracts/LiskGarden.sol\":8164:8178  myPlant.exists */\n      0x04\n      add\n      0x01\n      swap1\n      sload\n      swap1\n      0x0100\n      exp\n      swap1\n      div\n      0xff\n      and\n        /* \"contracts/LiskGarden.sol\":8156:8179  require(myPlant.exists) */\n      tag_155\n      jumpi\n      revert(0x00, 0x00)\n    tag_155:\n        /* \"contracts/LiskGarden.sol\":8190:8215  updateWaterLevel(plantId) */\n      tag_156\n        /* \"contracts/LiskGarden.sol\":8207:8214  plantId */\n      dup3\n        /* \"contracts/LiskGarden.sol\":8190:8206  updateWaterLevel */\n      tag_157\n        /* \"contracts/LiskGarden.sol\":8190:8215  updateWaterLevel(plantId) */\n      jump\t// in\n    tag_156:\n        /* \"contracts/LiskGarden.sol\":8230:8237  myPlant */\n      dup1\n        /* \"contracts/LiskGarden.sol\":8230:8244  myPlant.isDead */\n      0x04\n      add\n      0x02\n      swap1\n      sload\n      swap1\n      0x0100\n      exp\n      swap1\n      div\n      0xff\n      and\n        /* \"contracts/LiskGarden.sol\":8226:8253  if (myPlant.isDead) return; */\n      iszero\n      tag_158\n      jumpi\n        /* \"contracts/LiskGarden.sol\":8246:8253  return; */\n      pop\n      jump(tag_154)\n        /* \"contracts/LiskGarden.sol\":8226:8253  if (myPlant.isDead) return; */\n    tag_158:\n        /* \"contracts/LiskGarden.sol\":8263:8287  uint256 timeSincePlanted */\n      0x00\n        /* \"contracts/LiskGarden.sol\":8308:8315  myPlant */\n      dup2\n        /* \"contracts/LiskGarden.sol\":8308:8327  myPlant.plantedDate */\n      0x02\n      add\n      sload\n        /* \"contracts/LiskGarden.sol\":8290:8305  block.timestamp */\n      timestamp\n        /* \"contracts/LiskGarden.sol\":8290:8327  block.timestamp - myPlant.plantedDate */\n      tag_159\n      swap2\n      swap1\n      tag_140\n      jump\t// in\n    tag_159:\n        /* \"contracts/LiskGarden.sol\":8263:8327  uint256 timeSincePlanted = block.timestamp - myPlant.plantedDate */\n      swap1\n      pop\n        /* \"contracts/LiskGarden.sol\":8338:8358  GrowthStage oldStage */\n      0x00\n        /* \"contracts/LiskGarden.sol\":8361:8368  myPlant */\n      dup3\n        /* \"contracts/LiskGarden.sol\":8361:8374  myPlant.stage */\n      0x01\n      add\n      0x14\n      swap1\n      sload\n      swap1\n      0x0100\n      exp\n      swap1\n      div\n      0xff\n      and\n        /* \"contracts/LiskGarden.sol\":8338:8374  GrowthStage oldStage = myPlant.stage */\n      swap1\n      pop\n        /* \"contracts/LiskGarden.sol\":2290:2299  1 minutes */\n      0x3c\n        /* \"contracts/LiskGarden.sol\":8389:8405  timeSincePlanted */\n      dup3\n        /* \"contracts/LiskGarden.sol\":8389:8423  timeSincePlanted >= STAGE_DURATION */\n      lt\n        /* \"contracts/LiskGarden.sol\":8385:8459  if (timeSincePlanted >= STAGE_DURATION) myPlant.stage = GrowthStage.SPROUT */\n      tag_160\n      jumpi\n        /* \"contracts/LiskGarden.sol\":8441:8459  GrowthStage.SPROUT */\n      0x01\n        /* \"contracts/LiskGarden.sol\":8425:8432  myPlant */\n      dup4\n        /* \"contracts/LiskGarden.sol\":8425:8438  myPlant.stage */\n      0x01\n      add\n      0x14\n        /* \"contracts/LiskGarden.sol\":8425:8459  myPlant.stage = GrowthStage.SPROUT */\n      0x0100\n      exp\n      dup2\n      sload\n      dup2\n      0xff\n      mul\n      not\n      and\n      swap1\n      dup4\n      0x03\n      dup2\n      gt\n      iszero\n      tag_161\n      jumpi\n      tag_162\n      tag_132\n      jump\t// in\n    tag_162:\n    tag_161:\n      mul\n      or\n      swap1\n      sstore\n      pop\n        /* \"contracts/LiskGarden.sol\":8385:8459  if (timeSincePlanted >= STAGE_DURATION) myPlant.stage = GrowthStage.SPROUT */\n    tag_160:\n        /* \"contracts/LiskGarden.sol\":8512:8513  2 */\n      0x02\n        /* \"contracts/LiskGarden.sol\":2290:2299  1 minutes */\n      0x3c\n        /* \"contracts/LiskGarden.sol\":8495:8513  STAGE_DURATION * 2 */\n      tag_163\n      swap2\n      swap1\n      tag_144\n      jump\t// in\n    tag_163:\n        /* \"contracts/LiskGarden.sol\":8475:8491  timeSincePlanted */\n      dup3\n        /* \"contracts/LiskGarden.sol\":8475:8513  timeSincePlanted >= STAGE_DURATION * 2 */\n      lt\n        /* \"contracts/LiskGarden.sol\":8471:8550  if (timeSincePlanted >= STAGE_DURATION * 2) myPlant.stage = GrowthStage.GROWING */\n      tag_164\n      jumpi\n        /* \"contracts/LiskGarden.sol\":8531:8550  GrowthStage.GROWING */\n      0x02\n        /* \"contracts/LiskGarden.sol\":8515:8522  myPlant */\n      dup4\n        /* \"contracts/LiskGarden.sol\":8515:8528  myPlant.stage */\n      0x01\n      add\n      0x14\n        /* \"contracts/LiskGarden.sol\":8515:8550  myPlant.stage = GrowthStage.GROWING */\n      0x0100\n      exp\n      dup2\n      sload\n      dup2\n      0xff\n      mul\n      not\n      and\n      swap1\n      dup4\n      0x03\n      dup2\n      gt\n      iszero\n      tag_165\n      jumpi\n      tag_166\n      tag_132\n      jump\t// in\n    tag_166:\n    tag_165:\n      mul\n      or\n      swap1\n      sstore\n      pop\n        /* \"contracts/LiskGarden.sol\":8471:8550  if (timeSincePlanted >= STAGE_DURATION * 2) myPlant.stage = GrowthStage.GROWING */\n    tag_164:\n        /* \"contracts/LiskGarden.sol\":8603:8604  3 */\n      0x03\n        /* \"contracts/LiskGarden.sol\":2290:2299  1 minutes */\n      0x3c\n        /* \"contracts/LiskGarden.sol\":8586:8604  STAGE_DURATION * 3 */\n      tag_167\n      swap2\n      swap1\n      tag_144\n      jump\t// in\n    tag_167:\n        /* \"contracts/LiskGarden.sol\":8566:8582  timeSincePlanted */\n      dup3\n        /* \"contracts/LiskGarden.sol\":8566:8604  timeSincePlanted >= STAGE_DURATION * 3 */\n      lt\n        /* \"contracts/LiskGarden.sol\":8562:8642  if (timeSincePlanted >= STAGE_DURATION * 3) myPlant.stage = GrowthStage.BLOOMING */\n      tag_168\n      jumpi\n        /* \"contracts/LiskGarden.sol\":8622:8642  GrowthStage.BLOOMING */\n      0x03\n        /* \"contracts/LiskGarden.sol\":8606:8613  myPlant */\n      dup4\n        /* \"contracts/LiskGarden.sol\":8606:8619  myPlant.stage */\n      0x01\n      add\n      0x14\n        /* \"contracts/LiskGarden.sol\":8606:8642  myPlant.stage = GrowthStage.BLOOMING */\n      0x0100\n      exp\n      dup2\n      sload\n      dup2\n      0xff\n      mul\n      not\n      and\n      swap1\n      dup4\n      0x03\n      dup2\n      gt\n      iszero\n      tag_169\n      jumpi\n      tag_170\n      tag_132\n      jump\t// in\n    tag_170:\n    tag_169:\n      mul\n      or\n      swap1\n      sstore\n      pop\n        /* \"contracts/LiskGarden.sol\":8562:8642  if (timeSincePlanted >= STAGE_DURATION * 3) myPlant.stage = GrowthStage.BLOOMING */\n    tag_168:\n        /* \"contracts/LiskGarden.sol\":8675:8683  oldStage */\n      dup1\n        /* \"contracts/LiskGarden.sol\":8658:8683  myPlant.stage != oldStage */\n      0x03\n      dup2\n      gt\n      iszero\n      tag_171\n      jumpi\n      tag_172\n      tag_132\n      jump\t// in\n    tag_172:\n    tag_171:\n        /* \"contracts/LiskGarden.sol\":8658:8665  myPlant */\n      dup4\n        /* \"contracts/LiskGarden.sol\":8658:8671  myPlant.stage */\n      0x01\n      add\n      0x14\n      swap1\n      sload\n      swap1\n      0x0100\n      exp\n      swap1\n      div\n      0xff\n      and\n        /* \"contracts/LiskGarden.sol\":8658:8683  myPlant.stage != oldStage */\n      0x03\n      dup2\n      gt\n      iszero\n      tag_173\n      jumpi\n      tag_174\n      tag_132\n      jump\t// in\n    tag_174:\n    tag_173:\n      eq\n        /* \"contracts/LiskGarden.sol\":8654:8746  if (myPlant.stage != oldStage) {... */\n      tag_175\n      jumpi\n        /* \"contracts/LiskGarden.sol\":8715:8722  plantId */\n      dup4\n        /* \"contracts/LiskGarden.sol\":8701:8738  StageAdvanced(plantId, myPlant.stage) */\n      0x338b8976706f9da67298dddfa1ea4ff7d99cce68b9ca39c4f348994f8e2124a8\n        /* \"contracts/LiskGarden.sol\":8724:8731  myPlant */\n      dup5\n        /* \"contracts/LiskGarden.sol\":8724:8737  myPlant.stage */\n      0x01\n      add\n      0x14\n      swap1\n      sload\n      swap1\n      0x0100\n      exp\n      swap1\n      div\n      0xff\n      and\n        /* \"contracts/LiskGarden.sol\":8701:8738  StageAdvanced(plantId, myPlant.stage) */\n      mload(0x40)\n      tag_176\n      swap2\n      swap1\n      tag_177\n      jump\t// in\n    tag_176:\n      mload(0x40)\n      dup1\n      swap2\n      sub\n      swap1\n      log2\n        /* \"contracts/LiskGarden.sol\":8654:8746  if (myPlant.stage != oldStage) {... */\n    tag_175:\n        /* \"contracts/LiskGarden.sol\":8067:8753  {... */\n      pop\n      pop\n      pop\n        /* \"contracts/LiskGarden.sol\":8017:8753  function updatePlantStage(uint256 plantId) public {... */\n    tag_154:\n      pop\n      jump\t// out\n        /* \"contracts/LiskGarden.sol\":9104:9580  function harvestPlant(uint256 plantId) external {... */\n    tag_101:\n        /* \"contracts/LiskGarden.sol\":9191:9212  Plant storage myPlant */\n      0x00\n        /* \"contracts/LiskGarden.sol\":9215:9221  plants */\n      0x00\n        /* \"contracts/LiskGarden.sol\":9215:9230  plants[plantId] */\n      0x00\n        /* \"contracts/LiskGarden.sol\":9222:9229  plantId */\n      dup4\n        /* \"contracts/LiskGarden.sol\":9215:9230  plants[plantId] */\n      dup2\n      mstore\n      0x20\n      add\n      swap1\n      dup2\n      mstore\n      0x20\n      add\n      0x00\n      keccak256\n        /* \"contracts/LiskGarden.sol\":9191:9230  Plant storage myPlant = plants[plantId] */\n      swap1\n      pop\n        /* \"contracts/LiskGarden.sol\":9249:9256  myPlant */\n      dup1\n        /* \"contracts/LiskGarden.sol\":9249:9263  myPlant.exists */\n      0x04\n      add\n      0x01\n      swap1\n      sload\n      swap1\n      0x0100\n      exp\n      swap1\n      div\n      0xff\n      and\n        /* \"contracts/LiskGarden.sol\":9241:9280  require(myPlant.exists, \"tanaman gada\") */\n      tag_179\n      jumpi\n      mload(0x40)\n      0x08c379a000000000000000000000000000000000000000000000000000000000\n      dup2\n      mstore\n      0x04\n      add\n      tag_180\n      swap1\n      tag_181\n      jump\t// in\n    tag_180:\n      mload(0x40)\n      dup1\n      swap2\n      sub\n      swap1\n      revert\n    tag_179:\n        /* \"contracts/LiskGarden.sol\":9316:9336  GrowthStage.BLOOMING */\n      0x03\n        /* \"contracts/LiskGarden.sol\":9299:9336  myPlant.stage == GrowthStage.BLOOMING */\n      dup1\n      dup2\n      gt\n      iszero\n      tag_182\n      jumpi\n      tag_183\n      tag_132\n      jump\t// in\n    tag_183:\n    tag_182:\n        /* \"contracts/LiskGarden.sol\":9299:9306  myPlant */\n      dup2\n        /* \"contracts/LiskGarden.sol\":9299:9312  myPlant.stage */\n      0x01\n      add\n      0x14\n      swap1\n      sload\n      swap1\n      0x0100\n      exp\n      swap1\n      div\n      0xff\n      and\n        /* \"contracts/LiskGarden.sol\":9299:9336  myPlant.stage == GrowthStage.BLOOMING */\n      0x03\n      dup2\n      gt\n      iszero\n      tag_184\n      jumpi\n      tag_185\n      tag_132\n      jump\t// in\n    tag_185:\n    tag_184:\n      eq\n        /* \"contracts/LiskGarden.sol\":9291:9352  require(myPlant.stage == GrowthStage.BLOOMING, \"Belum mekar\") */\n      tag_186\n      jumpi\n      mload(0x40)\n      0x08c379a000000000000000000000000000000000000000000000000000000000\n      dup2\n      mstore\n      0x04\n      add\n      tag_187\n      swap1\n      tag_188\n      jump\t// in\n    tag_187:\n      mload(0x40)\n      dup1\n      swap2\n      sub\n      swap1\n      revert\n    tag_186:\n        /* \"contracts/LiskGarden.sol\":9380:9385  false */\n      0x00\n        /* \"contracts/LiskGarden.sol\":9363:9370  myPlant */\n      dup2\n        /* \"contracts/LiskGarden.sol\":9363:9377  myPlant.exists */\n      0x04\n      add\n      0x01\n        /* \"contracts/LiskGarden.sol\":9363:9385  myPlant.exists = false */\n      0x0100\n      exp\n      dup2\n      sload\n      dup2\n      0xff\n      mul\n      not\n      and\n      swap1\n      dup4\n      iszero\n      iszero\n      mul\n      or\n      swap1\n      sstore\n      pop\n        /* \"contracts/LiskGarden.sol\":2117:2129  0.0003 ether */\n      0x0110d9316ec000\n        /* \"contracts/LiskGarden.sol\":9425:9432  myPlant */\n      dup2\n        /* \"contracts/LiskGarden.sol\":9425:9438  myPlant.owner */\n      0x01\n      add\n      0x00\n      swap1\n      sload\n      swap1\n      0x0100\n      exp\n      swap1\n      div\n      0xffffffffffffffffffffffffffffffffffffffff\n      and\n        /* \"contracts/LiskGarden.sol\":9401:9455  PlantHarvested(plantId, myPlant.owner, HARVEST_REWARD) */\n      0xffffffffffffffffffffffffffffffffffffffff\n      and\n        /* \"contracts/LiskGarden.sol\":9416:9423  plantId */\n      dup4\n        /* \"contracts/LiskGarden.sol\":9401:9455  PlantHarvested(plantId, myPlant.owner, HARVEST_REWARD) */\n      0x79f2138ea100070ff95b59c265da7aa3c7a0f61595fe1bb2f5fda2762f398847\n      mload(0x40)\n      mload(0x40)\n      dup1\n      swap2\n      sub\n      swap1\n      log4\n        /* \"contracts/LiskGarden.sol\":9467:9479  bool success */\n      0x00\n        /* \"contracts/LiskGarden.sol\":9485:9495  msg.sender */\n      caller\n        /* \"contracts/LiskGarden.sol\":9485:9500  msg.sender.call */\n      0xffffffffffffffffffffffffffffffffffffffff\n      and\n        /* \"contracts/LiskGarden.sol\":2117:2129  0.0003 ether */\n      0x0110d9316ec000\n        /* \"contracts/LiskGarden.sol\":9485:9527  msg.sender.call{value: HARVEST_REWARD}(\"\") */\n      mload(0x40)\n      tag_189\n      swap1\n      tag_117\n      jump\t// in\n    tag_189:\n      0x00\n      mload(0x40)\n      dup1\n      dup4\n      sub\n      dup2\n      dup6\n      dup8\n      gas\n      call\n      swap3\n      pop\n      pop\n      pop\n      returndatasize\n      dup1\n      0x00\n      dup2\n      eq\n      tag_192\n      jumpi\n      mload(0x40)\n      swap2\n      pop\n      and(add(returndatasize, 0x3f), not(0x1f))\n      dup3\n      add\n      0x40\n      mstore\n      returndatasize\n      dup3\n      mstore\n      returndatasize\n      0x00\n      0x20\n      dup5\n      add\n      returndatacopy\n      jump(tag_191)\n    tag_192:\n      0x60\n      swap2\n      pop\n    tag_191:\n      pop\n        /* \"contracts/LiskGarden.sol\":9466:9527  (bool success, ) = msg.sender.call{value: HARVEST_REWARD}(\"\") */\n      pop\n      swap1\n      pop\n        /* \"contracts/LiskGarden.sol\":9546:9553  success */\n      dup1\n        /* \"contracts/LiskGarden.sol\":9538:9572  require(success, \"Transfer gagal\") */\n      tag_193\n      jumpi\n      mload(0x40)\n      0x08c379a000000000000000000000000000000000000000000000000000000000\n      dup2\n      mstore\n      0x04\n      add\n      tag_194\n      swap1\n      tag_123\n      jump\t// in\n    tag_194:\n      mload(0x40)\n      dup1\n      swap2\n      sub\n      swap1\n      revert\n    tag_193:\n        /* \"contracts/LiskGarden.sol\":9152:9580  {... */\n      pop\n      pop\n        /* \"contracts/LiskGarden.sol\":9104:9580  function harvestPlant(uint256 plantId) external {... */\n      pop\n      jump\t// out\n        /* \"contracts/LiskGarden.sol\":9739:9947  function getPlant(uint256 plantId) external view returns (Plant memory) {... */\n    tag_105:\n        /* \"contracts/LiskGarden.sol\":9797:9809  Plant memory */\n      tag_195\n      tag_196\n      jump\t// in\n    tag_195:\n        /* \"contracts/LiskGarden.sol\":9822:9840  Plant memory plant */\n      0x00\n        /* \"contracts/LiskGarden.sol\":9843:9849  plants */\n      0x00\n        /* \"contracts/LiskGarden.sol\":9843:9858  plants[plantId] */\n      0x00\n        /* \"contracts/LiskGarden.sol\":9850:9857  plantId */\n      dup5\n        /* \"contracts/LiskGarden.sol\":9843:9858  plants[plantId] */\n      dup2\n      mstore\n      0x20\n      add\n      swap1\n      dup2\n      mstore\n      0x20\n      add\n      0x00\n      keccak256\n        /* \"contracts/LiskGarden.sol\":9822:9858  Plant memory plant = plants[plantId] */\n      mload(0x40)\n      dup1\n      0x0100\n      add\n      0x40\n      mstore\n      swap1\n      dup2\n      0x00\n      dup3\n      add\n      sload\n      dup2\n      mstore\n      0x20\n      add\n      0x01\n      dup3\n      add\n      0x00\n      swap1\n      sload\n      swap1\n      0x0100\n      exp\n      swap1\n      div\n      0xffffffffffffffffffffffffffffffffffffffff\n      and\n      0xffffffffffffffffffffffffffffffffffffffff\n      and\n      0xffffffffffffffffffffffffffffffffffffffff\n      and\n      dup2\n      mstore\n      0x20\n      add\n      0x01\n      dup3\n      add\n      0x14\n      swap1\n      sload\n      swap1\n      0x0100\n      exp\n      swap1\n      div\n      0xff\n      and\n      0x03\n      dup2\n      gt\n      iszero\n      tag_198\n      jumpi\n      tag_199\n      tag_132\n      jump\t// in\n    tag_199:\n    tag_198:\n      0x03\n      dup2\n      gt\n      iszero\n      tag_200\n      jumpi\n      tag_201\n      tag_132\n      jump\t// in\n    tag_201:\n    tag_200:\n      dup2\n      mstore\n      0x20\n      add\n      0x02\n      dup3\n      add\n      sload\n      dup2\n      mstore\n      0x20\n      add\n      0x03\n      dup3\n      add\n      sload\n      dup2\n      mstore\n      0x20\n      add\n      0x04\n      dup3\n      add\n      0x00\n      swap1\n      sload\n      swap1\n      0x0100\n      exp\n      swap1\n      div\n      0xff\n      and\n      0xff\n      and\n      0xff\n      and\n      dup2\n      mstore\n      0x20\n      add\n      0x04\n      dup3\n      add\n      0x01\n      swap1\n      sload\n      swap1\n      0x0100\n      exp\n      swap1\n      div\n      0xff\n      and\n      iszero\n      iszero\n      iszero\n      iszero\n      dup2\n      mstore\n      0x20\n      add\n      0x04\n      dup3\n      add\n      0x02\n      swap1\n      sload\n      swap1\n      0x0100\n      exp\n      swap1\n      div\n      0xff\n      and\n      iszero\n      iszero\n      iszero\n      iszero\n      dup2\n      mstore\n      pop\n      pop\n      swap1\n      pop\n        /* \"contracts/LiskGarden.sol\":9888:9916  calculateWaterLevel(plantId) */\n      tag_202\n        /* \"contracts/LiskGarden.sol\":9908:9915  plantId */\n      dup4\n        /* \"contracts/LiskGarden.sol\":9888:9907  calculateWaterLevel */\n      tag_50\n        /* \"contracts/LiskGarden.sol\":9888:9916  calculateWaterLevel(plantId) */\n      jump\t// in\n    tag_202:\n        /* \"contracts/LiskGarden.sol\":9869:9874  plant */\n      dup2\n        /* \"contracts/LiskGarden.sol\":9869:9885  plant.waterLevel */\n      0xa0\n      add\n        /* \"contracts/LiskGarden.sol\":9869:9916  plant.waterLevel = calculateWaterLevel(plantId) */\n      swap1\n      0xff\n      and\n      swap1\n      dup2\n      0xff\n      and\n      dup2\n      mstore\n      pop\n      pop\n        /* \"contracts/LiskGarden.sol\":9934:9939  plant */\n      dup1\n        /* \"contracts/LiskGarden.sol\":9927:9939  return plant */\n      swap2\n      pop\n      pop\n        /* \"contracts/LiskGarden.sol\":9739:9947  function getPlant(uint256 plantId) external view returns (Plant memory) {... */\n      swap2\n      swap1\n      pop\n      jump\t// out\n        /* \"contracts/LiskGarden.sol\":6467:6845  function updateWaterLevel(uint256 plantId) internal {... */\n    tag_157:\n        /* \"contracts/LiskGarden.sol\":6558:6579  Plant storage myPlant */\n      0x00\n        /* \"contracts/LiskGarden.sol\":6582:6588  plants */\n      0x00\n        /* \"contracts/LiskGarden.sol\":6582:6597  plants[plantId] */\n      0x00\n        /* \"contracts/LiskGarden.sol\":6589:6596  plantId */\n      dup4\n        /* \"contracts/LiskGarden.sol\":6582:6597  plants[plantId] */\n      dup2\n      mstore\n      0x20\n      add\n      swap1\n      dup2\n      mstore\n      0x20\n      add\n      0x00\n      keccak256\n        /* \"contracts/LiskGarden.sol\":6558:6597  Plant storage myPlant = plants[plantId] */\n      swap1\n      pop\n        /* \"contracts/LiskGarden.sol\":6608:6626  uint8 currentWater */\n      0x00\n        /* \"contracts/LiskGarden.sol\":6629:6657  calculateWaterLevel(plantId) */\n      tag_204\n        /* \"contracts/LiskGarden.sol\":6649:6656  plantId */\n      dup4\n        /* \"contracts/LiskGarden.sol\":6629:6648  calculateWaterLevel */\n      tag_50\n        /* \"contracts/LiskGarden.sol\":6629:6657  calculateWaterLevel(plantId) */\n      jump\t// in\n    tag_204:\n        /* \"contracts/LiskGarden.sol\":6608:6657  uint8 currentWater = calculateWaterLevel(plantId) */\n      swap1\n      pop\n        /* \"contracts/LiskGarden.sol\":6689:6701  currentWater */\n      dup1\n        /* \"contracts/LiskGarden.sol\":6668:6675  myPlant */\n      dup3\n        /* \"contracts/LiskGarden.sol\":6668:6686  myPlant.waterLevel */\n      0x04\n      add\n      0x00\n        /* \"contracts/LiskGarden.sol\":6668:6701  myPlant.waterLevel = currentWater */\n      0x0100\n      exp\n      dup2\n      sload\n      dup2\n      0xff\n      mul\n      not\n      and\n      swap1\n      dup4\n      0xff\n      and\n      mul\n      or\n      swap1\n      sstore\n      pop\n        /* \"contracts/LiskGarden.sol\":6731:6732  0 */\n      0x00\n        /* \"contracts/LiskGarden.sol\":6715:6727  currentWater */\n      dup2\n        /* \"contracts/LiskGarden.sol\":6715:6732  currentWater == 0 */\n      0xff\n      and\n      eq\n        /* \"contracts/LiskGarden.sol\":6715:6751  currentWater == 0 && !myPlant.isDead */\n      dup1\n      iszero\n      tag_205\n      jumpi\n      pop\n        /* \"contracts/LiskGarden.sol\":6737:6744  myPlant */\n      dup2\n        /* \"contracts/LiskGarden.sol\":6737:6751  myPlant.isDead */\n      0x04\n      add\n      0x02\n      swap1\n      sload\n      swap1\n      0x0100\n      exp\n      swap1\n      div\n      0xff\n      and\n        /* \"contracts/LiskGarden.sol\":6736:6751  !myPlant.isDead */\n      iszero\n        /* \"contracts/LiskGarden.sol\":6715:6751  currentWater == 0 && !myPlant.isDead */\n    tag_205:\n        /* \"contracts/LiskGarden.sol\":6712:6838  if(currentWater == 0 && !myPlant.isDead){... */\n      iszero\n      tag_206\n      jumpi\n        /* \"contracts/LiskGarden.sol\":6784:6788  true */\n      0x01\n        /* \"contracts/LiskGarden.sol\":6767:6774  myPlant */\n      dup3\n        /* \"contracts/LiskGarden.sol\":6767:6781  myPlant.isDead */\n      0x04\n      add\n      0x02\n        /* \"contracts/LiskGarden.sol\":6767:6788  myPlant.isDead = true */\n      0x0100\n      exp\n      dup2\n      sload\n      dup2\n      0xff\n      mul\n      not\n      and\n      swap1\n      dup4\n      iszero\n      iszero\n      mul\n      or\n      swap1\n      sstore\n      pop\n        /* \"contracts/LiskGarden.sol\":6818:6825  plantId */\n      dup3\n        /* \"contracts/LiskGarden.sol\":6808:6826  PlantDied(plantId) */\n      0xcc296a21951f3e57f21afb08547d835a0a9f0f06cc2867009cbe0cae44d36be9\n      mload(0x40)\n      mload(0x40)\n      dup1\n      swap2\n      sub\n      swap1\n      log2\n        /* \"contracts/LiskGarden.sol\":6712:6838  if(currentWater == 0 && !myPlant.isDead){... */\n    tag_206:\n        /* \"contracts/LiskGarden.sol\":6519:6845  {... */\n      pop\n      pop\n        /* \"contracts/LiskGarden.sol\":6467:6845  function updateWaterLevel(uint256 plantId) internal {... */\n      pop\n      jump\t// out\n    tag_196:\n      mload(0x40)\n      dup1\n      0x0100\n      add\n      0x40\n      mstore\n      dup1\n      0x00\n      dup2\n      mstore\n      0x20\n      add\n      and(0xffffffffffffffffffffffffffffffffffffffff, 0x00)\n      dup2\n      mstore\n      0x20\n      add\n      0x00\n      0x03\n      dup2\n      gt\n      iszero\n      tag_207\n      jumpi\n      tag_208\n      tag_132\n      jump\t// in\n    tag_208:\n    tag_207:\n      dup2\n      mstore\n      0x20\n      add\n      0x00\n      dup2\n      mstore\n      0x20\n      add\n      0x00\n      dup2\n      mstore\n      0x20\n      add\n      and(0xff, 0x00)\n      dup2\n      mstore\n      0x20\n      add\n      iszero(iszero(0x00))\n      dup2\n      mstore\n      0x20\n      add\n      iszero(iszero(0x00))\n      dup2\n      mstore\n      pop\n      swap1\n      jump\t// out\n        /* \"#utility.yul\":88:205   */\n    tag_210:\n        /* \"#utility.yul\":197:198   */\n      0x00\n        /* \"#utility.yul\":194:195   */\n      0x00\n        /* \"#utility.yul\":187:199   */\n      revert\n        /* \"#utility.yul\":334:460   */\n    tag_212:\n        /* \"#utility.yul\":371:378   */\n      0x00\n        /* \"#utility.yul\":411:453   */\n      0xffffffffffffffffffffffffffffffffffffffff\n        /* \"#utility.yul\":404:409   */\n      dup3\n        /* \"#utility.yul\":400:454   */\n      and\n        /* \"#utility.yul\":389:454   */\n      swap1\n      pop\n        /* \"#utility.yul\":334:460   */\n      swap2\n      swap1\n      pop\n      jump\t// out\n        /* \"#utility.yul\":466:562   */\n    tag_213:\n        /* \"#utility.yul\":503:510   */\n      0x00\n        /* \"#utility.yul\":532:556   */\n      tag_263\n        /* \"#utility.yul\":550:555   */\n      dup3\n        /* \"#utility.yul\":532:556   */\n      tag_212\n      jump\t// in\n    tag_263:\n        /* \"#utility.yul\":521:556   */\n      swap1\n      pop\n        /* \"#utility.yul\":466:562   */\n      swap2\n      swap1\n      pop\n      jump\t// out\n        /* \"#utility.yul\":568:690   */\n    tag_214:\n        /* \"#utility.yul\":641:665   */\n      tag_265\n        /* \"#utility.yul\":659:664   */\n      dup2\n        /* \"#utility.yul\":641:665   */\n      tag_213\n      jump\t// in\n    tag_265:\n        /* \"#utility.yul\":634:639   */\n      dup2\n        /* \"#utility.yul\":631:666   */\n      eq\n        /* \"#utility.yul\":621:684   */\n      tag_266\n      jumpi\n        /* \"#utility.yul\":680:681   */\n      0x00\n        /* \"#utility.yul\":677:678   */\n      0x00\n        /* \"#utility.yul\":670:682   */\n      revert\n        /* \"#utility.yul\":621:684   */\n    tag_266:\n        /* \"#utility.yul\":568:690   */\n      pop\n      jump\t// out\n        /* \"#utility.yul\":696:835   */\n    tag_215:\n        /* \"#utility.yul\":742:747   */\n      0x00\n        /* \"#utility.yul\":780:786   */\n      dup2\n        /* \"#utility.yul\":767:787   */\n      calldataload\n        /* \"#utility.yul\":758:787   */\n      swap1\n      pop\n        /* \"#utility.yul\":796:829   */\n      tag_268\n        /* \"#utility.yul\":823:828   */\n      dup2\n        /* \"#utility.yul\":796:829   */\n      tag_214\n      jump\t// in\n    tag_268:\n        /* \"#utility.yul\":696:835   */\n      swap3\n      swap2\n      pop\n      pop\n      jump\t// out\n        /* \"#utility.yul\":841:1170   */\n    tag_31:\n        /* \"#utility.yul\":900:906   */\n      0x00\n        /* \"#utility.yul\":949:951   */\n      0x20\n        /* \"#utility.yul\":937:946   */\n      dup3\n        /* \"#utility.yul\":928:935   */\n      dup5\n        /* \"#utility.yul\":924:947   */\n      sub\n        /* \"#utility.yul\":920:952   */\n      slt\n        /* \"#utility.yul\":917:1036   */\n      iszero\n      tag_270\n      jumpi\n        /* \"#utility.yul\":955:1034   */\n      tag_271\n      tag_210\n      jump\t// in\n    tag_271:\n        /* \"#utility.yul\":917:1036   */\n    tag_270:\n        /* \"#utility.yul\":1075:1076   */\n      0x00\n        /* \"#utility.yul\":1100:1153   */\n      tag_272\n        /* \"#utility.yul\":1145:1152   */\n      dup5\n        /* \"#utility.yul\":1136:1142   */\n      dup3\n        /* \"#utility.yul\":1125:1134   */\n      dup6\n        /* \"#utility.yul\":1121:1143   */\n      add\n        /* \"#utility.yul\":1100:1153   */\n      tag_215\n      jump\t// in\n    tag_272:\n        /* \"#utility.yul\":1090:1153   */\n      swap2\n      pop\n        /* \"#utility.yul\":1046:1163   */\n      pop\n        /* \"#utility.yul\":841:1170   */\n      swap3\n      swap2\n      pop\n      pop\n      jump\t// out\n        /* \"#utility.yul\":1176:1290   */\n    tag_216:\n        /* \"#utility.yul\":1243:1249   */\n      0x00\n        /* \"#utility.yul\":1277:1282   */\n      dup2\n        /* \"#utility.yul\":1271:1283   */\n      mload\n        /* \"#utility.yul\":1261:1283   */\n      swap1\n      pop\n        /* \"#utility.yul\":1176:1290   */\n      swap2\n      swap1\n      pop\n      jump\t// out\n        /* \"#utility.yul\":1296:1480   */\n    tag_217:\n        /* \"#utility.yul\":1395:1406   */\n      0x00\n        /* \"#utility.yul\":1429:1435   */\n      dup3\n        /* \"#utility.yul\":1424:1427   */\n      dup3\n        /* \"#utility.yul\":1417:1436   */\n      mstore\n        /* \"#utility.yul\":1469:1473   */\n      0x20\n        /* \"#utility.yul\":1464:1467   */\n      dup3\n        /* \"#utility.yul\":1460:1474   */\n      add\n        /* \"#utility.yul\":1445:1474   */\n      swap1\n      pop\n        /* \"#utility.yul\":1296:1480   */\n      swap3\n      swap2\n      pop\n      pop\n      jump\t// out\n        /* \"#utility.yul\":1486:1618   */\n    tag_218:\n        /* \"#utility.yul\":1553:1557   */\n      0x00\n        /* \"#utility.yul\":1576:1579   */\n      dup2\n        /* \"#utility.yul\":1568:1579   */\n      swap1\n      pop\n        /* \"#utility.yul\":1606:1610   */\n      0x20\n        /* \"#utility.yul\":1601:1604   */\n      dup3\n        /* \"#utility.yul\":1597:1611   */\n      add\n        /* \"#utility.yul\":1589:1611   */\n      swap1\n      pop\n        /* \"#utility.yul\":1486:1618   */\n      swap2\n      swap1\n      pop\n      jump\t// out\n        /* \"#utility.yul\":1624:1701   */\n    tag_219:\n        /* \"#utility.yul\":1661:1668   */\n      0x00\n        /* \"#utility.yul\":1690:1695   */\n      dup2\n        /* \"#utility.yul\":1679:1695   */\n      swap1\n      pop\n        /* \"#utility.yul\":1624:1701   */\n      swap2\n      swap1\n      pop\n      jump\t// out\n        /* \"#utility.yul\":1707:1815   */\n    tag_220:\n        /* \"#utility.yul\":1784:1808   */\n      tag_278\n        /* \"#utility.yul\":1802:1807   */\n      dup2\n        /* \"#utility.yul\":1784:1808   */\n      tag_219\n      jump\t// in\n    tag_278:\n        /* \"#utility.yul\":1779:1782   */\n      dup3\n        /* \"#utility.yul\":1772:1809   */\n      mstore\n        /* \"#utility.yul\":1707:1815   */\n      pop\n      pop\n      jump\t// out\n        /* \"#utility.yul\":1821:2000   */\n    tag_221:\n        /* \"#utility.yul\":1890:1900   */\n      0x00\n        /* \"#utility.yul\":1911:1957   */\n      tag_280\n        /* \"#utility.yul\":1953:1956   */\n      dup4\n        /* \"#utility.yul\":1945:1951   */\n      dup4\n        /* \"#utility.yul\":1911:1957   */\n      tag_220\n      jump\t// in\n    tag_280:\n        /* \"#utility.yul\":1989:1993   */\n      0x20\n        /* \"#utility.yul\":1984:1987   */\n      dup4\n        /* \"#utility.yul\":1980:1994   */\n      add\n        /* \"#utility.yul\":1966:1994   */\n      swap1\n      pop\n        /* \"#utility.yul\":1821:2000   */\n      swap3\n      swap2\n      pop\n      pop\n      jump\t// out\n        /* \"#utility.yul\":2006:2119   */\n    tag_222:\n        /* \"#utility.yul\":2076:2080   */\n      0x00\n        /* \"#utility.yul\":2108:2112   */\n      0x20\n        /* \"#utility.yul\":2103:2106   */\n      dup3\n        /* \"#utility.yul\":2099:2113   */\n      add\n        /* \"#utility.yul\":2091:2113   */\n      swap1\n      pop\n        /* \"#utility.yul\":2006:2119   */\n      swap2\n      swap1\n      pop\n      jump\t// out\n        /* \"#utility.yul\":2155:2887   */\n    tag_223:\n        /* \"#utility.yul\":2274:2277   */\n      0x00\n        /* \"#utility.yul\":2303:2357   */\n      tag_283\n        /* \"#utility.yul\":2351:2356   */\n      dup3\n        /* \"#utility.yul\":2303:2357   */\n      tag_216\n      jump\t// in\n    tag_283:\n        /* \"#utility.yul\":2373:2459   */\n      tag_284\n        /* \"#utility.yul\":2452:2458   */\n      dup2\n        /* \"#utility.yul\":2447:2450   */\n      dup6\n        /* \"#utility.yul\":2373:2459   */\n      tag_217\n      jump\t// in\n    tag_284:\n        /* \"#utility.yul\":2366:2459   */\n      swap4\n      pop\n        /* \"#utility.yul\":2483:2539   */\n      tag_285\n        /* \"#utility.yul\":2533:2538   */\n      dup4\n        /* \"#utility.yul\":2483:2539   */\n      tag_218\n      jump\t// in\n    tag_285:\n        /* \"#utility.yul\":2562:2569   */\n      dup1\n        /* \"#utility.yul\":2593:2594   */\n      0x00\n        /* \"#utility.yul\":2578:2862   */\n    tag_286:\n        /* \"#utility.yul\":2603:2609   */\n      dup4\n        /* \"#utility.yul\":2600:2601   */\n      dup2\n        /* \"#utility.yul\":2597:2610   */\n      lt\n        /* \"#utility.yul\":2578:2862   */\n      iszero\n      tag_288\n      jumpi\n        /* \"#utility.yul\":2679:2685   */\n      dup2\n        /* \"#utility.yul\":2673:2686   */\n      mload\n        /* \"#utility.yul\":2706:2769   */\n      tag_289\n        /* \"#utility.yul\":2765:2768   */\n      dup9\n        /* \"#utility.yul\":2750:2763   */\n      dup3\n        /* \"#utility.yul\":2706:2769   */\n      tag_221\n      jump\t// in\n    tag_289:\n        /* \"#utility.yul\":2699:2769   */\n      swap8\n      pop\n        /* \"#utility.yul\":2792:2852   */\n      tag_290\n        /* \"#utility.yul\":2845:2851   */\n      dup4\n        /* \"#utility.yul\":2792:2852   */\n      tag_222\n      jump\t// in\n    tag_290:\n        /* \"#utility.yul\":2782:2852   */\n      swap3\n      pop\n        /* \"#utility.yul\":2638:2862   */\n      pop\n        /* \"#utility.yul\":2625:2626   */\n      0x01\n        /* \"#utility.yul\":2622:2623   */\n      dup2\n        /* \"#utility.yul\":2618:2627   */\n      add\n        /* \"#utility.yul\":2613:2627   */\n      swap1\n      pop\n        /* \"#utility.yul\":2578:2862   */\n      jump(tag_286)\n    tag_288:\n        /* \"#utility.yul\":2582:2596   */\n      pop\n        /* \"#utility.yul\":2878:2881   */\n      dup6\n        /* \"#utility.yul\":2871:2881   */\n      swap4\n      pop\n        /* \"#utility.yul\":2279:2887   */\n      pop\n      pop\n      pop\n        /* \"#utility.yul\":2155:2887   */\n      swap3\n      swap2\n      pop\n      pop\n      jump\t// out\n        /* \"#utility.yul\":2893:3266   */\n    tag_34:\n        /* \"#utility.yul\":3036:3040   */\n      0x00\n        /* \"#utility.yul\":3074:3076   */\n      0x20\n        /* \"#utility.yul\":3063:3072   */\n      dup3\n        /* \"#utility.yul\":3059:3077   */\n      add\n        /* \"#utility.yul\":3051:3077   */\n      swap1\n      pop\n        /* \"#utility.yul\":3123:3132   */\n      dup2\n        /* \"#utility.yul\":3117:3121   */\n      dup2\n        /* \"#utility.yul\":3113:3133   */\n      sub\n        /* \"#utility.yul\":3109:3110   */\n      0x00\n        /* \"#utility.yul\":3098:3107   */\n      dup4\n        /* \"#utility.yul\":3094:3111   */\n      add\n        /* \"#utility.yul\":3087:3134   */\n      mstore\n        /* \"#utility.yul\":3151:3259   */\n      tag_292\n        /* \"#utility.yul\":3254:3258   */\n      dup2\n        /* \"#utility.yul\":3245:3251   */\n      dup5\n        /* \"#utility.yul\":3151:3259   */\n      tag_223\n      jump\t// in\n    tag_292:\n        /* \"#utility.yul\":3143:3259   */\n      swap1\n      pop\n        /* \"#utility.yul\":2893:3266   */\n      swap3\n      swap2\n      pop\n      pop\n      jump\t// out\n        /* \"#utility.yul\":3272:3390   */\n    tag_224:\n        /* \"#utility.yul\":3359:3383   */\n      tag_294\n        /* \"#utility.yul\":3377:3382   */\n      dup2\n        /* \"#utility.yul\":3359:3383   */\n      tag_219\n      jump\t// in\n    tag_294:\n        /* \"#utility.yul\":3354:3357   */\n      dup3\n        /* \"#utility.yul\":3347:3384   */\n      mstore\n        /* \"#utility.yul\":3272:3390   */\n      pop\n      pop\n      jump\t// out\n        /* \"#utility.yul\":3396:3618   */\n    tag_42:\n        /* \"#utility.yul\":3489:3493   */\n      0x00\n        /* \"#utility.yul\":3527:3529   */\n      0x20\n        /* \"#utility.yul\":3516:3525   */\n      dup3\n        /* \"#utility.yul\":3512:3530   */\n      add\n        /* \"#utility.yul\":3504:3530   */\n      swap1\n      pop\n        /* \"#utility.yul\":3540:3611   */\n      tag_296\n        /* \"#utility.yul\":3608:3609   */\n      0x00\n        /* \"#utility.yul\":3597:3606   */\n      dup4\n        /* \"#utility.yul\":3593:3610   */\n      add\n        /* \"#utility.yul\":3584:3590   */\n      dup5\n        /* \"#utility.yul\":3540:3611   */\n      tag_224\n      jump\t// in\n    tag_296:\n        /* \"#utility.yul\":3396:3618   */\n      swap3\n      swap2\n      pop\n      pop\n      jump\t// out\n        /* \"#utility.yul\":3624:3746   */\n    tag_225:\n        /* \"#utility.yul\":3697:3721   */\n      tag_298\n        /* \"#utility.yul\":3715:3720   */\n      dup2\n        /* \"#utility.yul\":3697:3721   */\n      tag_219\n      jump\t// in\n    tag_298:\n        /* \"#utility.yul\":3690:3695   */\n      dup2\n        /* \"#utility.yul\":3687:3722   */\n      eq\n        /* \"#utility.yul\":3677:3740   */\n      tag_299\n      jumpi\n        /* \"#utility.yul\":3736:3737   */\n      0x00\n        /* \"#utility.yul\":3733:3734   */\n      0x00\n        /* \"#utility.yul\":3726:3738   */\n      revert\n        /* \"#utility.yul\":3677:3740   */\n    tag_299:\n        /* \"#utility.yul\":3624:3746   */\n      pop\n      jump\t// out\n        /* \"#utility.yul\":3752:3891   */\n    tag_226:\n        /* \"#utility.yul\":3798:3803   */\n      0x00\n        /* \"#utility.yul\":3836:3842   */\n      dup2\n        /* \"#utility.yul\":3823:3843   */\n      calldataload\n        /* \"#utility.yul\":3814:3843   */\n      swap1\n      pop\n        /* \"#utility.yul\":3852:3885   */\n      tag_301\n        /* \"#utility.yul\":3879:3884   */\n      dup2\n        /* \"#utility.yul\":3852:3885   */\n      tag_225\n      jump\t// in\n    tag_301:\n        /* \"#utility.yul\":3752:3891   */\n      swap3\n      swap2\n      pop\n      pop\n      jump\t// out\n        /* \"#utility.yul\":3897:4226   */\n    tag_49:\n        /* \"#utility.yul\":3956:3962   */\n      0x00\n        /* \"#utility.yul\":4005:4007   */\n      0x20\n        /* \"#utility.yul\":3993:4002   */\n      dup3\n        /* \"#utility.yul\":3984:3991   */\n      dup5\n        /* \"#utility.yul\":3980:4003   */\n      sub\n        /* \"#utility.yul\":3976:4008   */\n      slt\n        /* \"#utility.yul\":3973:4092   */\n      iszero\n      tag_303\n      jumpi\n        /* \"#utility.yul\":4011:4090   */\n      tag_304\n      tag_210\n      jump\t// in\n    tag_304:\n        /* \"#utility.yul\":3973:4092   */\n    tag_303:\n        /* \"#utility.yul\":4131:4132   */\n      0x00\n        /* \"#utility.yul\":4156:4209   */\n      tag_305\n        /* \"#utility.yul\":4201:4208   */\n      dup5\n        /* \"#utility.yul\":4192:4198   */\n      dup3\n        /* \"#utility.yul\":4181:4190   */\n      dup6\n        /* \"#utility.yul\":4177:4199   */\n      add\n        /* \"#utility.yul\":4156:4209   */\n      tag_226\n      jump\t// in\n    tag_305:\n        /* \"#utility.yul\":4146:4209   */\n      swap2\n      pop\n        /* \"#utility.yul\":4102:4219   */\n      pop\n        /* \"#utility.yul\":3897:4226   */\n      swap3\n      swap2\n      pop\n      pop\n      jump\t// out\n        /* \"#utility.yul\":4232:4318   */\n    tag_227:\n        /* \"#utility.yul\":4267:4274   */\n      0x00\n        /* \"#utility.yul\":4307:4311   */\n      0xff\n        /* \"#utility.yul\":4300:4305   */\n      dup3\n        /* \"#utility.yul\":4296:4312   */\n      and\n        /* \"#utility.yul\":4285:4312   */\n      swap1\n      pop\n        /* \"#utility.yul\":4232:4318   */\n      swap2\n      swap1\n      pop\n      jump\t// out\n        /* \"#utility.yul\":4324:4436   */\n    tag_228:\n        /* \"#utility.yul\":4407:4429   */\n      tag_308\n        /* \"#utility.yul\":4423:4428   */\n      dup2\n        /* \"#utility.yul\":4407:4429   */\n      tag_227\n      jump\t// in\n    tag_308:\n        /* \"#utility.yul\":4402:4405   */\n      dup3\n        /* \"#utility.yul\":4395:4430   */\n      mstore\n        /* \"#utility.yul\":4324:4436   */\n      pop\n      pop\n      jump\t// out\n        /* \"#utility.yul\":4442:4656   */\n    tag_52:\n        /* \"#utility.yul\":4531:4535   */\n      0x00\n        /* \"#utility.yul\":4569:4571   */\n      0x20\n        /* \"#utility.yul\":4558:4567   */\n      dup3\n        /* \"#utility.yul\":4554:4572   */\n      add\n        /* \"#utility.yul\":4546:4572   */\n      swap1\n      pop\n        /* \"#utility.yul\":4582:4649   */\n      tag_310\n        /* \"#utility.yul\":4646:4647   */\n      0x00\n        /* \"#utility.yul\":4635:4644   */\n      dup4\n        /* \"#utility.yul\":4631:4648   */\n      add\n        /* \"#utility.yul\":4622:4628   */\n      dup5\n        /* \"#utility.yul\":4582:4649   */\n      tag_228\n      jump\t// in\n    tag_310:\n        /* \"#utility.yul\":4442:4656   */\n      swap3\n      swap2\n      pop\n      pop\n      jump\t// out\n        /* \"#utility.yul\":4662:5136   */\n    tag_64:\n        /* \"#utility.yul\":4730:4736   */\n      0x00\n        /* \"#utility.yul\":4738:4744   */\n      0x00\n        /* \"#utility.yul\":4787:4789   */\n      0x40\n        /* \"#utility.yul\":4775:4784   */\n      dup4\n        /* \"#utility.yul\":4766:4773   */\n      dup6\n        /* \"#utility.yul\":4762:4785   */\n      sub\n        /* \"#utility.yul\":4758:4790   */\n      slt\n        /* \"#utility.yul\":4755:4874   */\n      iszero\n      tag_312\n      jumpi\n        /* \"#utility.yul\":4793:4872   */\n      tag_313\n      tag_210\n      jump\t// in\n    tag_313:\n        /* \"#utility.yul\":4755:4874   */\n    tag_312:\n        /* \"#utility.yul\":4913:4914   */\n      0x00\n        /* \"#utility.yul\":4938:4991   */\n      tag_314\n        /* \"#utility.yul\":4983:4990   */\n      dup6\n        /* \"#utility.yul\":4974:4980   */\n      dup3\n        /* \"#utility.yul\":4963:4972   */\n      dup7\n        /* \"#utility.yul\":4959:4981   */\n      add\n        /* \"#utility.yul\":4938:4991   */\n      tag_215\n      jump\t// in\n    tag_314:\n        /* \"#utility.yul\":4928:4991   */\n      swap3\n      pop\n        /* \"#utility.yul\":4884:5001   */\n      pop\n        /* \"#utility.yul\":5040:5042   */\n      0x20\n        /* \"#utility.yul\":5066:5119   */\n      tag_315\n        /* \"#utility.yul\":5111:5118   */\n      dup6\n        /* \"#utility.yul\":5102:5108   */\n      dup3\n        /* \"#utility.yul\":5091:5100   */\n      dup7\n        /* \"#utility.yul\":5087:5109   */\n      add\n        /* \"#utility.yul\":5066:5119   */\n      tag_226\n      jump\t// in\n    tag_315:\n        /* \"#utility.yul\":5056:5119   */\n      swap2\n      pop\n        /* \"#utility.yul\":5011:5129   */\n      pop\n        /* \"#utility.yul\":4662:5136   */\n      swap3\n      pop\n      swap3\n      swap1\n      pop\n      jump\t// out\n        /* \"#utility.yul\":5142:5260   */\n    tag_229:\n        /* \"#utility.yul\":5229:5253   */\n      tag_317\n        /* \"#utility.yul\":5247:5252   */\n      dup2\n        /* \"#utility.yul\":5229:5253   */\n      tag_213\n      jump\t// in\n    tag_317:\n        /* \"#utility.yul\":5224:5227   */\n      dup3\n        /* \"#utility.yul\":5217:5254   */\n      mstore\n        /* \"#utility.yul\":5142:5260   */\n      pop\n      pop\n      jump\t// out\n        /* \"#utility.yul\":5266:5488   */\n    tag_71:\n        /* \"#utility.yul\":5359:5363   */\n      0x00\n        /* \"#utility.yul\":5397:5399   */\n      0x20\n        /* \"#utility.yul\":5386:5395   */\n      dup3\n        /* \"#utility.yul\":5382:5400   */\n      add\n        /* \"#utility.yul\":5374:5400   */\n      swap1\n      pop\n        /* \"#utility.yul\":5410:5481   */\n      tag_319\n        /* \"#utility.yul\":5478:5479   */\n      0x00\n        /* \"#utility.yul\":5467:5476   */\n      dup4\n        /* \"#utility.yul\":5463:5480   */\n      add\n        /* \"#utility.yul\":5454:5460   */\n      dup5\n        /* \"#utility.yul\":5410:5481   */\n      tag_229\n      jump\t// in\n    tag_319:\n        /* \"#utility.yul\":5266:5488   */\n      swap3\n      swap2\n      pop\n      pop\n      jump\t// out\n        /* \"#utility.yul\":5494:5674   */\n    tag_132:\n        /* \"#utility.yul\":5542:5619   */\n      0x4e487b7100000000000000000000000000000000000000000000000000000000\n        /* \"#utility.yul\":5539:5540   */\n      0x00\n        /* \"#utility.yul\":5532:5620   */\n      mstore\n        /* \"#utility.yul\":5639:5643   */\n      0x21\n        /* \"#utility.yul\":5636:5637   */\n      0x04\n        /* \"#utility.yul\":5629:5644   */\n      mstore\n        /* \"#utility.yul\":5663:5667   */\n      0x24\n        /* \"#utility.yul\":5660:5661   */\n      0x00\n        /* \"#utility.yul\":5653:5668   */\n      revert\n        /* \"#utility.yul\":5680:5798   */\n    tag_230:\n        /* \"#utility.yul\":5766:5767   */\n      0x04\n        /* \"#utility.yul\":5759:5764   */\n      dup2\n        /* \"#utility.yul\":5756:5768   */\n      lt\n        /* \"#utility.yul\":5746:5792   */\n      tag_322\n      jumpi\n        /* \"#utility.yul\":5772:5790   */\n      tag_323\n      tag_132\n      jump\t// in\n    tag_323:\n        /* \"#utility.yul\":5746:5792   */\n    tag_322:\n        /* \"#utility.yul\":5680:5798   */\n      pop\n      jump\t// out\n        /* \"#utility.yul\":5804:5941   */\n    tag_231:\n        /* \"#utility.yul\":5854:5861   */\n      0x00\n        /* \"#utility.yul\":5883:5888   */\n      dup2\n        /* \"#utility.yul\":5872:5888   */\n      swap1\n      pop\n        /* \"#utility.yul\":5889:5935   */\n      tag_325\n        /* \"#utility.yul\":5929:5934   */\n      dup3\n        /* \"#utility.yul\":5889:5935   */\n      tag_230\n      jump\t// in\n    tag_325:\n        /* \"#utility.yul\":5804:5941   */\n      swap2\n      swap1\n      pop\n      jump\t// out\n        /* \"#utility.yul\":5947:6084   */\n    tag_232:\n        /* \"#utility.yul\":6008:6017   */\n      0x00\n        /* \"#utility.yul\":6041:6078   */\n      tag_327\n        /* \"#utility.yul\":6072:6077   */\n      dup3\n        /* \"#utility.yul\":6041:6078   */\n      tag_231\n      jump\t// in\n    tag_327:\n        /* \"#utility.yul\":6028:6078   */\n      swap1\n      pop\n        /* \"#utility.yul\":5947:6084   */\n      swap2\n      swap1\n      pop\n      jump\t// out\n        /* \"#utility.yul\":6090:6243   */\n    tag_233:\n        /* \"#utility.yul\":6188:6236   */\n      tag_329\n        /* \"#utility.yul\":6230:6235   */\n      dup2\n        /* \"#utility.yul\":6188:6236   */\n      tag_232\n      jump\t// in\n    tag_329:\n        /* \"#utility.yul\":6183:6186   */\n      dup3\n        /* \"#utility.yul\":6176:6237   */\n      mstore\n        /* \"#utility.yul\":6090:6243   */\n      pop\n      pop\n      jump\t// out\n        /* \"#utility.yul\":6249:6339   */\n    tag_234:\n        /* \"#utility.yul\":6283:6290   */\n      0x00\n        /* \"#utility.yul\":6326:6331   */\n      dup2\n        /* \"#utility.yul\":6319:6332   */\n      iszero\n        /* \"#utility.yul\":6312:6333   */\n      iszero\n        /* \"#utility.yul\":6301:6333   */\n      swap1\n      pop\n        /* \"#utility.yul\":6249:6339   */\n      swap2\n      swap1\n      pop\n      jump\t// out\n        /* \"#utility.yul\":6345:6454   */\n    tag_235:\n        /* \"#utility.yul\":6426:6447   */\n      tag_332\n        /* \"#utility.yul\":6441:6446   */\n      dup2\n        /* \"#utility.yul\":6426:6447   */\n      tag_234\n      jump\t// in\n    tag_332:\n        /* \"#utility.yul\":6421:6424   */\n      dup3\n        /* \"#utility.yul\":6414:6448   */\n      mstore\n        /* \"#utility.yul\":6345:6454   */\n      pop\n      pop\n      jump\t// out\n        /* \"#utility.yul\":6460:7447   */\n    tag_77:\n        /* \"#utility.yul\":6744:6748   */\n      0x00\n        /* \"#utility.yul\":6782:6785   */\n      0x0100\n        /* \"#utility.yul\":6771:6780   */\n      dup3\n        /* \"#utility.yul\":6767:6786   */\n      add\n        /* \"#utility.yul\":6759:6786   */\n      swap1\n      pop\n        /* \"#utility.yul\":6796:6867   */\n      tag_334\n        /* \"#utility.yul\":6864:6865   */\n      0x00\n        /* \"#utility.yul\":6853:6862   */\n      dup4\n        /* \"#utility.yul\":6849:6866   */\n      add\n        /* \"#utility.yul\":6840:6846   */\n      dup12\n        /* \"#utility.yul\":6796:6867   */\n      tag_224\n      jump\t// in\n    tag_334:\n        /* \"#utility.yul\":6877:6949   */\n      tag_335\n        /* \"#utility.yul\":6945:6947   */\n      0x20\n        /* \"#utility.yul\":6934:6943   */\n      dup4\n        /* \"#utility.yul\":6930:6948   */\n      add\n        /* \"#utility.yul\":6921:6927   */\n      dup11\n        /* \"#utility.yul\":6877:6949   */\n      tag_229\n      jump\t// in\n    tag_335:\n        /* \"#utility.yul\":6959:7042   */\n      tag_336\n        /* \"#utility.yul\":7038:7040   */\n      0x40\n        /* \"#utility.yul\":7027:7036   */\n      dup4\n        /* \"#utility.yul\":7023:7041   */\n      add\n        /* \"#utility.yul\":7014:7020   */\n      dup10\n        /* \"#utility.yul\":6959:7042   */\n      tag_233\n      jump\t// in\n    tag_336:\n        /* \"#utility.yul\":7052:7124   */\n      tag_337\n        /* \"#utility.yul\":7120:7122   */\n      0x60\n        /* \"#utility.yul\":7109:7118   */\n      dup4\n        /* \"#utility.yul\":7105:7123   */\n      add\n        /* \"#utility.yul\":7096:7102   */\n      dup9\n        /* \"#utility.yul\":7052:7124   */\n      tag_224\n      jump\t// in\n    tag_337:\n        /* \"#utility.yul\":7134:7207   */\n      tag_338\n        /* \"#utility.yul\":7202:7205   */\n      0x80\n        /* \"#utility.yul\":7191:7200   */\n      dup4\n        /* \"#utility.yul\":7187:7206   */\n      add\n        /* \"#utility.yul\":7178:7184   */\n      dup8\n        /* \"#utility.yul\":7134:7207   */\n      tag_224\n      jump\t// in\n    tag_338:\n        /* \"#utility.yul\":7217:7286   */\n      tag_339\n        /* \"#utility.yul\":7281:7284   */\n      0xa0\n        /* \"#utility.yul\":7270:7279   */\n      dup4\n        /* \"#utility.yul\":7266:7285   */\n      add\n        /* \"#utility.yul\":7257:7263   */\n      dup7\n        /* \"#utility.yul\":7217:7286   */\n      tag_228\n      jump\t// in\n    tag_339:\n        /* \"#utility.yul\":7296:7363   */\n      tag_340\n        /* \"#utility.yul\":7358:7361   */\n      0xc0\n        /* \"#utility.yul\":7347:7356   */\n      dup4\n        /* \"#utility.yul\":7343:7362   */\n      add\n        /* \"#utility.yul\":7334:7340   */\n      dup6\n        /* \"#utility.yul\":7296:7363   */\n      tag_235\n      jump\t// in\n    tag_340:\n        /* \"#utility.yul\":7373:7440   */\n      tag_341\n        /* \"#utility.yul\":7435:7438   */\n      0xe0\n        /* \"#utility.yul\":7424:7433   */\n      dup4\n        /* \"#utility.yul\":7420:7439   */\n      add\n        /* \"#utility.yul\":7411:7417   */\n      dup5\n        /* \"#utility.yul\":7373:7440   */\n      tag_235\n      jump\t// in\n    tag_341:\n        /* \"#utility.yul\":6460:7447   */\n      swap10\n      swap9\n      pop\n      pop\n      pop\n      pop\n      pop\n      pop\n      pop\n      pop\n      pop\n      jump\t// out\n        /* \"#utility.yul\":7453:7561   */\n    tag_236:\n        /* \"#utility.yul\":7530:7554   */\n      tag_343\n        /* \"#utility.yul\":7548:7553   */\n      dup2\n        /* \"#utility.yul\":7530:7554   */\n      tag_213\n      jump\t// in\n    tag_343:\n        /* \"#utility.yul\":7525:7528   */\n      dup3\n        /* \"#utility.yul\":7518:7555   */\n      mstore\n        /* \"#utility.yul\":7453:7561   */\n      pop\n      pop\n      jump\t// out\n        /* \"#utility.yul\":7567:7710   */\n    tag_237:\n        /* \"#utility.yul\":7655:7703   */\n      tag_345\n        /* \"#utility.yul\":7697:7702   */\n      dup2\n        /* \"#utility.yul\":7655:7703   */\n      tag_232\n      jump\t// in\n    tag_345:\n        /* \"#utility.yul\":7650:7653   */\n      dup3\n        /* \"#utility.yul\":7643:7704   */\n      mstore\n        /* \"#utility.yul\":7567:7710   */\n      pop\n      pop\n      jump\t// out\n        /* \"#utility.yul\":7716:7818   */\n    tag_238:\n        /* \"#utility.yul\":7789:7811   */\n      tag_347\n        /* \"#utility.yul\":7805:7810   */\n      dup2\n        /* \"#utility.yul\":7789:7811   */\n      tag_227\n      jump\t// in\n    tag_347:\n        /* \"#utility.yul\":7784:7787   */\n      dup3\n        /* \"#utility.yul\":7777:7812   */\n      mstore\n        /* \"#utility.yul\":7716:7818   */\n      pop\n      pop\n      jump\t// out\n        /* \"#utility.yul\":7824:7923   */\n    tag_239:\n        /* \"#utility.yul\":7895:7916   */\n      tag_349\n        /* \"#utility.yul\":7910:7915   */\n      dup2\n        /* \"#utility.yul\":7895:7916   */\n      tag_234\n      jump\t// in\n    tag_349:\n        /* \"#utility.yul\":7890:7893   */\n      dup3\n        /* \"#utility.yul\":7883:7917   */\n      mstore\n        /* \"#utility.yul\":7824:7923   */\n      pop\n      pop\n      jump\t// out\n        /* \"#utility.yul\":7987:9551   */\n    tag_240:\n        /* \"#utility.yul\":8126:8132   */\n      0x0100\n        /* \"#utility.yul\":8121:8124   */\n      dup3\n        /* \"#utility.yul\":8117:8133   */\n      add\n        /* \"#utility.yul\":8213:8217   */\n      0x00\n        /* \"#utility.yul\":8206:8211   */\n      dup3\n        /* \"#utility.yul\":8202:8218   */\n      add\n        /* \"#utility.yul\":8196:8219   */\n      mload\n        /* \"#utility.yul\":8232:8295   */\n      tag_351\n        /* \"#utility.yul\":8289:8293   */\n      0x00\n        /* \"#utility.yul\":8284:8287   */\n      dup6\n        /* \"#utility.yul\":8280:8294   */\n      add\n        /* \"#utility.yul\":8266:8278   */\n      dup3\n        /* \"#utility.yul\":8232:8295   */\n      tag_220\n      jump\t// in\n    tag_351:\n        /* \"#utility.yul\":8143:8305   */\n      pop\n        /* \"#utility.yul\":8388:8392   */\n      0x20\n        /* \"#utility.yul\":8381:8386   */\n      dup3\n        /* \"#utility.yul\":8377:8393   */\n      add\n        /* \"#utility.yul\":8371:8394   */\n      mload\n        /* \"#utility.yul\":8407:8470   */\n      tag_352\n        /* \"#utility.yul\":8464:8468   */\n      0x20\n        /* \"#utility.yul\":8459:8462   */\n      dup6\n        /* \"#utility.yul\":8455:8469   */\n      add\n        /* \"#utility.yul\":8441:8453   */\n      dup3\n        /* \"#utility.yul\":8407:8470   */\n      tag_236\n      jump\t// in\n    tag_352:\n        /* \"#utility.yul\":8315:8480   */\n      pop\n        /* \"#utility.yul\":8563:8567   */\n      0x40\n        /* \"#utility.yul\":8556:8561   */\n      dup3\n        /* \"#utility.yul\":8552:8568   */\n      add\n        /* \"#utility.yul\":8546:8569   */\n      mload\n        /* \"#utility.yul\":8582:8656   */\n      tag_353\n        /* \"#utility.yul\":8650:8654   */\n      0x40\n        /* \"#utility.yul\":8645:8648   */\n      dup6\n        /* \"#utility.yul\":8641:8655   */\n      add\n        /* \"#utility.yul\":8627:8639   */\n      dup3\n        /* \"#utility.yul\":8582:8656   */\n      tag_237\n      jump\t// in\n    tag_353:\n        /* \"#utility.yul\":8490:8666   */\n      pop\n        /* \"#utility.yul\":8755:8759   */\n      0x60\n        /* \"#utility.yul\":8748:8753   */\n      dup3\n        /* \"#utility.yul\":8744:8760   */\n      add\n        /* \"#utility.yul\":8738:8761   */\n      mload\n        /* \"#utility.yul\":8774:8837   */\n      tag_354\n        /* \"#utility.yul\":8831:8835   */\n      0x60\n        /* \"#utility.yul\":8826:8829   */\n      dup6\n        /* \"#utility.yul\":8822:8836   */\n      add\n        /* \"#utility.yul\":8808:8820   */\n      dup3\n        /* \"#utility.yul\":8774:8837   */\n      tag_220\n      jump\t// in\n    tag_354:\n        /* \"#utility.yul\":8676:8847   */\n      pop\n        /* \"#utility.yul\":8936:8940   */\n      0x80\n        /* \"#utility.yul\":8929:8934   */\n      dup3\n        /* \"#utility.yul\":8925:8941   */\n      add\n        /* \"#utility.yul\":8919:8942   */\n      mload\n        /* \"#utility.yul\":8955:9018   */\n      tag_355\n        /* \"#utility.yul\":9012:9016   */\n      0x80\n        /* \"#utility.yul\":9007:9010   */\n      dup6\n        /* \"#utility.yul\":9003:9017   */\n      add\n        /* \"#utility.yul\":8989:9001   */\n      dup3\n        /* \"#utility.yul\":8955:9018   */\n      tag_220\n      jump\t// in\n    tag_355:\n        /* \"#utility.yul\":8857:9028   */\n      pop\n        /* \"#utility.yul\":9116:9120   */\n      0xa0\n        /* \"#utility.yul\":9109:9114   */\n      dup3\n        /* \"#utility.yul\":9105:9121   */\n      add\n        /* \"#utility.yul\":9099:9122   */\n      mload\n        /* \"#utility.yul\":9135:9194   */\n      tag_356\n        /* \"#utility.yul\":9188:9192   */\n      0xa0\n        /* \"#utility.yul\":9183:9186   */\n      dup6\n        /* \"#utility.yul\":9179:9193   */\n      add\n        /* \"#utility.yul\":9165:9177   */\n      dup3\n        /* \"#utility.yul\":9135:9194   */\n      tag_238\n      jump\t// in\n    tag_356:\n        /* \"#utility.yul\":9038:9204   */\n      pop\n        /* \"#utility.yul\":9288:9292   */\n      0xc0\n        /* \"#utility.yul\":9281:9286   */\n      dup3\n        /* \"#utility.yul\":9277:9293   */\n      add\n        /* \"#utility.yul\":9271:9294   */\n      mload\n        /* \"#utility.yul\":9307:9364   */\n      tag_357\n        /* \"#utility.yul\":9358:9362   */\n      0xc0\n        /* \"#utility.yul\":9353:9356   */\n      dup6\n        /* \"#utility.yul\":9349:9363   */\n      add\n        /* \"#utility.yul\":9335:9347   */\n      dup3\n        /* \"#utility.yul\":9307:9364   */\n      tag_239\n      jump\t// in\n    tag_357:\n        /* \"#utility.yul\":9214:9374   */\n      pop\n        /* \"#utility.yul\":9458:9462   */\n      0xe0\n        /* \"#utility.yul\":9451:9456   */\n      dup3\n        /* \"#utility.yul\":9447:9463   */\n      add\n        /* \"#utility.yul\":9441:9464   */\n      mload\n        /* \"#utility.yul\":9477:9534   */\n      tag_358\n        /* \"#utility.yul\":9528:9532   */\n      0xe0\n        /* \"#utility.yul\":9523:9526   */\n      dup6\n        /* \"#utility.yul\":9519:9533   */\n      add\n        /* \"#utility.yul\":9505:9517   */\n      dup3\n        /* \"#utility.yul\":9477:9534   */\n      tag_239\n      jump\t// in\n    tag_358:\n        /* \"#utility.yul\":9384:9544   */\n      pop\n        /* \"#utility.yul\":8095:9551   */\n      pop\n        /* \"#utility.yul\":7987:9551   */\n      pop\n      pop\n      jump\t// out\n        /* \"#utility.yul\":9557:9864   */\n    tag_107:\n        /* \"#utility.yul\":9692:9696   */\n      0x00\n        /* \"#utility.yul\":9730:9733   */\n      0x0100\n        /* \"#utility.yul\":9719:9728   */\n      dup3\n        /* \"#utility.yul\":9715:9734   */\n      add\n        /* \"#utility.yul\":9707:9734   */\n      swap1\n      pop\n        /* \"#utility.yul\":9744:9857   */\n      tag_360\n        /* \"#utility.yul\":9854:9855   */\n      0x00\n        /* \"#utility.yul\":9843:9852   */\n      dup4\n        /* \"#utility.yul\":9839:9856   */\n      add\n        /* \"#utility.yul\":9830:9836   */\n      dup5\n        /* \"#utility.yul\":9744:9857   */\n      tag_240\n      jump\t// in\n    tag_360:\n        /* \"#utility.yul\":9557:9864   */\n      swap3\n      swap2\n      pop\n      pop\n      jump\t// out\n        /* \"#utility.yul\":9870:10039   */\n    tag_241:\n        /* \"#utility.yul\":9954:9965   */\n      0x00\n        /* \"#utility.yul\":9988:9994   */\n      dup3\n        /* \"#utility.yul\":9983:9986   */\n      dup3\n        /* \"#utility.yul\":9976:9995   */\n      mstore\n        /* \"#utility.yul\":10028:10032   */\n      0x20\n        /* \"#utility.yul\":10023:10026   */\n      dup3\n        /* \"#utility.yul\":10019:10033   */\n      add\n        /* \"#utility.yul\":10004:10033   */\n      swap1\n      pop\n        /* \"#utility.yul\":9870:10039   */\n      swap3\n      swap2\n      pop\n      pop\n      jump\t// out\n        /* \"#utility.yul\":10045:10206   */\n    tag_242:\n        /* \"#utility.yul\":10185:10198   */\n      0x42756b616e206f776e6572000000000000000000000000000000000000000000\n        /* \"#utility.yul\":10181:10182   */\n      0x00\n        /* \"#utility.yul\":10173:10179   */\n      dup3\n        /* \"#utility.yul\":10169:10183   */\n      add\n        /* \"#utility.yul\":10162:10199   */\n      mstore\n        /* \"#utility.yul\":10045:10206   */\n      pop\n      jump\t// out\n        /* \"#utility.yul\":10212:10578   */\n    tag_243:\n        /* \"#utility.yul\":10354:10357   */\n      0x00\n        /* \"#utility.yul\":10375:10442   */\n      tag_364\n        /* \"#utility.yul\":10439:10441   */\n      0x0b\n        /* \"#utility.yul\":10434:10437   */\n      dup4\n        /* \"#utility.yul\":10375:10442   */\n      tag_241\n      jump\t// in\n    tag_364:\n        /* \"#utility.yul\":10368:10442   */\n      swap2\n      pop\n        /* \"#utility.yul\":10451:10544   */\n      tag_365\n        /* \"#utility.yul\":10540:10543   */\n      dup3\n        /* \"#utility.yul\":10451:10544   */\n      tag_242\n      jump\t// in\n    tag_365:\n        /* \"#utility.yul\":10569:10571   */\n      0x20\n        /* \"#utility.yul\":10564:10567   */\n      dup3\n        /* \"#utility.yul\":10560:10572   */\n      add\n        /* \"#utility.yul\":10553:10572   */\n      swap1\n      pop\n        /* \"#utility.yul\":10212:10578   */\n      swap2\n      swap1\n      pop\n      jump\t// out\n        /* \"#utility.yul\":10584:11003   */\n    tag_115:\n        /* \"#utility.yul\":10750:10754   */\n      0x00\n        /* \"#utility.yul\":10788:10790   */\n      0x20\n        /* \"#utility.yul\":10777:10786   */\n      dup3\n        /* \"#utility.yul\":10773:10791   */\n      add\n        /* \"#utility.yul\":10765:10791   */\n      swap1\n      pop\n        /* \"#utility.yul\":10837:10846   */\n      dup2\n        /* \"#utility.yul\":10831:10835   */\n      dup2\n        /* \"#utility.yul\":10827:10847   */\n      sub\n        /* \"#utility.yul\":10823:10824   */\n      0x00\n        /* \"#utility.yul\":10812:10821   */\n      dup4\n        /* \"#utility.yul\":10808:10825   */\n      add\n        /* \"#utility.yul\":10801:10848   */\n      mstore\n        /* \"#utility.yul\":10865:10996   */\n      tag_367\n        /* \"#utility.yul\":10991:10995   */\n      dup2\n        /* \"#utility.yul\":10865:10996   */\n      tag_243\n      jump\t// in\n    tag_367:\n        /* \"#utility.yul\":10857:10996   */\n      swap1\n      pop\n        /* \"#utility.yul\":10584:11003   */\n      swap2\n      swap1\n      pop\n      jump\t// out\n        /* \"#utility.yul\":11009:11156   */\n    tag_244:\n        /* \"#utility.yul\":11110:11121   */\n      0x00\n        /* \"#utility.yul\":11147:11150   */\n      dup2\n        /* \"#utility.yul\":11132:11150   */\n      swap1\n      pop\n        /* \"#utility.yul\":11009:11156   */\n      swap3\n      swap2\n      pop\n      pop\n      jump\t// out\n        /* \"#utility.yul\":11162:11276   */\n    tag_245:\n      pop\n      jump\t// out\n        /* \"#utility.yul\":11282:11680   */\n    tag_246:\n        /* \"#utility.yul\":11441:11444   */\n      0x00\n        /* \"#utility.yul\":11462:11545   */\n      tag_371\n        /* \"#utility.yul\":11543:11544   */\n      0x00\n        /* \"#utility.yul\":11538:11541   */\n      dup4\n        /* \"#utility.yul\":11462:11545   */\n      tag_244\n      jump\t// in\n    tag_371:\n        /* \"#utility.yul\":11455:11545   */\n      swap2\n      pop\n        /* \"#utility.yul\":11554:11647   */\n      tag_372\n        /* \"#utility.yul\":11643:11646   */\n      dup3\n        /* \"#utility.yul\":11554:11647   */\n      tag_245\n      jump\t// in\n    tag_372:\n        /* \"#utility.yul\":11672:11673   */\n      0x00\n        /* \"#utility.yul\":11667:11670   */\n      dup3\n        /* \"#utility.yul\":11663:11674   */\n      add\n        /* \"#utility.yul\":11656:11674   */\n      swap1\n      pop\n        /* \"#utility.yul\":11282:11680   */\n      swap2\n      swap1\n      pop\n      jump\t// out\n        /* \"#utility.yul\":11686:12065   */\n    tag_117:\n        /* \"#utility.yul\":11870:11873   */\n      0x00\n        /* \"#utility.yul\":11892:12039   */\n      tag_374\n        /* \"#utility.yul\":12035:12038   */\n      dup3\n        /* \"#utility.yul\":11892:12039   */\n      tag_246\n      jump\t// in\n    tag_374:\n        /* \"#utility.yul\":11885:12039   */\n      swap2\n      pop\n        /* \"#utility.yul\":12056:12059   */\n      dup2\n        /* \"#utility.yul\":12049:12059   */\n      swap1\n      pop\n        /* \"#utility.yul\":11686:12065   */\n      swap2\n      swap1\n      pop\n      jump\t// out\n        /* \"#utility.yul\":12071:12235   */\n    tag_247:\n        /* \"#utility.yul\":12211:12227   */\n      0x5472616e7366657220676167616c000000000000000000000000000000000000\n        /* \"#utility.yul\":12207:12208   */\n      0x00\n        /* \"#utility.yul\":12199:12205   */\n      dup3\n        /* \"#utility.yul\":12195:12209   */\n      add\n        /* \"#utility.yul\":12188:12228   */\n      mstore\n        /* \"#utility.yul\":12071:12235   */\n      pop\n      jump\t// out\n        /* \"#utility.yul\":12241:12607   */\n    tag_248:\n        /* \"#utility.yul\":12383:12386   */\n      0x00\n        /* \"#utility.yul\":12404:12471   */\n      tag_377\n        /* \"#utility.yul\":12468:12470   */\n      0x0e\n        /* \"#utility.yul\":12463:12466   */\n      dup4\n        /* \"#utility.yul\":12404:12471   */\n      tag_241\n      jump\t// in\n    tag_377:\n        /* \"#utility.yul\":12397:12471   */\n      swap2\n      pop\n        /* \"#utility.yul\":12480:12573   */\n      tag_378\n        /* \"#utility.yul\":12569:12572   */\n      dup3\n        /* \"#utility.yul\":12480:12573   */\n      tag_247\n      jump\t// in\n    tag_378:\n        /* \"#utility.yul\":12598:12600   */\n      0x20\n        /* \"#utility.yul\":12593:12596   */\n      dup3\n        /* \"#utility.yul\":12589:12601   */\n      add\n        /* \"#utility.yul\":12582:12601   */\n      swap1\n      pop\n        /* \"#utility.yul\":12241:12607   */\n      swap2\n      swap1\n      pop\n      jump\t// out\n        /* \"#utility.yul\":12613:13032   */\n    tag_123:\n        /* \"#utility.yul\":12779:12783   */\n      0x00\n        /* \"#utility.yul\":12817:12819   */\n      0x20\n        /* \"#utility.yul\":12806:12815   */\n      dup3\n        /* \"#utility.yul\":12802:12820   */\n      add\n        /* \"#utility.yul\":12794:12820   */\n      swap1\n      pop\n        /* \"#utility.yul\":12866:12875   */\n      dup2\n        /* \"#utility.yul\":12860:12864   */\n      dup2\n        /* \"#utility.yul\":12856:12876   */\n      sub\n        /* \"#utility.yul\":12852:12853   */\n      0x00\n        /* \"#utility.yul\":12841:12850   */\n      dup4\n        /* \"#utility.yul\":12837:12854   */\n      add\n        /* \"#utility.yul\":12830:12877   */\n      mstore\n        /* \"#utility.yul\":12894:13025   */\n      tag_380\n        /* \"#utility.yul\":13020:13024   */\n      dup2\n        /* \"#utility.yul\":12894:13025   */\n      tag_248\n      jump\t// in\n    tag_380:\n        /* \"#utility.yul\":12886:13025   */\n      swap1\n      pop\n        /* \"#utility.yul\":12613:13032   */\n      swap2\n      swap1\n      pop\n      jump\t// out\n        /* \"#utility.yul\":13038:13206   */\n    tag_249:\n        /* \"#utility.yul\":13178:13198   */\n      0x53616c646f204b7572616e672121212121210000000000000000000000000000\n        /* \"#utility.yul\":13174:13175   */\n      0x00\n        /* \"#utility.yul\":13166:13172   */\n      dup3\n        /* \"#utility.yul\":13162:13176   */\n      add\n        /* \"#utility.yul\":13155:13199   */\n      mstore\n        /* \"#utility.yul\":13038:13206   */\n      pop\n      jump\t// out\n        /* \"#utility.yul\":13212:13578   */\n    tag_250:\n        /* \"#utility.yul\":13354:13357   */\n      0x00\n        /* \"#utility.yul\":13375:13442   */\n      tag_383\n        /* \"#utility.yul\":13439:13441   */\n      0x12\n        /* \"#utility.yul\":13434:13437   */\n      dup4\n        /* \"#utility.yul\":13375:13442   */\n      tag_241\n      jump\t// in\n    tag_383:\n        /* \"#utility.yul\":13368:13442   */\n      swap2\n      pop\n        /* \"#utility.yul\":13451:13544   */\n      tag_384\n        /* \"#utility.yul\":13540:13543   */\n      dup3\n        /* \"#utility.yul\":13451:13544   */\n      tag_249\n      jump\t// in\n    tag_384:\n        /* \"#utility.yul\":13569:13571   */\n      0x20\n        /* \"#utility.yul\":13564:13567   */\n      dup3\n        /* \"#utility.yul\":13560:13572   */\n      add\n        /* \"#utility.yul\":13553:13572   */\n      swap1\n      pop\n        /* \"#utility.yul\":13212:13578   */\n      swap2\n      swap1\n      pop\n      jump\t// out\n        /* \"#utility.yul\":13584:14003   */\n    tag_127:\n        /* \"#utility.yul\":13750:13754   */\n      0x00\n        /* \"#utility.yul\":13788:13790   */\n      0x20\n        /* \"#utility.yul\":13777:13786   */\n      dup3\n        /* \"#utility.yul\":13773:13791   */\n      add\n        /* \"#utility.yul\":13765:13791   */\n      swap1\n      pop\n        /* \"#utility.yul\":13837:13846   */\n      dup2\n        /* \"#utility.yul\":13831:13835   */\n      dup2\n        /* \"#utility.yul\":13827:13847   */\n      sub\n        /* \"#utility.yul\":13823:13824   */\n      0x00\n        /* \"#utility.yul\":13812:13821   */\n      dup4\n        /* \"#utility.yul\":13808:13825   */\n      add\n        /* \"#utility.yul\":13801:13848   */\n      mstore\n        /* \"#utility.yul\":13865:13996   */\n      tag_386\n        /* \"#utility.yul\":13991:13995   */\n      dup2\n        /* \"#utility.yul\":13865:13996   */\n      tag_250\n      jump\t// in\n    tag_386:\n        /* \"#utility.yul\":13857:13996   */\n      swap1\n      pop\n        /* \"#utility.yul\":13584:14003   */\n      swap2\n      swap1\n      pop\n      jump\t// out\n        /* \"#utility.yul\":14009:14189   */\n    tag_251:\n        /* \"#utility.yul\":14057:14134   */\n      0x4e487b7100000000000000000000000000000000000000000000000000000000\n        /* \"#utility.yul\":14054:14055   */\n      0x00\n        /* \"#utility.yul\":14047:14135   */\n      mstore\n        /* \"#utility.yul\":14154:14158   */\n      0x11\n        /* \"#utility.yul\":14151:14152   */\n      0x04\n        /* \"#utility.yul\":14144:14159   */\n      mstore\n        /* \"#utility.yul\":14178:14182   */\n      0x24\n        /* \"#utility.yul\":14175:14176   */\n      0x00\n        /* \"#utility.yul\":14168:14183   */\n      revert\n        /* \"#utility.yul\":14195:14428   */\n    tag_129:\n        /* \"#utility.yul\":14234:14237   */\n      0x00\n        /* \"#utility.yul\":14257:14281   */\n      tag_389\n        /* \"#utility.yul\":14275:14280   */\n      dup3\n        /* \"#utility.yul\":14257:14281   */\n      tag_219\n      jump\t// in\n    tag_389:\n        /* \"#utility.yul\":14248:14281   */\n      swap2\n      pop\n        /* \"#utility.yul\":14303:14369   */\n      0xffffffffffffffffffffffffffffffffffffffffffffffffffffffffffffffff\n        /* \"#utility.yul\":14296:14301   */\n      dup3\n        /* \"#utility.yul\":14293:14370   */\n      sub\n        /* \"#utility.yul\":14290:14393   */\n      tag_390\n      jumpi\n        /* \"#utility.yul\":14373:14391   */\n      tag_391\n      tag_251\n      jump\t// in\n    tag_391:\n        /* \"#utility.yul\":14290:14393   */\n    tag_390:\n        /* \"#utility.yul\":14420:14421   */\n      0x01\n        /* \"#utility.yul\":14413:14418   */\n      dup3\n        /* \"#utility.yul\":14409:14422   */\n      add\n        /* \"#utility.yul\":14402:14422   */\n      swap1\n      pop\n        /* \"#utility.yul\":14195:14428   */\n      swap2\n      swap1\n      pop\n      jump\t// out\n        /* \"#utility.yul\":14434:14628   */\n    tag_140:\n        /* \"#utility.yul\":14474:14478   */\n      0x00\n        /* \"#utility.yul\":14494:14514   */\n      tag_393\n        /* \"#utility.yul\":14512:14513   */\n      dup3\n        /* \"#utility.yul\":14494:14514   */\n      tag_219\n      jump\t// in\n    tag_393:\n        /* \"#utility.yul\":14489:14514   */\n      swap2\n      pop\n        /* \"#utility.yul\":14528:14548   */\n      tag_394\n        /* \"#utility.yul\":14546:14547   */\n      dup4\n        /* \"#utility.yul\":14528:14548   */\n      tag_219\n      jump\t// in\n    tag_394:\n        /* \"#utility.yul\":14523:14548   */\n      swap3\n      pop\n        /* \"#utility.yul\":14572:14573   */\n      dup3\n        /* \"#utility.yul\":14569:14570   */\n      dup3\n        /* \"#utility.yul\":14565:14574   */\n      sub\n        /* \"#utility.yul\":14557:14574   */\n      swap1\n      pop\n        /* \"#utility.yul\":14596:14597   */\n      dup2\n        /* \"#utility.yul\":14590:14594   */\n      dup2\n        /* \"#utility.yul\":14587:14598   */\n      gt\n        /* \"#utility.yul\":14584:14621   */\n      iszero\n      tag_395\n      jumpi\n        /* \"#utility.yul\":14601:14619   */\n      tag_396\n      tag_251\n      jump\t// in\n    tag_396:\n        /* \"#utility.yul\":14584:14621   */\n    tag_395:\n        /* \"#utility.yul\":14434:14628   */\n      swap3\n      swap2\n      pop\n      pop\n      jump\t// out\n        /* \"#utility.yul\":14634:14814   */\n    tag_252:\n        /* \"#utility.yul\":14682:14759   */\n      0x4e487b7100000000000000000000000000000000000000000000000000000000\n        /* \"#utility.yul\":14679:14680   */\n      0x00\n        /* \"#utility.yul\":14672:14760   */\n      mstore\n        /* \"#utility.yul\":14779:14783   */\n      0x12\n        /* \"#utility.yul\":14776:14777   */\n      0x04\n        /* \"#utility.yul\":14769:14784   */\n      mstore\n        /* \"#utility.yul\":14803:14807   */\n      0x24\n        /* \"#utility.yul\":14800:14801   */\n      0x00\n        /* \"#utility.yul\":14793:14808   */\n      revert\n        /* \"#utility.yul\":14820:15005   */\n    tag_142:\n        /* \"#utility.yul\":14860:14861   */\n      0x00\n        /* \"#utility.yul\":14877:14897   */\n      tag_399\n        /* \"#utility.yul\":14895:14896   */\n      dup3\n        /* \"#utility.yul\":14877:14897   */\n      tag_219\n      jump\t// in\n    tag_399:\n        /* \"#utility.yul\":14872:14897   */\n      swap2\n      pop\n        /* \"#utility.yul\":14911:14931   */\n      tag_400\n        /* \"#utility.yul\":14929:14930   */\n      dup4\n        /* \"#utility.yul\":14911:14931   */\n      tag_219\n      jump\t// in\n    tag_400:\n        /* \"#utility.yul\":14906:14931   */\n      swap3\n      pop\n        /* \"#utility.yul\":14950:14951   */\n      dup3\n        /* \"#utility.yul\":14940:14975   */\n      tag_401\n      jumpi\n        /* \"#utility.yul\":14955:14973   */\n      tag_402\n      tag_252\n      jump\t// in\n    tag_402:\n        /* \"#utility.yul\":14940:14975   */\n    tag_401:\n        /* \"#utility.yul\":14997:14998   */\n      dup3\n        /* \"#utility.yul\":14994:14995   */\n      dup3\n        /* \"#utility.yul\":14990:14999   */\n      div\n        /* \"#utility.yul\":14985:14999   */\n      swap1\n      pop\n        /* \"#utility.yul\":14820:15005   */\n      swap3\n      swap2\n      pop\n      pop\n      jump\t// out\n        /* \"#utility.yul\":15011:15421   */\n    tag_144:\n        /* \"#utility.yul\":15051:15058   */\n      0x00\n        /* \"#utility.yul\":15074:15094   */\n      tag_404\n        /* \"#utility.yul\":15092:15093   */\n      dup3\n        /* \"#utility.yul\":15074:15094   */\n      tag_219\n      jump\t// in\n    tag_404:\n        /* \"#utility.yul\":15069:15094   */\n      swap2\n      pop\n        /* \"#utility.yul\":15108:15128   */\n      tag_405\n        /* \"#utility.yul\":15126:15127   */\n      dup4\n        /* \"#utility.yul\":15108:15128   */\n      tag_219\n      jump\t// in\n    tag_405:\n        /* \"#utility.yul\":15103:15128   */\n      swap3\n      pop\n        /* \"#utility.yul\":15163:15164   */\n      dup3\n        /* \"#utility.yul\":15160:15161   */\n      dup3\n        /* \"#utility.yul\":15156:15165   */\n      mul\n        /* \"#utility.yul\":15185:15215   */\n      tag_406\n        /* \"#utility.yul\":15203:15214   */\n      dup2\n        /* \"#utility.yul\":15185:15215   */\n      tag_219\n      jump\t// in\n    tag_406:\n        /* \"#utility.yul\":15174:15215   */\n      swap2\n      pop\n        /* \"#utility.yul\":15364:15365   */\n      dup3\n        /* \"#utility.yul\":15355:15362   */\n      dup3\n        /* \"#utility.yul\":15351:15366   */\n      div\n        /* \"#utility.yul\":15348:15349   */\n      dup5\n        /* \"#utility.yul\":15345:15367   */\n      eq\n        /* \"#utility.yul\":15325:15326   */\n      dup4\n        /* \"#utility.yul\":15318:15327   */\n      iszero\n        /* \"#utility.yul\":15298:15381   */\n      or\n        /* \"#utility.yul\":15275:15414   */\n      tag_407\n      jumpi\n        /* \"#utility.yul\":15394:15412   */\n      tag_408\n      tag_251\n      jump\t// in\n    tag_408:\n        /* \"#utility.yul\":15275:15414   */\n    tag_407:\n        /* \"#utility.yul\":15059:15421   */\n      pop\n        /* \"#utility.yul\":15011:15421   */\n      swap3\n      swap2\n      pop\n      pop\n      jump\t// out\n        /* \"#utility.yul\":15427:15671   */\n    tag_177:\n        /* \"#utility.yul\":15531:15535   */\n      0x00\n        /* \"#utility.yul\":15569:15571   */\n      0x20\n        /* \"#utility.yul\":15558:15567   */\n      dup3\n        /* \"#utility.yul\":15554:15572   */\n      add\n        /* \"#utility.yul\":15546:15572   */\n      swap1\n      pop\n        /* \"#utility.yul\":15582:15664   */\n      tag_410\n        /* \"#utility.yul\":15661:15662   */\n      0x00\n        /* \"#utility.yul\":15650:15659   */\n      dup4\n        /* \"#utility.yul\":15646:15663   */\n      add\n        /* \"#utility.yul\":15637:15643   */\n      dup5\n        /* \"#utility.yul\":15582:15664   */\n      tag_233\n      jump\t// in\n    tag_410:\n        /* \"#utility.yul\":15427:15671   */\n      swap3\n      swap2\n      pop\n      pop\n      jump\t// out\n        /* \"#utility.yul\":15677:15839   */\n    tag_253:\n        /* \"#utility.yul\":15817:15831   */\n      0x74616e616d616e20676164610000000000000000000000000000000000000000\n        /* \"#utility.yul\":15813:15814   */\n      0x00\n        /* \"#utility.yul\":15805:15811   */\n      dup3\n        /* \"#utility.yul\":15801:15815   */\n      add\n        /* \"#utility.yul\":15794:15832   */\n      mstore\n        /* \"#utility.yul\":15677:15839   */\n      pop\n      jump\t// out\n        /* \"#utility.yul\":15845:16211   */\n    tag_254:\n        /* \"#utility.yul\":15987:15990   */\n      0x00\n        /* \"#utility.yul\":16008:16075   */\n      tag_413\n        /* \"#utility.yul\":16072:16074   */\n      0x0c\n        /* \"#utility.yul\":16067:16070   */\n      dup4\n        /* \"#utility.yul\":16008:16075   */\n      tag_241\n      jump\t// in\n    tag_413:\n        /* \"#utility.yul\":16001:16075   */\n      swap2\n      pop\n        /* \"#utility.yul\":16084:16177   */\n      tag_414\n        /* \"#utility.yul\":16173:16176   */\n      dup3\n        /* \"#utility.yul\":16084:16177   */\n      tag_253\n      jump\t// in\n    tag_414:\n        /* \"#utility.yul\":16202:16204   */\n      0x20\n        /* \"#utility.yul\":16197:16200   */\n      dup3\n        /* \"#utility.yul\":16193:16205   */\n      add\n        /* \"#utility.yul\":16186:16205   */\n      swap1\n      pop\n        /* \"#utility.yul\":15845:16211   */\n      swap2\n      swap1\n      pop\n      jump\t// out\n        /* \"#utility.yul\":16217:16636   */\n    tag_181:\n        /* \"#utility.yul\":16383:16387   */\n      0x00\n        /* \"#utility.yul\":16421:16423   */\n      0x20\n        /* \"#utility.yul\":16410:16419   */\n      dup3\n        /* \"#utility.yul\":16406:16424   */\n      add\n        /* \"#utility.yul\":16398:16424   */\n      swap1\n      pop\n        /* \"#utility.yul\":16470:16479   */\n      dup2\n        /* \"#utility.yul\":16464:16468   */\n      dup2\n        /* \"#utility.yul\":16460:16480   */\n      sub\n        /* \"#utility.yul\":16456:16457   */\n      0x00\n        /* \"#utility.yul\":16445:16454   */\n      dup4\n        /* \"#utility.yul\":16441:16458   */\n      add\n        /* \"#utility.yul\":16434:16481   */\n      mstore\n        /* \"#utility.yul\":16498:16629   */\n      tag_416\n        /* \"#utility.yul\":16624:16628   */\n      dup2\n        /* \"#utility.yul\":16498:16629   */\n      tag_254\n      jump\t// in\n    tag_416:\n        /* \"#utility.yul\":16490:16629   */\n      swap1\n      pop\n        /* \"#utility.yul\":16217:16636   */\n      swap2\n      swap1\n      pop\n      jump\t// out\n        /* \"#utility.yul\":16642:16803   */\n    tag_255:\n        /* \"#utility.yul\":16782:16795   */\n      0x42656c756d206d656b6172000000000000000000000000000000000000000000\n        /* \"#utility.yul\":16778:16779   */\n      0x00\n        /* \"#utility.yul\":16770:16776   */\n      dup3\n        /* \"#utility.yul\":16766:16780   */\n      add\n        /* \"#utility.yul\":16759:16796   */\n      mstore\n        /* \"#utility.yul\":16642:16803   */\n      pop\n      jump\t// out\n        /* \"#utility.yul\":16809:17175   */\n    tag_256:\n        /* \"#utility.yul\":16951:16954   */\n      0x00\n        /* \"#utility.yul\":16972:17039   */\n      tag_419\n        /* \"#utility.yul\":17036:17038   */\n      0x0b\n        /* \"#utility.yul\":17031:17034   */\n      dup4\n        /* \"#utility.yul\":16972:17039   */\n      tag_241\n      jump\t// in\n    tag_419:\n        /* \"#utility.yul\":16965:17039   */\n      swap2\n      pop\n        /* \"#utility.yul\":17048:17141   */\n      tag_420\n        /* \"#utility.yul\":17137:17140   */\n      dup3\n        /* \"#utility.yul\":17048:17141   */\n      tag_255\n      jump\t// in\n    tag_420:\n        /* \"#utility.yul\":17166:17168   */\n      0x20\n        /* \"#utility.yul\":17161:17164   */\n      dup3\n        /* \"#utility.yul\":17157:17169   */\n      add\n        /* \"#utility.yul\":17150:17169   */\n      swap1\n      pop\n        /* \"#utility.yul\":16809:17175   */\n      swap2\n      swap1\n      pop\n      jump\t// out\n        /* \"#utility.yul\":17181:17600   */\n    tag_188:\n        /* \"#utility.yul\":17347:17351   */\n      0x00\n        /* \"#utility.yul\":17385:17387   */\n      0x20\n        /* \"#utility.yul\":17374:17383   */\n      dup3\n        /* \"#utility.yul\":17370:17388   */\n      add\n        /* \"#utility.yul\":17362:17388   */\n      swap1\n      pop\n        /* \"#utility.yul\":17434:17443   */\n      dup2\n        /* \"#utility.yul\":17428:17432   */\n      dup2\n        /* \"#utility.yul\":17424:17444   */\n      sub\n        /* \"#utility.yul\":17420:17421   */\n      0x00\n        /* \"#utility.yul\":17409:17418   */\n      dup4\n        /* \"#utility.yul\":17405:17422   */\n      add\n        /* \"#utility.yul\":17398:17445   */\n      mstore\n        /* \"#utility.yul\":17462:17593   */\n      tag_422\n        /* \"#utility.yul\":17588:17592   */\n      dup2\n        /* \"#utility.yul\":17462:17593   */\n      tag_256\n      jump\t// in\n    tag_422:\n        /* \"#utility.yul\":17454:17593   */\n      swap1\n      pop\n        /* \"#utility.yul\":17181:17600   */\n      swap2\n      swap1\n      pop\n      jump\t// out\n\n    auxdata: 0xa26469706673582212207b868e0ff34093f935b768fe5b1cf4b9a3cf579fa32a4572b690befdf8370c6364736f6c634300081e0033\n}\n",
				"bytecode": {
					"linkReferences": {},
					"object": "6080604052348015600e575f5ffd5b503360035f6101000a81548173ffffffffffffffffffffffffffffffffffffffff021916908373ffffffffffffffffffffffffffffffffffffffff160217905550611a4b8061005c5f395ff3fe60806040526004361061010c575f3560e01c80638da5cb5b11610094578063bacb5ebd11610063578063bacb5ebd14610346578063cfc9a5f814610370578063ddd425961461039a578063e38f8448146103c2578063ed0b1f5f146103ea57610113565b80638da5cb5b146102875780638dd2361c146102b15780639886bcfa146102f45780639c4717491461031c57610113565b806374119a38116100db57806374119a381461019d578063754e150d146101bb5780637ed4c5be146101f7578063891c0785146102215780638aee578b1461024b57610113565b80631b2da5121461011757806330cec0eb146101215780633ccfd60b1461015d57806351f9efde1461017357610113565b3661011357005b5f5ffd5b61011f610426565b005b34801561012c575f5ffd5b506101476004803603810190610142919061123d565b610428565b6040516101549190611328565b60405180910390f35b348015610168575f5ffd5b506101716104bb565b005b34801561017e575f5ffd5b50610187610616565b6040516101949190611357565b60405180910390f35b6101a561061b565b6040516101b29190611357565b60405180910390f35b3480156101c6575f5ffd5b506101e160048036038101906101dc919061139a565b6108a7565b6040516101ee91906113e0565b60405180910390f35b348015610202575f5ffd5b5061020b61097c565b6040516102189190611357565b60405180910390f35b34801561022c575f5ffd5b50610235610981565b6040516102429190611357565b60405180910390f35b348015610256575f5ffd5b50610271600480360381019061026c91906113f9565b61098c565b60405161027e9190611357565b60405180910390f35b348015610292575f5ffd5b5061029b6109b7565b6040516102a89190611446565b60405180910390f35b3480156102bc575f5ffd5b506102d760048036038101906102d2919061139a565b6109dc565b6040516102eb9897969594939291906114ec565b60405180910390f35b3480156102ff575f5ffd5b5061031a6004803603810190610315919061139a565b610a71565b005b348015610327575f5ffd5b50610330610b87565b60405161033d9190611357565b60405180910390f35b348015610351575f5ffd5b5061035a610b8d565b60405161036791906113e0565b60405180910390f35b34801561037b575f5ffd5b50610384610b92565b6040516103919190611357565b60405180910390f35b3480156103a5575f5ffd5b506103c060048036038101906103bb919061139a565b610b9d565b005b3480156103cd575f5ffd5b506103e860048036038101906103e3919061139a565b610d5f565b005b3480156103f5575f5ffd5b50610410600480360381019061040b919061139a565b610f79565b60405161041d9190611644565b60405180910390f35b565b606060015f8373ffffffffffffffffffffffffffffffffffffffff1673ffffffffffffffffffffffffffffffffffffffff1681526020019081526020015f208054806020026020016040519081016040528092919081815260200182805480156104af57602002820191905f5260205f20905b81548152602001906001019080831161049b575b50505050509050919050565b60035f9054906101000a900473ffffffffffffffffffffffffffffffffffffffff1673ffffffffffffffffffffffffffffffffffffffff163373ffffffffffffffffffffffffffffffffffffffff161461054a576040517f08c379a0000000000000000000000000000000000000000000000000000000008152600401610541906116b8565b60405180910390fd5b5f60035f9054906101000a900473ffffffffffffffffffffffffffffffffffffffff1673ffffffffffffffffffffffffffffffffffffffff164760405161059090611703565b5f6040518083038185875af1925050503d805f81146105ca576040519150601f19603f3d011682016040523d82523d5f602084013e6105cf565b606091505b5050905080610613576040517f08c379a000000000000000000000000000000000000000000000000000000000815260040161060a90611761565b60405180910390fd5b50565b603c81565b5f66038d7ea4c68000341015610666576040517f08c379a000000000000000000000000000000000000000000000000000000000815260040161065d906117c9565b60405180910390fd5b60025f81548092919061067890611814565b91905055505f60405180610100016040528060025481526020013373ffffffffffffffffffffffffffffffffffffffff1681526020015f60038111156106c1576106c061145f565b5b8152602001428152602001428152602001606460ff1681526020016001151581526020015f15158152509050805f5f60025481526020019081526020015f205f820151815f01556020820151816001015f6101000a81548173ffffffffffffffffffffffffffffffffffffffff021916908373ffffffffffffffffffffffffffffffffffffffff16021790555060408201518160010160146101000a81548160ff021916908360038111156107795761077861145f565b5b0217905550606082015181600201556080820151816003015560a0820151816004015f6101000a81548160ff021916908360ff16021790555060c08201518160040160016101000a81548160ff02191690831515021790555060e08201518160040160026101000a81548160ff02191690831515021790555090505060015f3373ffffffffffffffffffffffffffffffffffffffff1673ffffffffffffffffffffffffffffffffffffffff1681526020019081526020015f20600254908060018154018082558091505060019003905f5260205f20015f90919091909150556002543373ffffffffffffffffffffffffffffffffffffffff167f4f5b22082ac57121703b0b6c1203ef527cfbfa5069616fee6deb979d124adbf060405160405180910390a360025491505090565b5f5f5f5f8481526020019081526020015f2090508060040160019054906101000a900460ff1615806108e757508060040160029054906101000a900460ff165b156108f5575f915050610977565b5f816003015442610906919061185b565b90505f601e8261091691906118bb565b90505f600260ff168261092991906118eb565b9050836004015f9054906101000a900460ff1660ff168110610951575f945050505050610977565b80846004015f9054906101000a900460ff1660ff16610970919061185b565b9450505050505b919050565b601e81565b660110d9316ec00081565b6001602052815f5260405f2081815481106109a5575f80fd5b905f5260205f20015f91509150505481565b60035f9054906101000a900473ffffffffffffffffffffffffffffffffffffffff1681565b5f602052805f5260405f205f91509050805f015490806001015f9054906101000a900473ffffffffffffffffffffffffffffffffffffffff16908060010160149054906101000a900460ff1690806002015490806003015490806004015f9054906101000a900460ff16908060040160019054906101000a900460ff16908060040160029054906101000a900460ff16905088565b5f5f5f8381526020019081526020015f2090508060040160019054906101000a900460ff16610a9e575f5ffd5b3373ffffffffffffffffffffffffffffffffffffffff16816001015f9054906101000a900473ffffffffffffffffffffffffffffffffffffffff1673ffffffffffffffffffffffffffffffffffffffff1614610af8575f5ffd5b8060040160029054906101000a900460ff1615610b13575f5ffd5b6064816004015f6101000a81548160ff021916908360ff160217905550428160030181905550806004015f9054906101000a900460ff1660ff16827fd4b742b9ba48fffa1f14267075a7793851770764117c423fd0a6550dfc8cb57460405160405180910390a3610b8382610b9d565b5050565b60025481565b600281565b66038d7ea4c6800081565b5f5f5f8381526020019081526020015f2090508060040160019054906101000a900460ff16610bca575f5ffd5b610bd3826110c2565b8060040160029054906101000a900460ff1615610bf05750610d5c565b5f816002015442610c01919061185b565b90505f8260010160149054906101000a900460ff169050603c8210610c4e5760018360010160146101000a81548160ff02191690836003811115610c4857610c4761145f565b5b02179055505b6002603c610c5c91906118eb565b8210610c905760028360010160146101000a81548160ff02191690836003811115610c8a57610c8961145f565b5b02179055505b6003603c610c9e91906118eb565b8210610cd25760038360010160146101000a81548160ff02191690836003811115610ccc57610ccb61145f565b5b02179055505b806003811115610ce557610ce461145f565b5b8360010160149054906101000a900460ff166003811115610d0957610d0861145f565b5b14610d5857837f338b8976706f9da67298dddfa1ea4ff7d99cce68b9ca39c4f348994f8e2124a88460010160149054906101000a900460ff16604051610d4f919061192c565b60405180910390a25b5050505b50565b5f5f5f8381526020019081526020015f2090508060040160019054906101000a900460ff16610dc3576040517f08c379a0000000000000000000000000000000000000000000000000000000008152600401610dba9061198f565b60405180910390fd5b600380811115610dd657610dd561145f565b5b8160010160149054906101000a900460ff166003811115610dfa57610df961145f565b5b14610e3a576040517f08c379a0000000000000000000000000000000000000000000000000000000008152600401610e31906119f7565b60405180910390fd5b5f8160040160016101000a81548160ff021916908315150217905550660110d9316ec000816001015f9054906101000a900473ffffffffffffffffffffffffffffffffffffffff1673ffffffffffffffffffffffffffffffffffffffff16837f79f2138ea100070ff95b59c265da7aa3c7a0f61595fe1bb2f5fda2762f39884760405160405180910390a45f3373ffffffffffffffffffffffffffffffffffffffff16660110d9316ec000604051610ef190611703565b5f6040518083038185875af1925050503d805f8114610f2b576040519150601f19603f3d011682016040523d82523d5f602084013e610f30565b606091505b5050905080610f74576040517f08c379a0000000000000000000000000000000000000000000000000000000008152600401610f6b90611761565b60405180910390fd5b505050565b610f81611173565b5f5f5f8481526020019081526020015f20604051806101000160405290815f8201548152602001600182015f9054906101000a900473ffffffffffffffffffffffffffffffffffffffff1673ffffffffffffffffffffffffffffffffffffffff1673ffffffffffffffffffffffffffffffffffffffff1681526020016001820160149054906101000a900460ff1660038111156110215761102061145f565b5b60038111156110335761103261145f565b5b81526020016002820154815260200160038201548152602001600482015f9054906101000a900460ff1660ff1660ff1681526020016004820160019054906101000a900460ff161515151581526020016004820160029054906101000a900460ff16151515158152505090506110a8836108a7565b8160a0019060ff16908160ff168152505080915050919050565b5f5f5f8381526020019081526020015f2090505f6110df836108a7565b905080826004015f6101000a81548160ff021916908360ff1602179055505f8160ff1614801561111e57508160040160029054906101000a900460ff16155b1561116e5760018260040160026101000a81548160ff021916908315150217905550827fcc296a21951f3e57f21afb08547d835a0a9f0f06cc2867009cbe0cae44d36be960405160405180910390a25b505050565b6040518061010001604052805f81526020015f73ffffffffffffffffffffffffffffffffffffffff1681526020015f60038111156111b4576111b361145f565b5b81526020015f81526020015f81526020015f60ff1681526020015f151581526020015f151581525090565b5f5ffd5b5f73ffffffffffffffffffffffffffffffffffffffff82169050919050565b5f61120c826111e3565b9050919050565b61121c81611202565b8114611226575f5ffd5b50565b5f8135905061123781611213565b92915050565b5f60208284031215611252576112516111df565b5b5f61125f84828501611229565b91505092915050565b5f81519050919050565b5f82825260208201905092915050565b5f819050602082019050919050565b5f819050919050565b6112a381611291565b82525050565b5f6112b4838361129a565b60208301905092915050565b5f602082019050919050565b5f6112d682611268565b6112e08185611272565b93506112eb83611282565b805f5b8381101561131b57815161130288826112a9565b975061130d836112c0565b9250506001810190506112ee565b5085935050505092915050565b5f6020820190508181035f83015261134081846112cc565b905092915050565b61135181611291565b82525050565b5f60208201905061136a5f830184611348565b92915050565b61137981611291565b8114611383575f5ffd5b50565b5f8135905061139481611370565b92915050565b5f602082840312156113af576113ae6111df565b5b5f6113bc84828501611386565b91505092915050565b5f60ff82169050919050565b6113da816113c5565b82525050565b5f6020820190506113f35f8301846113d1565b92915050565b5f5f6040838503121561140f5761140e6111df565b5b5f61141c85828601611229565b925050602061142d85828601611386565b9150509250929050565b61144081611202565b82525050565b5f6020820190506114595f830184611437565b92915050565b7f4e487b71000000000000000000000000000000000000000000000000000000005f52602160045260245ffd5b6004811061149d5761149c61145f565b5b50565b5f8190506114ad8261148c565b919050565b5f6114bc826114a0565b9050919050565b6114cc816114b2565b82525050565b5f8115159050919050565b6114e6816114d2565b82525050565b5f610100820190506115005f83018b611348565b61150d602083018a611437565b61151a60408301896114c3565b6115276060830188611348565b6115346080830187611348565b61154160a08301866113d1565b61154e60c08301856114dd565b61155b60e08301846114dd565b9998505050505050505050565b61157181611202565b82525050565b611580816114b2565b82525050565b61158f816113c5565b82525050565b61159e816114d2565b82525050565b61010082015f8201516115b95f85018261129a565b5060208201516115cc6020850182611568565b5060408201516115df6040850182611577565b5060608201516115f2606085018261129a565b506080820151611605608085018261129a565b5060a082015161161860a0850182611586565b5060c082015161162b60c0850182611595565b5060e082015161163e60e0850182611595565b50505050565b5f610100820190506116585f8301846115a4565b92915050565b5f82825260208201905092915050565b7f42756b616e206f776e65720000000000000000000000000000000000000000005f82015250565b5f6116a2600b8361165e565b91506116ad8261166e565b602082019050919050565b5f6020820190508181035f8301526116cf81611696565b9050919050565b5f81905092915050565b50565b5f6116ee5f836116d6565b91506116f9826116e0565b5f82019050919050565b5f61170d826116e3565b9150819050919050565b7f5472616e7366657220676167616c0000000000000000000000000000000000005f82015250565b5f61174b600e8361165e565b915061175682611717565b602082019050919050565b5f6020820190508181035f8301526117788161173f565b9050919050565b7f53616c646f204b7572616e6721212121212100000000000000000000000000005f82015250565b5f6117b360128361165e565b91506117be8261177f565b602082019050919050565b5f6020820190508181035f8301526117e0816117a7565b9050919050565b7f4e487b71000000000000000000000000000000000000000000000000000000005f52601160045260245ffd5b5f61181e82611291565b91507fffffffffffffffffffffffffffffffffffffffffffffffffffffffffffffffff82036118505761184f6117e7565b5b600182019050919050565b5f61186582611291565b915061187083611291565b9250828203905081811115611888576118876117e7565b5b92915050565b7f4e487b71000000000000000000000000000000000000000000000000000000005f52601260045260245ffd5b5f6118c582611291565b91506118d083611291565b9250826118e0576118df61188e565b5b828204905092915050565b5f6118f582611291565b915061190083611291565b925082820261190e81611291565b91508282048414831517611925576119246117e7565b5b5092915050565b5f60208201905061193f5f8301846114c3565b92915050565b7f74616e616d616e206761646100000000000000000000000000000000000000005f82015250565b5f611979600c8361165e565b915061198482611945565b602082019050919050565b5f6020820190508181035f8301526119a68161196d565b9050919050565b7f42656c756d206d656b61720000000000000000000000000000000000000000005f82015250565b5f6119e1600b8361165e565b91506119ec826119ad565b602082019050919050565b5f6020820190508181035f830152611a0e816119d5565b905091905056fea26469706673582212207b868e0ff34093f935b768fe5b1cf4b9a3cf579fa32a4572b690befdf8370c6364736f6c634300081e0033",
					"opcodes": "PUSH1 0x80 PUSH1 0x40 MSTORE CALLVALUE DUP1 ISZERO PUSH1 0xE JUMPI PUSH0 PUSH0 REVERT JUMPDEST POP CALLER PUSH1 0x3 PUSH0 PUSH2 0x100 EXP DUP2 SLOAD DUP2 PUSH20 0xFFFFFFFFFFFFFFFFFFFFFFFFFFFFFFFFFFFFFFFF MUL NOT AND SWAP1 DUP4 PUSH20 0xFFFFFFFFFFFFFFFFFFFFFFFFFFFFFFFFFFFFFFFF AND MUL OR SWAP1 SSTORE POP PUSH2 0x1A4B DUP1 PUSH2 0x5C PUSH0 CODECOPY PUSH0 RETURN INVALID PUSH1 0x80 PUSH1 0x40 MSTORE PUSH1 0x4 CALLDATASIZE LT PUSH2 0x10C JUMPI PUSH0 CALLDATALOAD PUSH1 0xE0 SHR DUP1 PUSH4 0x8DA5CB5B GT PUSH2 0x94 JUMPI DUP1 PUSH4 0xBACB5EBD GT PUSH2 0x63 JUMPI DUP1 PUSH4 0xBACB5EBD EQ PUSH2 0x346 JUMPI DUP1 PUSH4 0xCFC9A5F8 EQ PUSH2 0x370 JUMPI DUP1 PUSH4 0xDDD42596 EQ PUSH2 0x39A JUMPI DUP1 PUSH4 0xE38F8448 EQ PUSH2 0x3C2 JUMPI DUP1 PUSH4 0xED0B1F5F EQ PUSH2 0x3EA JUMPI PUSH2 0x113 JUMP JUMPDEST DUP1 PUSH4 0x8DA5CB5B EQ PUSH2 0x287 JUMPI DUP1 PUSH4 0x8DD2361C EQ PUSH2 0x2B1 JUMPI DUP1 PUSH4 0x9886BCFA EQ PUSH2 0x2F4 JUMPI DUP1 PUSH4 0x9C471749 EQ PUSH2 0x31C JUMPI PUSH2 0x113 JUMP JUMPDEST DUP1 PUSH4 0x74119A38 GT PUSH2 0xDB JUMPI DUP1 PUSH4 0x74119A38 EQ PUSH2 0x19D JUMPI DUP1 PUSH4 0x754E150D EQ PUSH2 0x1BB JUMPI DUP1 PUSH4 0x7ED4C5BE EQ PUSH2 0x1F7 JUMPI DUP1 PUSH4 0x891C0785 EQ PUSH2 0x221 JUMPI DUP1 PUSH4 0x8AEE578B EQ PUSH2 0x24B JUMPI PUSH2 0x113 JUMP JUMPDEST DUP1 PUSH4 0x1B2DA512 EQ PUSH2 0x117 JUMPI DUP1 PUSH4 0x30CEC0EB EQ PUSH2 0x121 JUMPI DUP1 PUSH4 0x3CCFD60B EQ PUSH2 0x15D JUMPI DUP1 PUSH4 0x51F9EFDE EQ PUSH2 0x173 JUMPI PUSH2 0x113 JUMP JUMPDEST CALLDATASIZE PUSH2 0x113 JUMPI STOP JUMPDEST PUSH0 PUSH0 REVERT JUMPDEST PUSH2 0x11F PUSH2 0x426 JUMP JUMPDEST STOP JUMPDEST CALLVALUE DUP1 ISZERO PUSH2 0x12C JUMPI PUSH0 PUSH0 REVERT JUMPDEST POP PUSH2 0x147 PUSH1 0x4 DUP1 CALLDATASIZE SUB DUP2 ADD SWAP1 PUSH2 0x142 SWAP2 SWAP1 PUSH2 0x123D JUMP JUMPDEST PUSH2 0x428 JUMP JUMPDEST PUSH1 0x40 MLOAD PUSH2 0x154 SWAP2 SWAP1 PUSH2 0x1328 JUMP JUMPDEST PUSH1 0x40 MLOAD DUP1 SWAP2 SUB SWAP1 RETURN JUMPDEST CALLVALUE DUP1 ISZERO PUSH2 0x168 JUMPI PUSH0 PUSH0 REVERT JUMPDEST POP PUSH2 0x171 PUSH2 0x4BB JUMP JUMPDEST STOP JUMPDEST CALLVALUE DUP1 ISZERO PUSH2 0x17E JUMPI PUSH0 PUSH0 REVERT JUMPDEST POP PUSH2 0x187 PUSH2 0x616 JUMP JUMPDEST PUSH1 0x40 MLOAD PUSH2 0x194 SWAP2 SWAP1 PUSH2 0x1357 JUMP JUMPDEST PUSH1 0x40 MLOAD DUP1 SWAP2 SUB SWAP1 RETURN JUMPDEST PUSH2 0x1A5 PUSH2 0x61B JUMP JUMPDEST PUSH1 0x40 MLOAD PUSH2 0x1B2 SWAP2 SWAP1 PUSH2 0x1357 JUMP JUMPDEST PUSH1 0x40 MLOAD DUP1 SWAP2 SUB SWAP1 RETURN JUMPDEST CALLVALUE DUP1 ISZERO PUSH2 0x1C6 JUMPI PUSH0 PUSH0 REVERT JUMPDEST POP PUSH2 0x1E1 PUSH1 0x4 DUP1 CALLDATASIZE SUB DUP2 ADD SWAP1 PUSH2 0x1DC SWAP2 SWAP1 PUSH2 0x139A JUMP JUMPDEST PUSH2 0x8A7 JUMP JUMPDEST PUSH1 0x40 MLOAD PUSH2 0x1EE SWAP2 SWAP1 PUSH2 0x13E0 JUMP JUMPDEST PUSH1 0x40 MLOAD DUP1 SWAP2 SUB SWAP1 RETURN JUMPDEST CALLVALUE DUP1 ISZERO PUSH2 0x202 JUMPI PUSH0 PUSH0 REVERT JUMPDEST POP PUSH2 0x20B PUSH2 0x97C JUMP JUMPDEST PUSH1 0x40 MLOAD PUSH2 0x218 SWAP2 SWAP1 PUSH2 0x1357 JUMP JUMPDEST PUSH1 0x40 MLOAD DUP1 SWAP2 SUB SWAP1 RETURN JUMPDEST CALLVALUE DUP1 ISZERO PUSH2 0x22C JUMPI PUSH0 PUSH0 REVERT JUMPDEST POP PUSH2 0x235 PUSH2 0x981 JUMP JUMPDEST PUSH1 0x40 MLOAD PUSH2 0x242 SWAP2 SWAP1 PUSH2 0x1357 JUMP JUMPDEST PUSH1 0x40 MLOAD DUP1 SWAP2 SUB SWAP1 RETURN JUMPDEST CALLVALUE DUP1 ISZERO PUSH2 0x256 JUMPI PUSH0 PUSH0 REVERT JUMPDEST POP PUSH2 0x271 PUSH1 0x4 DUP1 CALLDATASIZE SUB DUP2 ADD SWAP1 PUSH2 0x26C SWAP2 SWAP1 PUSH2 0x13F9 JUMP JUMPDEST PUSH2 0x98C JUMP JUMPDEST PUSH1 0x40 MLOAD PUSH2 0x27E SWAP2 SWAP1 PUSH2 0x1357 JUMP JUMPDEST PUSH1 0x40 MLOAD DUP1 SWAP2 SUB SWAP1 RETURN JUMPDEST CALLVALUE DUP1 ISZERO PUSH2 0x292 JUMPI PUSH0 PUSH0 REVERT JUMPDEST POP PUSH2 0x29B PUSH2 0x9B7 JUMP JUMPDEST PUSH1 0x40 MLOAD PUSH2 0x2A8 SWAP2 SWAP1 PUSH2 0x1446 JUMP JUMPDEST PUSH1 0x40 MLOAD DUP1 SWAP2 SUB SWAP1 RETURN JUMPDEST CALLVALUE DUP1 ISZERO PUSH2 0x2BC JUMPI PUSH0 PUSH0 REVERT JUMPDEST POP PUSH2 0x2D7 PUSH1 0x4 DUP1 CALLDATASIZE SUB DUP2 ADD SWAP1 PUSH2 0x2D2 SWAP2 SWAP1 PUSH2 0x139A JUMP JUMPDEST PUSH2 0x9DC JUMP JUMPDEST PUSH1 0x40 MLOAD PUSH2 0x2EB SWAP9 SWAP8 SWAP7 SWAP6 SWAP5 SWAP4 SWAP3 SWAP2 SWAP1 PUSH2 0x14EC JUMP JUMPDEST PUSH1 0x40 MLOAD DUP1 SWAP2 SUB SWAP1 RETURN JUMPDEST CALLVALUE DUP1 ISZERO PUSH2 0x2FF JUMPI PUSH0 PUSH0 REVERT JUMPDEST POP PUSH2 0x31A PUSH1 0x4 DUP1 CALLDATASIZE SUB DUP2 ADD SWAP1 PUSH2 0x315 SWAP2 SWAP1 PUSH2 0x139A JUMP JUMPDEST PUSH2 0xA71 JUMP JUMPDEST STOP JUMPDEST CALLVALUE DUP1 ISZERO PUSH2 0x327 JUMPI PUSH0 PUSH0 REVERT JUMPDEST POP PUSH2 0x330 PUSH2 0xB87 JUMP JUMPDEST PUSH1 0x40 MLOAD PUSH2 0x33D SWAP2 SWAP1 PUSH2 0x1357 JUMP JUMPDEST PUSH1 0x40 MLOAD DUP1 SWAP2 SUB SWAP1 RETURN JUMPDEST CALLVALUE DUP1 ISZERO PUSH2 0x351 JUMPI PUSH0 PUSH0 REVERT JUMPDEST POP PUSH2 0x35A PUSH2 0xB8D JUMP JUMPDEST PUSH1 0x40 MLOAD PUSH2 0x367 SWAP2 SWAP1 PUSH2 0x13E0 JUMP JUMPDEST PUSH1 0x40 MLOAD DUP1 SWAP2 SUB SWAP1 RETURN JUMPDEST CALLVALUE DUP1 ISZERO PUSH2 0x37B JUMPI PUSH0 PUSH0 REVERT JUMPDEST POP PUSH2 0x384 PUSH2 0xB92 JUMP JUMPDEST PUSH1 0x40 MLOAD PUSH2 0x391 SWAP2 SWAP1 PUSH2 0x1357 JUMP JUMPDEST PUSH1 0x40 MLOAD DUP1 SWAP2 SUB SWAP1 RETURN JUMPDEST CALLVALUE DUP1 ISZERO PUSH2 0x3A5 JUMPI PUSH0 PUSH0 REVERT JUMPDEST POP PUSH2 0x3C0 PUSH1 0x4 DUP1 CALLDATASIZE SUB DUP2 ADD SWAP1 PUSH2 0x3BB SWAP2 SWAP1 PUSH2 0x139A JUMP JUMPDEST PUSH2 0xB9D JUMP JUMPDEST STOP JUMPDEST CALLVALUE DUP1 ISZERO PUSH2 0x3CD JUMPI PUSH0 PUSH0 REVERT JUMPDEST POP PUSH2 0x3E8 PUSH1 0x4 DUP1 CALLDATASIZE SUB DUP2 ADD SWAP1 PUSH2 0x3E3 SWAP2 SWAP1 PUSH2 0x139A JUMP JUMPDEST PUSH2 0xD5F JUMP JUMPDEST STOP JUMPDEST CALLVALUE DUP1 ISZERO PUSH2 0x3F5 JUMPI PUSH0 PUSH0 REVERT JUMPDEST POP PUSH2 0x410 PUSH1 0x4 DUP1 CALLDATASIZE SUB DUP2 ADD SWAP1 PUSH2 0x40B SWAP2 SWAP1 PUSH2 0x139A JUMP JUMPDEST PUSH2 0xF79 JUMP JUMPDEST PUSH1 0x40 MLOAD PUSH2 0x41D SWAP2 SWAP1 PUSH2 0x1644 JUMP JUMPDEST PUSH1 0x40 MLOAD DUP1 SWAP2 SUB SWAP1 RETURN JUMPDEST JUMP JUMPDEST PUSH1 0x60 PUSH1 0x1 PUSH0 DUP4 PUSH20 0xFFFFFFFFFFFFFFFFFFFFFFFFFFFFFFFFFFFFFFFF AND PUSH20 0xFFFFFFFFFFFFFFFFFFFFFFFFFFFFFFFFFFFFFFFF AND DUP2 MSTORE PUSH1 0x20 ADD SWAP1 DUP2 MSTORE PUSH1 0x20 ADD PUSH0 KECCAK256 DUP1 SLOAD DUP1 PUSH1 0x20 MUL PUSH1 0x20 ADD PUSH1 0x40 MLOAD SWAP1 DUP2 ADD PUSH1 0x40 MSTORE DUP1 SWAP3 SWAP2 SWAP1 DUP2 DUP2 MSTORE PUSH1 0x20 ADD DUP3 DUP1 SLOAD DUP1 ISZERO PUSH2 0x4AF JUMPI PUSH1 0x20 MUL DUP3 ADD SWAP2 SWAP1 PUSH0 MSTORE PUSH1 0x20 PUSH0 KECCAK256 SWAP1 JUMPDEST DUP2 SLOAD DUP2 MSTORE PUSH1 0x20 ADD SWAP1 PUSH1 0x1 ADD SWAP1 DUP1 DUP4 GT PUSH2 0x49B JUMPI JUMPDEST POP POP POP POP POP SWAP1 POP SWAP2 SWAP1 POP JUMP JUMPDEST PUSH1 0x3 PUSH0 SWAP1 SLOAD SWAP1 PUSH2 0x100 EXP SWAP1 DIV PUSH20 0xFFFFFFFFFFFFFFFFFFFFFFFFFFFFFFFFFFFFFFFF AND PUSH20 0xFFFFFFFFFFFFFFFFFFFFFFFFFFFFFFFFFFFFFFFF AND CALLER PUSH20 0xFFFFFFFFFFFFFFFFFFFFFFFFFFFFFFFFFFFFFFFF AND EQ PUSH2 0x54A JUMPI PUSH1 0x40 MLOAD PUSH32 0x8C379A000000000000000000000000000000000000000000000000000000000 DUP2 MSTORE PUSH1 0x4 ADD PUSH2 0x541 SWAP1 PUSH2 0x16B8 JUMP JUMPDEST PUSH1 0x40 MLOAD DUP1 SWAP2 SUB SWAP1 REVERT JUMPDEST PUSH0 PUSH1 0x3 PUSH0 SWAP1 SLOAD SWAP1 PUSH2 0x100 EXP SWAP1 DIV PUSH20 0xFFFFFFFFFFFFFFFFFFFFFFFFFFFFFFFFFFFFFFFF AND PUSH20 0xFFFFFFFFFFFFFFFFFFFFFFFFFFFFFFFFFFFFFFFF AND SELFBALANCE PUSH1 0x40 MLOAD PUSH2 0x590 SWAP1 PUSH2 0x1703 JUMP JUMPDEST PUSH0 PUSH1 0x40 MLOAD DUP1 DUP4 SUB DUP2 DUP6 DUP8 GAS CALL SWAP3 POP POP POP RETURNDATASIZE DUP1 PUSH0 DUP2 EQ PUSH2 0x5CA JUMPI PUSH1 0x40 MLOAD SWAP2 POP PUSH1 0x1F NOT PUSH1 0x3F RETURNDATASIZE ADD AND DUP3 ADD PUSH1 0x40 MSTORE RETURNDATASIZE DUP3 MSTORE RETURNDATASIZE PUSH0 PUSH1 0x20 DUP5 ADD RETURNDATACOPY PUSH2 0x5CF JUMP JUMPDEST PUSH1 0x60 SWAP2 POP JUMPDEST POP POP SWAP1 POP DUP1 PUSH2 0x613 JUMPI PUSH1 0x40 MLOAD PUSH32 0x8C379A000000000000000000000000000000000000000000000000000000000 DUP2 MSTORE PUSH1 0x4 ADD PUSH2 0x60A SWAP1 PUSH2 0x1761 JUMP JUMPDEST PUSH1 0x40 MLOAD DUP1 SWAP2 SUB SWAP1 REVERT JUMPDEST POP JUMP JUMPDEST PUSH1 0x3C DUP2 JUMP JUMPDEST PUSH0 PUSH7 0x38D7EA4C68000 CALLVALUE LT ISZERO PUSH2 0x666 JUMPI PUSH1 0x40 MLOAD PUSH32 0x8C379A000000000000000000000000000000000000000000000000000000000 DUP2 MSTORE PUSH1 0x4 ADD PUSH2 0x65D SWAP1 PUSH2 0x17C9 JUMP JUMPDEST PUSH1 0x40 MLOAD DUP1 SWAP2 SUB SWAP1 REVERT JUMPDEST PUSH1 0x2 PUSH0 DUP2 SLOAD DUP1 SWAP3 SWAP2 SWAP1 PUSH2 0x678 SWAP1 PUSH2 0x1814 JUMP JUMPDEST SWAP2 SWAP1 POP SSTORE POP PUSH0 PUSH1 0x40 MLOAD DUP1 PUSH2 0x100 ADD PUSH1 0x40 MSTORE DUP1 PUSH1 0x2 SLOAD DUP2 MSTORE PUSH1 0x20 ADD CALLER PUSH20 0xFFFFFFFFFFFFFFFFFFFFFFFFFFFFFFFFFFFFFFFF AND DUP2 MSTORE PUSH1 0x20 ADD PUSH0 PUSH1 0x3 DUP2 GT ISZERO PUSH2 0x6C1 JUMPI PUSH2 0x6C0 PUSH2 0x145F JUMP JUMPDEST JUMPDEST DUP2 MSTORE PUSH1 0x20 ADD TIMESTAMP DUP2 MSTORE PUSH1 0x20 ADD TIMESTAMP DUP2 MSTORE PUSH1 0x20 ADD PUSH1 0x64 PUSH1 0xFF AND DUP2 MSTORE PUSH1 0x20 ADD PUSH1 0x1 ISZERO ISZERO DUP2 MSTORE PUSH1 0x20 ADD PUSH0 ISZERO ISZERO DUP2 MSTORE POP SWAP1 POP DUP1 PUSH0 PUSH0 PUSH1 0x2 SLOAD DUP2 MSTORE PUSH1 0x20 ADD SWAP1 DUP2 MSTORE PUSH1 0x20 ADD PUSH0 KECCAK256 PUSH0 DUP3 ADD MLOAD DUP2 PUSH0 ADD SSTORE PUSH1 0x20 DUP3 ADD MLOAD DUP2 PUSH1 0x1 ADD PUSH0 PUSH2 0x100 EXP DUP2 SLOAD DUP2 PUSH20 0xFFFFFFFFFFFFFFFFFFFFFFFFFFFFFFFFFFFFFFFF MUL NOT AND SWAP1 DUP4 PUSH20 0xFFFFFFFFFFFFFFFFFFFFFFFFFFFFFFFFFFFFFFFF AND MUL OR SWAP1 SSTORE POP PUSH1 0x40 DUP3 ADD MLOAD DUP2 PUSH1 0x1 ADD PUSH1 0x14 PUSH2 0x100 EXP DUP2 SLOAD DUP2 PUSH1 0xFF MUL NOT AND SWAP1 DUP4 PUSH1 0x3 DUP2 GT ISZERO PUSH2 0x779 JUMPI PUSH2 0x778 PUSH2 0x145F JUMP JUMPDEST JUMPDEST MUL OR SWAP1 SSTORE POP PUSH1 0x60 DUP3 ADD MLOAD DUP2 PUSH1 0x2 ADD SSTORE PUSH1 0x80 DUP3 ADD MLOAD DUP2 PUSH1 0x3 ADD SSTORE PUSH1 0xA0 DUP3 ADD MLOAD DUP2 PUSH1 0x4 ADD PUSH0 PUSH2 0x100 EXP DUP2 SLOAD DUP2 PUSH1 0xFF MUL NOT AND SWAP1 DUP4 PUSH1 0xFF AND MUL OR SWAP1 SSTORE POP PUSH1 0xC0 DUP3 ADD MLOAD DUP2 PUSH1 0x4 ADD PUSH1 0x1 PUSH2 0x100 EXP DUP2 SLOAD DUP2 PUSH1 0xFF MUL NOT AND SWAP1 DUP4 ISZERO ISZERO MUL OR SWAP1 SSTORE POP PUSH1 0xE0 DUP3 ADD MLOAD DUP2 PUSH1 0x4 ADD PUSH1 0x2 PUSH2 0x100 EXP DUP2 SLOAD DUP2 PUSH1 0xFF MUL NOT AND SWAP1 DUP4 ISZERO ISZERO MUL OR SWAP1 SSTORE POP SWAP1 POP POP PUSH1 0x1 PUSH0 CALLER PUSH20 0xFFFFFFFFFFFFFFFFFFFFFFFFFFFFFFFFFFFFFFFF AND PUSH20 0xFFFFFFFFFFFFFFFFFFFFFFFFFFFFFFFFFFFFFFFF AND DUP2 MSTORE PUSH1 0x20 ADD SWAP1 DUP2 MSTORE PUSH1 0x20 ADD PUSH0 KECCAK256 PUSH1 0x2 SLOAD SWAP1 DUP1 PUSH1 0x1 DUP2 SLOAD ADD DUP1 DUP3 SSTORE DUP1 SWAP2 POP POP PUSH1 0x1 SWAP1 SUB SWAP1 PUSH0 MSTORE PUSH1 0x20 PUSH0 KECCAK256 ADD PUSH0 SWAP1 SWAP2 SWAP1 SWAP2 SWAP1 SWAP2 POP SSTORE PUSH1 0x2 SLOAD CALLER PUSH20 0xFFFFFFFFFFFFFFFFFFFFFFFFFFFFFFFFFFFFFFFF AND PUSH32 0x4F5B22082AC57121703B0B6C1203EF527CFBFA5069616FEE6DEB979D124ADBF0 PUSH1 0x40 MLOAD PUSH1 0x40 MLOAD DUP1 SWAP2 SUB SWAP1 LOG3 PUSH1 0x2 SLOAD SWAP2 POP POP SWAP1 JUMP JUMPDEST PUSH0 PUSH0 PUSH0 PUSH0 DUP5 DUP2 MSTORE PUSH1 0x20 ADD SWAP1 DUP2 MSTORE PUSH1 0x20 ADD PUSH0 KECCAK256 SWAP1 POP DUP1 PUSH1 0x4 ADD PUSH1 0x1 SWAP1 SLOAD SWAP1 PUSH2 0x100 EXP SWAP1 DIV PUSH1 0xFF AND ISZERO DUP1 PUSH2 0x8E7 JUMPI POP DUP1 PUSH1 0x4 ADD PUSH1 0x2 SWAP1 SLOAD SWAP1 PUSH2 0x100 EXP SWAP1 DIV PUSH1 0xFF AND JUMPDEST ISZERO PUSH2 0x8F5 JUMPI PUSH0 SWAP2 POP POP PUSH2 0x977 JUMP JUMPDEST PUSH0 DUP2 PUSH1 0x3 ADD SLOAD TIMESTAMP PUSH2 0x906 SWAP2 SWAP1 PUSH2 0x185B JUMP JUMPDEST SWAP1 POP PUSH0 PUSH1 0x1E DUP3 PUSH2 0x916 SWAP2 SWAP1 PUSH2 0x18BB JUMP JUMPDEST SWAP1 POP PUSH0 PUSH1 0x2 PUSH1 0xFF AND DUP3 PUSH2 0x929 SWAP2 SWAP1 PUSH2 0x18EB JUMP JUMPDEST SWAP1 POP DUP4 PUSH1 0x4 ADD PUSH0 SWAP1 SLOAD SWAP1 PUSH2 0x100 EXP SWAP1 DIV PUSH1 0xFF AND PUSH1 0xFF AND DUP2 LT PUSH2 0x951 JUMPI PUSH0 SWAP5 POP POP POP POP POP PUSH2 0x977 JUMP JUMPDEST DUP1 DUP5 PUSH1 0x4 ADD PUSH0 SWAP1 SLOAD SWAP1 PUSH2 0x100 EXP SWAP1 DIV PUSH1 0xFF AND PUSH1 0xFF AND PUSH2 0x970 SWAP2 SWAP1 PUSH2 0x185B JUMP JUMPDEST SWAP5 POP POP POP POP POP JUMPDEST SWAP2 SWAP1 POP JUMP JUMPDEST PUSH1 0x1E DUP2 JUMP JUMPDEST PUSH7 0x110D9316EC000 DUP2 JUMP JUMPDEST PUSH1 0x1 PUSH1 0x20 MSTORE DUP2 PUSH0 MSTORE PUSH1 0x40 PUSH0 KECCAK256 DUP2 DUP2 SLOAD DUP2 LT PUSH2 0x9A5 JUMPI PUSH0 DUP1 REVERT JUMPDEST SWAP1 PUSH0 MSTORE PUSH1 0x20 PUSH0 KECCAK256 ADD PUSH0 SWAP2 POP SWAP2 POP POP SLOAD DUP2 JUMP JUMPDEST PUSH1 0x3 PUSH0 SWAP1 SLOAD SWAP1 PUSH2 0x100 EXP SWAP1 DIV PUSH20 0xFFFFFFFFFFFFFFFFFFFFFFFFFFFFFFFFFFFFFFFF AND DUP2 JUMP JUMPDEST PUSH0 PUSH1 0x20 MSTORE DUP1 PUSH0 MSTORE PUSH1 0x40 PUSH0 KECCAK256 PUSH0 SWAP2 POP SWAP1 POP DUP1 PUSH0 ADD SLOAD SWAP1 DUP1 PUSH1 0x1 ADD PUSH0 SWAP1 SLOAD SWAP1 PUSH2 0x100 EXP SWAP1 DIV PUSH20 0xFFFFFFFFFFFFFFFFFFFFFFFFFFFFFFFFFFFFFFFF AND SWAP1 DUP1 PUSH1 0x1 ADD PUSH1 0x14 SWAP1 SLOAD SWAP1 PUSH2 0x100 EXP SWAP1 DIV PUSH1 0xFF AND SWAP1 DUP1 PUSH1 0x2 ADD SLOAD SWAP1 DUP1 PUSH1 0x3 ADD SLOAD SWAP1 DUP1 PUSH1 0x4 ADD PUSH0 SWAP1 SLOAD SWAP1 PUSH2 0x100 EXP SWAP1 DIV PUSH1 0xFF AND SWAP1 DUP1 PUSH1 0x4 ADD PUSH1 0x1 SWAP1 SLOAD SWAP1 PUSH2 0x100 EXP SWAP1 DIV PUSH1 0xFF AND SWAP1 DUP1 PUSH1 0x4 ADD PUSH1 0x2 SWAP1 SLOAD SWAP1 PUSH2 0x100 EXP SWAP1 DIV PUSH1 0xFF AND SWAP1 POP DUP9 JUMP JUMPDEST PUSH0 PUSH0 PUSH0 DUP4 DUP2 MSTORE PUSH1 0x20 ADD SWAP1 DUP2 MSTORE PUSH1 0x20 ADD PUSH0 KECCAK256 SWAP1 POP DUP1 PUSH1 0x4 ADD PUSH1 0x1 SWAP1 SLOAD SWAP1 PUSH2 0x100 EXP SWAP1 DIV PUSH1 0xFF AND PUSH2 0xA9E JUMPI PUSH0 PUSH0 REVERT JUMPDEST CALLER PUSH20 0xFFFFFFFFFFFFFFFFFFFFFFFFFFFFFFFFFFFFFFFF AND DUP2 PUSH1 0x1 ADD PUSH0 SWAP1 SLOAD SWAP1 PUSH2 0x100 EXP SWAP1 DIV PUSH20 0xFFFFFFFFFFFFFFFFFFFFFFFFFFFFFFFFFFFFFFFF AND PUSH20 0xFFFFFFFFFFFFFFFFFFFFFFFFFFFFFFFFFFFFFFFF AND EQ PUSH2 0xAF8 JUMPI PUSH0 PUSH0 REVERT JUMPDEST DUP1 PUSH1 0x4 ADD PUSH1 0x2 SWAP1 SLOAD SWAP1 PUSH2 0x100 EXP SWAP1 DIV PUSH1 0xFF AND ISZERO PUSH2 0xB13 JUMPI PUSH0 PUSH0 REVERT JUMPDEST PUSH1 0x64 DUP2 PUSH1 0x4 ADD PUSH0 PUSH2 0x100 EXP DUP2 SLOAD DUP2 PUSH1 0xFF MUL NOT AND SWAP1 DUP4 PUSH1 0xFF AND MUL OR SWAP1 SSTORE POP TIMESTAMP DUP2 PUSH1 0x3 ADD DUP2 SWAP1 SSTORE POP DUP1 PUSH1 0x4 ADD PUSH0 SWAP1 SLOAD SWAP1 PUSH2 0x100 EXP SWAP1 DIV PUSH1 0xFF AND PUSH1 0xFF AND DUP3 PUSH32 0xD4B742B9BA48FFFA1F14267075A7793851770764117C423FD0A6550DFC8CB574 PUSH1 0x40 MLOAD PUSH1 0x40 MLOAD DUP1 SWAP2 SUB SWAP1 LOG3 PUSH2 0xB83 DUP3 PUSH2 0xB9D JUMP JUMPDEST POP POP JUMP JUMPDEST PUSH1 0x2 SLOAD DUP2 JUMP JUMPDEST PUSH1 0x2 DUP2 JUMP JUMPDEST PUSH7 0x38D7EA4C68000 DUP2 JUMP JUMPDEST PUSH0 PUSH0 PUSH0 DUP4 DUP2 MSTORE PUSH1 0x20 ADD SWAP1 DUP2 MSTORE PUSH1 0x20 ADD PUSH0 KECCAK256 SWAP1 POP DUP1 PUSH1 0x4 ADD PUSH1 0x1 SWAP1 SLOAD SWAP1 PUSH2 0x100 EXP SWAP1 DIV PUSH1 0xFF AND PUSH2 0xBCA JUMPI PUSH0 PUSH0 REVERT JUMPDEST PUSH2 0xBD3 DUP3 PUSH2 0x10C2 JUMP JUMPDEST DUP1 PUSH1 0x4 ADD PUSH1 0x2 SWAP1 SLOAD SWAP1 PUSH2 0x100 EXP SWAP1 DIV PUSH1 0xFF AND ISZERO PUSH2 0xBF0 JUMPI POP PUSH2 0xD5C JUMP JUMPDEST PUSH0 DUP2 PUSH1 0x2 ADD SLOAD TIMESTAMP PUSH2 0xC01 SWAP2 SWAP1 PUSH2 0x185B JUMP JUMPDEST SWAP1 POP PUSH0 DUP3 PUSH1 0x1 ADD PUSH1 0x14 SWAP1 SLOAD SWAP1 PUSH2 0x100 EXP SWAP1 DIV PUSH1 0xFF AND SWAP1 POP PUSH1 0x3C DUP3 LT PUSH2 0xC4E JUMPI PUSH1 0x1 DUP4 PUSH1 0x1 ADD PUSH1 0x14 PUSH2 0x100 EXP DUP2 SLOAD DUP2 PUSH1 0xFF MUL NOT AND SWAP1 DUP4 PUSH1 0x3 DUP2 GT ISZERO PUSH2 0xC48 JUMPI PUSH2 0xC47 PUSH2 0x145F JUMP JUMPDEST JUMPDEST MUL OR SWAP1 SSTORE POP JUMPDEST PUSH1 0x2 PUSH1 0x3C PUSH2 0xC5C SWAP2 SWAP1 PUSH2 0x18EB JUMP JUMPDEST DUP3 LT PUSH2 0xC90 JUMPI PUSH1 0x2 DUP4 PUSH1 0x1 ADD PUSH1 0x14 PUSH2 0x100 EXP DUP2 SLOAD DUP2 PUSH1 0xFF MUL NOT AND SWAP1 DUP4 PUSH1 0x3 DUP2 GT ISZERO PUSH2 0xC8A JUMPI PUSH2 0xC89 PUSH2 0x145F JUMP JUMPDEST JUMPDEST MUL OR SWAP1 SSTORE POP JUMPDEST PUSH1 0x3 PUSH1 0x3C PUSH2 0xC9E SWAP2 SWAP1 PUSH2 0x18EB JUMP JUMPDEST DUP3 LT PUSH2 0xCD2 JUMPI PUSH1 0x3 DUP4 PUSH1 0x1 ADD PUSH1 0x14 PUSH2 0x100 EXP DUP2 SLOAD DUP2 PUSH1 0xFF MUL NOT AND SWAP1 DUP4 PUSH1 0x3 DUP2 GT ISZERO PUSH2 0xCCC JUMPI PUSH2 0xCCB PUSH2 0x145F JUMP JUMPDEST JUMPDEST MUL OR SWAP1 SSTORE POP JUMPDEST DUP1 PUSH1 0x3 DUP2 GT ISZERO PUSH2 0xCE5 JUMPI PUSH2 0xCE4 PUSH2 0x145F JUMP JUMPDEST JUMPDEST DUP4 PUSH1 0x1 ADD PUSH1 0x14 SWAP1 SLOAD SWAP1 PUSH2 0x100 EXP SWAP1 DIV PUSH1 0xFF AND PUSH1 0x3 DUP2 GT ISZERO PUSH2 0xD09 JUMPI PUSH2 0xD08 PUSH2 0x145F JUMP JUMPDEST JUMPDEST EQ PUSH2 0xD58 JUMPI DUP4 PUSH32 0x338B8976706F9DA67298DDDFA1EA4FF7D99CCE68B9CA39C4F348994F8E2124A8 DUP5 PUSH1 0x1 ADD PUSH1 0x14 SWAP1 SLOAD SWAP1 PUSH2 0x100 EXP SWAP1 DIV PUSH1 0xFF AND PUSH1 0x40 MLOAD PUSH2 0xD4F SWAP2 SWAP1 PUSH2 0x192C JUMP JUMPDEST PUSH1 0x40 MLOAD DUP1 SWAP2 SUB SWAP1 LOG2 JUMPDEST POP POP POP JUMPDEST POP JUMP JUMPDEST PUSH0 PUSH0 PUSH0 DUP4 DUP2 MSTORE PUSH1 0x20 ADD SWAP1 DUP2 MSTORE PUSH1 0x20 ADD PUSH0 KECCAK256 SWAP1 POP DUP1 PUSH1 0x4 ADD PUSH1 0x1 SWAP1 SLOAD SWAP1 PUSH2 0x100 EXP SWAP1 DIV PUSH1 0xFF AND PUSH2 0xDC3 JUMPI PUSH1 0x40 MLOAD PUSH32 0x8C379A000000000000000000000000000000000000000000000000000000000 DUP2 MSTORE PUSH1 0x4 ADD PUSH2 0xDBA SWAP1 PUSH2 0x198F JUMP JUMPDEST PUSH1 0x40 MLOAD DUP1 SWAP2 SUB SWAP1 REVERT JUMPDEST PUSH1 0x3 DUP1 DUP2 GT ISZERO PUSH2 0xDD6 JUMPI PUSH2 0xDD5 PUSH2 0x145F JUMP JUMPDEST JUMPDEST DUP2 PUSH1 0x1 ADD PUSH1 0x14 SWAP1 SLOAD SWAP1 PUSH2 0x100 EXP SWAP1 DIV PUSH1 0xFF AND PUSH1 0x3 DUP2 GT ISZERO PUSH2 0xDFA JUMPI PUSH2 0xDF9 PUSH2 0x145F JUMP JUMPDEST JUMPDEST EQ PUSH2 0xE3A JUMPI PUSH1 0x40 MLOAD PUSH32 0x8C379A000000000000000000000000000000000000000000000000000000000 DUP2 MSTORE PUSH1 0x4 ADD PUSH2 0xE31 SWAP1 PUSH2 0x19F7 JUMP JUMPDEST PUSH1 0x40 MLOAD DUP1 SWAP2 SUB SWAP1 REVERT JUMPDEST PUSH0 DUP2 PUSH1 0x4 ADD PUSH1 0x1 PUSH2 0x100 EXP DUP2 SLOAD DUP2 PUSH1 0xFF MUL NOT AND SWAP1 DUP4 ISZERO ISZERO MUL OR SWAP1 SSTORE POP PUSH7 0x110D9316EC000 DUP2 PUSH1 0x1 ADD PUSH0 SWAP1 SLOAD SWAP1 PUSH2 0x100 EXP SWAP1 DIV PUSH20 0xFFFFFFFFFFFFFFFFFFFFFFFFFFFFFFFFFFFFFFFF AND PUSH20 0xFFFFFFFFFFFFFFFFFFFFFFFFFFFFFFFFFFFFFFFF AND DUP4 PUSH32 0x79F2138EA100070FF95B59C265DA7AA3C7A0F61595FE1BB2F5FDA2762F398847 PUSH1 0x40 MLOAD PUSH1 0x40 MLOAD DUP1 SWAP2 SUB SWAP1 LOG4 PUSH0 CALLER PUSH20 0xFFFFFFFFFFFFFFFFFFFFFFFFFFFFFFFFFFFFFFFF AND PUSH7 0x110D9316EC000 PUSH1 0x40 MLOAD PUSH2 0xEF1 SWAP1 PUSH2 0x1703 JUMP JUMPDEST PUSH0 PUSH1 0x40 MLOAD DUP1 DUP4 SUB DUP2 DUP6 DUP8 GAS CALL SWAP3 POP POP POP RETURNDATASIZE DUP1 PUSH0 DUP2 EQ PUSH2 0xF2B JUMPI PUSH1 0x40 MLOAD SWAP2 POP PUSH1 0x1F NOT PUSH1 0x3F RETURNDATASIZE ADD AND DUP3 ADD PUSH1 0x40 MSTORE RETURNDATASIZE DUP3 MSTORE RETURNDATASIZE PUSH0 PUSH1 0x20 DUP5 ADD RETURNDATACOPY PUSH2 0xF30 JUMP JUMPDEST PUSH1 0x60 SWAP2 POP JUMPDEST POP POP SWAP1 POP DUP1 PUSH2 0xF74 JUMPI PUSH1 0x40 MLOAD PUSH32 0x8C379A000000000000000000000000000000000000000000000000000000000 DUP2 MSTORE PUSH1 0x4 ADD PUSH2 0xF6B SWAP1 PUSH2 0x1761 JUMP JUMPDEST PUSH1 0x40 MLOAD DUP1 SWAP2 SUB SWAP1 REVERT JUMPDEST POP POP POP JUMP JUMPDEST PUSH2 0xF81 PUSH2 0x1173 JUMP JUMPDEST PUSH0 PUSH0 PUSH0 DUP5 DUP2 MSTORE PUSH1 0x20 ADD SWAP1 DUP2 MSTORE PUSH1 0x20 ADD PUSH0 KECCAK256 PUSH1 0x40 MLOAD DUP1 PUSH2 0x100 ADD PUSH1 0x40 MSTORE SWAP1 DUP2 PUSH0 DUP3 ADD SLOAD DUP2 MSTORE PUSH1 0x20 ADD PUSH1 0x1 DUP3 ADD PUSH0 SWAP1 SLOAD SWAP1 PUSH2 0x100 EXP SWAP1 DIV PUSH20 0xFFFFFFFFFFFFFFFFFFFFFFFFFFFFFFFFFFFFFFFF AND PUSH20 0xFFFFFFFFFFFFFFFFFFFFFFFFFFFFFFFFFFFFFFFF AND PUSH20 0xFFFFFFFFFFFFFFFFFFFFFFFFFFFFFFFFFFFFFFFF AND DUP2 MSTORE PUSH1 0x20 ADD PUSH1 0x1 DUP3 ADD PUSH1 0x14 SWAP1 SLOAD SWAP1 PUSH2 0x100 EXP SWAP1 DIV PUSH1 0xFF AND PUSH1 0x3 DUP2 GT ISZERO PUSH2 0x1021 JUMPI PUSH2 0x1020 PUSH2 0x145F JUMP JUMPDEST JUMPDEST PUSH1 0x3 DUP2 GT ISZERO PUSH2 0x1033 JUMPI PUSH2 0x1032 PUSH2 0x145F JUMP JUMPDEST JUMPDEST DUP2 MSTORE PUSH1 0x20 ADD PUSH1 0x2 DUP3 ADD SLOAD DUP2 MSTORE PUSH1 0x20 ADD PUSH1 0x3 DUP3 ADD SLOAD DUP2 MSTORE PUSH1 0x20 ADD PUSH1 0x4 DUP3 ADD PUSH0 SWAP1 SLOAD SWAP1 PUSH2 0x100 EXP SWAP1 DIV PUSH1 0xFF AND PUSH1 0xFF AND PUSH1 0xFF AND DUP2 MSTORE PUSH1 0x20 ADD PUSH1 0x4 DUP3 ADD PUSH1 0x1 SWAP1 SLOAD SWAP1 PUSH2 0x100 EXP SWAP1 DIV PUSH1 0xFF AND ISZERO ISZERO ISZERO ISZERO DUP2 MSTORE PUSH1 0x20 ADD PUSH1 0x4 DUP3 ADD PUSH1 0x2 SWAP1 SLOAD SWAP1 PUSH2 0x100 EXP SWAP1 DIV PUSH1 0xFF AND ISZERO ISZERO ISZERO ISZERO DUP2 MSTORE POP POP SWAP1 POP PUSH2 0x10A8 DUP4 PUSH2 0x8A7 JUMP JUMPDEST DUP2 PUSH1 0xA0 ADD SWAP1 PUSH1 0xFF AND SWAP1 DUP2 PUSH1 0xFF AND DUP2 MSTORE POP POP DUP1 SWAP2 POP POP SWAP2 SWAP1 POP JUMP JUMPDEST PUSH0 PUSH0 PUSH0 DUP4 DUP2 MSTORE PUSH1 0x20 ADD SWAP1 DUP2 MSTORE PUSH1 0x20 ADD PUSH0 KECCAK256 SWAP1 POP PUSH0 PUSH2 0x10DF DUP4 PUSH2 0x8A7 JUMP JUMPDEST SWAP1 POP DUP1 DUP3 PUSH1 0x4 ADD PUSH0 PUSH2 0x100 EXP DUP2 SLOAD DUP2 PUSH1 0xFF MUL NOT AND SWAP1 DUP4 PUSH1 0xFF AND MUL OR SWAP1 SSTORE POP PUSH0 DUP2 PUSH1 0xFF AND EQ DUP1 ISZERO PUSH2 0x111E JUMPI POP DUP2 PUSH1 0x4 ADD PUSH1 0x2 SWAP1 SLOAD SWAP1 PUSH2 0x100 EXP SWAP1 DIV PUSH1 0xFF AND ISZERO JUMPDEST ISZERO PUSH2 0x116E JUMPI PUSH1 0x1 DUP3 PUSH1 0x4 ADD PUSH1 0x2 PUSH2 0x100 EXP DUP2 SLOAD DUP2 PUSH1 0xFF MUL NOT AND SWAP1 DUP4 ISZERO ISZERO MUL OR SWAP1 SSTORE POP DUP3 PUSH32 0xCC296A21951F3E57F21AFB08547D835A0A9F0F06CC2867009CBE0CAE44D36BE9 PUSH1 0x40 MLOAD PUSH1 0x40 MLOAD DUP1 SWAP2 SUB SWAP1 LOG2 JUMPDEST POP POP POP JUMP JUMPDEST PUSH1 0x40 MLOAD DUP1 PUSH2 0x100 ADD PUSH1 0x40 MSTORE DUP1 PUSH0 DUP2 MSTORE PUSH1 0x20 ADD PUSH0 PUSH20 0xFFFFFFFFFFFFFFFFFFFFFFFFFFFFFFFFFFFFFFFF AND DUP2 MSTORE PUSH1 0x20 ADD PUSH0 PUSH1 0x3 DUP2 GT ISZERO PUSH2 0x11B4 JUMPI PUSH2 0x11B3 PUSH2 0x145F JUMP JUMPDEST JUMPDEST DUP2 MSTORE PUSH1 0x20 ADD PUSH0 DUP2 MSTORE PUSH1 0x20 ADD PUSH0 DUP2 MSTORE PUSH1 0x20 ADD PUSH0 PUSH1 0xFF AND DUP2 MSTORE PUSH1 0x20 ADD PUSH0 ISZERO ISZERO DUP2 MSTORE PUSH1 0x20 ADD PUSH0 ISZERO ISZERO DUP2 MSTORE POP SWAP1 JUMP JUMPDEST PUSH0 PUSH0 REVERT JUMPDEST PUSH0 PUSH20 0xFFFFFFFFFFFFFFFFFFFFFFFFFFFFFFFFFFFFFFFF DUP3 AND SWAP1 POP SWAP2 SWAP1 POP JUMP JUMPDEST PUSH0 PUSH2 0x120C DUP3 PUSH2 0x11E3 JUMP JUMPDEST SWAP1 POP SWAP2 SWAP1 POP JUMP JUMPDEST PUSH2 0x121C DUP2 PUSH2 0x1202 JUMP JUMPDEST DUP2 EQ PUSH2 0x1226 JUMPI PUSH0 PUSH0 REVERT JUMPDEST POP JUMP JUMPDEST PUSH0 DUP2 CALLDATALOAD SWAP1 POP PUSH2 0x1237 DUP2 PUSH2 0x1213 JUMP JUMPDEST SWAP3 SWAP2 POP POP JUMP JUMPDEST PUSH0 PUSH1 0x20 DUP3 DUP5 SUB SLT ISZERO PUSH2 0x1252 JUMPI PUSH2 0x1251 PUSH2 0x11DF JUMP JUMPDEST JUMPDEST PUSH0 PUSH2 0x125F DUP5 DUP3 DUP6 ADD PUSH2 0x1229 JUMP JUMPDEST SWAP2 POP POP SWAP3 SWAP2 POP POP JUMP JUMPDEST PUSH0 DUP2 MLOAD SWAP1 POP SWAP2 SWAP1 POP JUMP JUMPDEST PUSH0 DUP3 DUP3 MSTORE PUSH1 0x20 DUP3 ADD SWAP1 POP SWAP3 SWAP2 POP POP JUMP JUMPDEST PUSH0 DUP2 SWAP1 POP PUSH1 0x20 DUP3 ADD SWAP1 POP SWAP2 SWAP1 POP JUMP JUMPDEST PUSH0 DUP2 SWAP1 POP SWAP2 SWAP1 POP JUMP JUMPDEST PUSH2 0x12A3 DUP2 PUSH2 0x1291 JUMP JUMPDEST DUP3 MSTORE POP POP JUMP JUMPDEST PUSH0 PUSH2 0x12B4 DUP4 DUP4 PUSH2 0x129A JUMP JUMPDEST PUSH1 0x20 DUP4 ADD SWAP1 POP SWAP3 SWAP2 POP POP JUMP JUMPDEST PUSH0 PUSH1 0x20 DUP3 ADD SWAP1 POP SWAP2 SWAP1 POP JUMP JUMPDEST PUSH0 PUSH2 0x12D6 DUP3 PUSH2 0x1268 JUMP JUMPDEST PUSH2 0x12E0 DUP2 DUP6 PUSH2 0x1272 JUMP JUMPDEST SWAP4 POP PUSH2 0x12EB DUP4 PUSH2 0x1282 JUMP JUMPDEST DUP1 PUSH0 JUMPDEST DUP4 DUP2 LT ISZERO PUSH2 0x131B JUMPI DUP2 MLOAD PUSH2 0x1302 DUP9 DUP3 PUSH2 0x12A9 JUMP JUMPDEST SWAP8 POP PUSH2 0x130D DUP4 PUSH2 0x12C0 JUMP JUMPDEST SWAP3 POP POP PUSH1 0x1 DUP2 ADD SWAP1 POP PUSH2 0x12EE JUMP JUMPDEST POP DUP6 SWAP4 POP POP POP POP SWAP3 SWAP2 POP POP JUMP JUMPDEST PUSH0 PUSH1 0x20 DUP3 ADD SWAP1 POP DUP2 DUP2 SUB PUSH0 DUP4 ADD MSTORE PUSH2 0x1340 DUP2 DUP5 PUSH2 0x12CC JUMP JUMPDEST SWAP1 POP SWAP3 SWAP2 POP POP JUMP JUMPDEST PUSH2 0x1351 DUP2 PUSH2 0x1291 JUMP JUMPDEST DUP3 MSTORE POP POP JUMP JUMPDEST PUSH0 PUSH1 0x20 DUP3 ADD SWAP1 POP PUSH2 0x136A PUSH0 DUP4 ADD DUP5 PUSH2 0x1348 JUMP JUMPDEST SWAP3 SWAP2 POP POP JUMP JUMPDEST PUSH2 0x1379 DUP2 PUSH2 0x1291 JUMP JUMPDEST DUP2 EQ PUSH2 0x1383 JUMPI PUSH0 PUSH0 REVERT JUMPDEST POP JUMP JUMPDEST PUSH0 DUP2 CALLDATALOAD SWAP1 POP PUSH2 0x1394 DUP2 PUSH2 0x1370 JUMP JUMPDEST SWAP3 SWAP2 POP POP JUMP JUMPDEST PUSH0 PUSH1 0x20 DUP3 DUP5 SUB SLT ISZERO PUSH2 0x13AF JUMPI PUSH2 0x13AE PUSH2 0x11DF JUMP JUMPDEST JUMPDEST PUSH0 PUSH2 0x13BC DUP5 DUP3 DUP6 ADD PUSH2 0x1386 JUMP JUMPDEST SWAP2 POP POP SWAP3 SWAP2 POP POP JUMP JUMPDEST PUSH0 PUSH1 0xFF DUP3 AND SWAP1 POP SWAP2 SWAP1 POP JUMP JUMPDEST PUSH2 0x13DA DUP2 PUSH2 0x13C5 JUMP JUMPDEST DUP3 MSTORE POP POP JUMP JUMPDEST PUSH0 PUSH1 0x20 DUP3 ADD SWAP1 POP PUSH2 0x13F3 PUSH0 DUP4 ADD DUP5 PUSH2 0x13D1 JUMP JUMPDEST SWAP3 SWAP2 POP POP JUMP JUMPDEST PUSH0 PUSH0 PUSH1 0x40 DUP4 DUP6 SUB SLT ISZERO PUSH2 0x140F JUMPI PUSH2 0x140E PUSH2 0x11DF JUMP JUMPDEST JUMPDEST PUSH0 PUSH2 0x141C DUP6 DUP3 DUP7 ADD PUSH2 0x1229 JUMP JUMPDEST SWAP3 POP POP PUSH1 0x20 PUSH2 0x142D DUP6 DUP3 DUP7 ADD PUSH2 0x1386 JUMP JUMPDEST SWAP2 POP POP SWAP3 POP SWAP3 SWAP1 POP JUMP JUMPDEST PUSH2 0x1440 DUP2 PUSH2 0x1202 JUMP JUMPDEST DUP3 MSTORE POP POP JUMP JUMPDEST PUSH0 PUSH1 0x20 DUP3 ADD SWAP1 POP PUSH2 0x1459 PUSH0 DUP4 ADD DUP5 PUSH2 0x1437 JUMP JUMPDEST SWAP3 SWAP2 POP POP JUMP JUMPDEST PUSH32 0x4E487B7100000000000000000000000000000000000000000000000000000000 PUSH0 MSTORE PUSH1 0x21 PUSH1 0x4 MSTORE PUSH1 0x24 PUSH0 REVERT JUMPDEST PUSH1 0x4 DUP2 LT PUSH2 0x149D JUMPI PUSH2 0x149C PUSH2 0x145F JUMP JUMPDEST JUMPDEST POP JUMP JUMPDEST PUSH0 DUP2 SWAP1 POP PUSH2 0x14AD DUP3 PUSH2 0x148C JUMP JUMPDEST SWAP2 SWAP1 POP JUMP JUMPDEST PUSH0 PUSH2 0x14BC DUP3 PUSH2 0x14A0 JUMP JUMPDEST SWAP1 POP SWAP2 SWAP1 POP JUMP JUMPDEST PUSH2 0x14CC DUP2 PUSH2 0x14B2 JUMP JUMPDEST DUP3 MSTORE POP POP JUMP JUMPDEST PUSH0 DUP2 ISZERO ISZERO SWAP1 POP SWAP2 SWAP1 POP JUMP JUMPDEST PUSH2 0x14E6 DUP2 PUSH2 0x14D2 JUMP JUMPDEST DUP3 MSTORE POP POP JUMP JUMPDEST PUSH0 PUSH2 0x100 DUP3 ADD SWAP1 POP PUSH2 0x1500 PUSH0 DUP4 ADD DUP12 PUSH2 0x1348 JUMP JUMPDEST PUSH2 0x150D PUSH1 0x20 DUP4 ADD DUP11 PUSH2 0x1437 JUMP JUMPDEST PUSH2 0x151A PUSH1 0x40 DUP4 ADD DUP10 PUSH2 0x14C3 JUMP JUMPDEST PUSH2 0x1527 PUSH1 0x60 DUP4 ADD DUP9 PUSH2 0x1348 JUMP JUMPDEST PUSH2 0x1534 PUSH1 0x80 DUP4 ADD DUP8 PUSH2 0x1348 JUMP JUMPDEST PUSH2 0x1541 PUSH1 0xA0 DUP4 ADD DUP7 PUSH2 0x13D1 JUMP JUMPDEST PUSH2 0x154E PUSH1 0xC0 DUP4 ADD DUP6 PUSH2 0x14DD JUMP JUMPDEST PUSH2 0x155B PUSH1 0xE0 DUP4 ADD DUP5 PUSH2 0x14DD JUMP JUMPDEST SWAP10 SWAP9 POP POP POP POP POP POP POP POP POP JUMP JUMPDEST PUSH2 0x1571 DUP2 PUSH2 0x1202 JUMP JUMPDEST DUP3 MSTORE POP POP JUMP JUMPDEST PUSH2 0x1580 DUP2 PUSH2 0x14B2 JUMP JUMPDEST DUP3 MSTORE POP POP JUMP JUMPDEST PUSH2 0x158F DUP2 PUSH2 0x13C5 JUMP JUMPDEST DUP3 MSTORE POP POP JUMP JUMPDEST PUSH2 0x159E DUP2 PUSH2 0x14D2 JUMP JUMPDEST DUP3 MSTORE POP POP JUMP JUMPDEST PUSH2 0x100 DUP3 ADD PUSH0 DUP3 ADD MLOAD PUSH2 0x15B9 PUSH0 DUP6 ADD DUP3 PUSH2 0x129A JUMP JUMPDEST POP PUSH1 0x20 DUP3 ADD MLOAD PUSH2 0x15CC PUSH1 0x20 DUP6 ADD DUP3 PUSH2 0x1568 JUMP JUMPDEST POP PUSH1 0x40 DUP3 ADD MLOAD PUSH2 0x15DF PUSH1 0x40 DUP6 ADD DUP3 PUSH2 0x1577 JUMP JUMPDEST POP PUSH1 0x60 DUP3 ADD MLOAD PUSH2 0x15F2 PUSH1 0x60 DUP6 ADD DUP3 PUSH2 0x129A JUMP JUMPDEST POP PUSH1 0x80 DUP3 ADD MLOAD PUSH2 0x1605 PUSH1 0x80 DUP6 ADD DUP3 PUSH2 0x129A JUMP JUMPDEST POP PUSH1 0xA0 DUP3 ADD MLOAD PUSH2 0x1618 PUSH1 0xA0 DUP6 ADD DUP3 PUSH2 0x1586 JUMP JUMPDEST POP PUSH1 0xC0 DUP3 ADD MLOAD PUSH2 0x162B PUSH1 0xC0 DUP6 ADD DUP3 PUSH2 0x1595 JUMP JUMPDEST POP PUSH1 0xE0 DUP3 ADD MLOAD PUSH2 0x163E PUSH1 0xE0 DUP6 ADD DUP3 PUSH2 0x1595 JUMP JUMPDEST POP POP POP POP JUMP JUMPDEST PUSH0 PUSH2 0x100 DUP3 ADD SWAP1 POP PUSH2 0x1658 PUSH0 DUP4 ADD DUP5 PUSH2 0x15A4 JUMP JUMPDEST SWAP3 SWAP2 POP POP JUMP JUMPDEST PUSH0 DUP3 DUP3 MSTORE PUSH1 0x20 DUP3 ADD SWAP1 POP SWAP3 SWAP2 POP POP JUMP JUMPDEST PUSH32 0x42756B616E206F776E6572000000000000000000000000000000000000000000 PUSH0 DUP3 ADD MSTORE POP JUMP JUMPDEST PUSH0 PUSH2 0x16A2 PUSH1 0xB DUP4 PUSH2 0x165E JUMP JUMPDEST SWAP2 POP PUSH2 0x16AD DUP3 PUSH2 0x166E JUMP JUMPDEST PUSH1 0x20 DUP3 ADD SWAP1 POP SWAP2 SWAP1 POP JUMP JUMPDEST PUSH0 PUSH1 0x20 DUP3 ADD SWAP1 POP DUP2 DUP2 SUB PUSH0 DUP4 ADD MSTORE PUSH2 0x16CF DUP2 PUSH2 0x1696 JUMP JUMPDEST SWAP1 POP SWAP2 SWAP1 POP JUMP JUMPDEST PUSH0 DUP2 SWAP1 POP SWAP3 SWAP2 POP POP JUMP JUMPDEST POP JUMP JUMPDEST PUSH0 PUSH2 0x16EE PUSH0 DUP4 PUSH2 0x16D6 JUMP JUMPDEST SWAP2 POP PUSH2 0x16F9 DUP3 PUSH2 0x16E0 JUMP JUMPDEST PUSH0 DUP3 ADD SWAP1 POP SWAP2 SWAP1 POP JUMP JUMPDEST PUSH0 PUSH2 0x170D DUP3 PUSH2 0x16E3 JUMP JUMPDEST SWAP2 POP DUP2 SWAP1 POP SWAP2 SWAP1 POP JUMP JUMPDEST PUSH32 0x5472616E7366657220676167616C000000000000000000000000000000000000 PUSH0 DUP3 ADD MSTORE POP JUMP JUMPDEST PUSH0 PUSH2 0x174B PUSH1 0xE DUP4 PUSH2 0x165E JUMP JUMPDEST SWAP2 POP PUSH2 0x1756 DUP3 PUSH2 0x1717 JUMP JUMPDEST PUSH1 0x20 DUP3 ADD SWAP1 POP SWAP2 SWAP1 POP JUMP JUMPDEST PUSH0 PUSH1 0x20 DUP3 ADD SWAP1 POP DUP2 DUP2 SUB PUSH0 DUP4 ADD MSTORE PUSH2 0x1778 DUP2 PUSH2 0x173F JUMP JUMPDEST SWAP1 POP SWAP2 SWAP1 POP JUMP JUMPDEST PUSH32 0x53616C646F204B7572616E672121212121210000000000000000000000000000 PUSH0 DUP3 ADD MSTORE POP JUMP JUMPDEST PUSH0 PUSH2 0x17B3 PUSH1 0x12 DUP4 PUSH2 0x165E JUMP JUMPDEST SWAP2 POP PUSH2 0x17BE DUP3 PUSH2 0x177F JUMP JUMPDEST PUSH1 0x20 DUP3 ADD SWAP1 POP SWAP2 SWAP1 POP JUMP JUMPDEST PUSH0 PUSH1 0x20 DUP3 ADD SWAP1 POP DUP2 DUP2 SUB PUSH0 DUP4 ADD MSTORE PUSH2 0x17E0 DUP2 PUSH2 0x17A7 JUMP JUMPDEST SWAP1 POP SWAP2 SWAP1 POP JUMP JUMPDEST PUSH32 0x4E487B7100000000000000000000000000000000000000000000000000000000 PUSH0 MSTORE PUSH1 0x11 PUSH1 0x4 MSTORE PUSH1 0x24 PUSH0 REVERT JUMPDEST PUSH0 PUSH2 0x181E DUP3 PUSH2 0x1291 JUMP JUMPDEST SWAP2 POP PUSH32 0xFFFFFFFFFFFFFFFFFFFFFFFFFFFFFFFFFFFFFFFFFFFFFFFFFFFFFFFFFFFFFFFF DUP3 SUB PUSH2 0x1850 JUMPI PUSH2 0x184F PUSH2 0x17E7 JUMP JUMPDEST JUMPDEST PUSH1 0x1 DUP3 ADD SWAP1 POP SWAP2 SWAP1 POP JUMP JUMPDEST PUSH0 PUSH2 0x1865 DUP3 PUSH2 0x1291 JUMP JUMPDEST SWAP2 POP PUSH2 0x1870 DUP4 PUSH2 0x1291 JUMP JUMPDEST SWAP3 POP DUP3 DUP3 SUB SWAP1 POP DUP2 DUP2 GT ISZERO PUSH2 0x1888 JUMPI PUSH2 0x1887 PUSH2 0x17E7 JUMP JUMPDEST JUMPDEST SWAP3 SWAP2 POP POP JUMP JUMPDEST PUSH32 0x4E487B7100000000000000000000000000000000000000000000000000000000 PUSH0 MSTORE PUSH1 0x12 PUSH1 0x4 MSTORE PUSH1 0x24 PUSH0 REVERT JUMPDEST PUSH0 PUSH2 0x18C5 DUP3 PUSH2 0x1291 JUMP JUMPDEST SWAP2 POP PUSH2 0x18D0 DUP4 PUSH2 0x1291 JUMP JUMPDEST SWAP3 POP DUP3 PUSH2 0x18E0 JUMPI PUSH2 0x18DF PUSH2 0x188E JUMP JUMPDEST JUMPDEST DUP3 DUP3 DIV SWAP1 POP SWAP3 SWAP2 POP POP JUMP JUMPDEST PUSH0 PUSH2 0x18F5 DUP3 PUSH2 0x1291 JUMP JUMPDEST SWAP2 POP PUSH2 0x1900 DUP4 PUSH2 0x1291 JUMP JUMPDEST SWAP3 POP DUP3 DUP3 MUL PUSH2 0x190E DUP2 PUSH2 0x1291 JUMP JUMPDEST SWAP2 POP DUP3 DUP3 DIV DUP5 EQ DUP4 ISZERO OR PUSH2 0x1925 JUMPI PUSH2 0x1924 PUSH2 0x17E7 JUMP JUMPDEST JUMPDEST POP SWAP3 SWAP2 POP POP JUMP JUMPDEST PUSH0 PUSH1 0x20 DUP3 ADD SWAP1 POP PUSH2 0x193F PUSH0 DUP4 ADD DUP5 PUSH2 0x14C3 JUMP JUMPDEST SWAP3 SWAP2 POP POP JUMP JUMPDEST PUSH32 0x74616E616D616E20676164610000000000000000000000000000000000000000 PUSH0 DUP3 ADD MSTORE POP JUMP JUMPDEST PUSH0 PUSH2 0x1979 PUSH1 0xC DUP4 PUSH2 0x165E JUMP JUMPDEST SWAP2 POP PUSH2 0x1984 DUP3 PUSH2 0x1945 JUMP JUMPDEST PUSH1 0x20 DUP3 ADD SWAP1 POP SWAP2 SWAP1 POP JUMP JUMPDEST PUSH0 PUSH1 0x20 DUP3 ADD SWAP1 POP DUP2 DUP2 SUB PUSH0 DUP4 ADD MSTORE PUSH2 0x19A6 DUP2 PUSH2 0x196D JUMP JUMPDEST SWAP1 POP SWAP2 SWAP1 POP JUMP JUMPDEST PUSH32 0x42656C756D206D656B6172000000000000000000000000000000000000000000 PUSH0 DUP3 ADD MSTORE POP JUMP JUMPDEST PUSH0 PUSH2 0x19E1 PUSH1 0xB DUP4 PUSH2 0x165E JUMP JUMPDEST SWAP2 POP PUSH2 0x19EC DUP3 PUSH2 0x19AD JUMP JUMPDEST PUSH1 0x20 DUP3 ADD SWAP1 POP SWAP2 SWAP1 POP JUMP JUMPDEST PUSH0 PUSH1 0x20 DUP3 ADD SWAP1 POP DUP2 DUP2 SUB PUSH0 DUP4 ADD MSTORE PUSH2 0x1A0E DUP2 PUSH2 0x19D5 JUMP JUMPDEST SWAP1 POP SWAP2 SWAP1 POP JUMP INVALID LOG2 PUSH5 0x6970667358 0x22 SLT KECCAK256 PUSH28 0x868E0FF34093F935B768FE5B1CF4B9A3CF579FA32A4572B690BEFDF8 CALLDATACOPY 0xC PUSH4 0x64736F6C PUSH4 0x4300081E STOP CALLER "
				},
				"gasEstimates": {
					"creation": {
						"codeDepositCost": "1346200",
						"executionCost": "25666",
						"totalCost": "1371866"
					},
					"external": {
						"HARVEST_REWARD()": "414",
						"PLANT_PRICE()": "369",
						"STAGE_DURATION()": "415",
						"WATER_DEPLETION_RATE()": "353",
						"WATER_DEPLETION_TIME()": "392",
						"balanceOwner()": "143",
						"calculateWaterLevel(uint256)": "infinite",
						"getPlant(uint256)": "infinite",
						"getUserPlants(address)": "infinite",
						"harvestPlant(uint256)": "infinite",
						"owner()": "2531",
						"plantCounter()": "2514",
						"plantSeed()": "infinite",
						"plants(uint256)": "infinite",
						"updatePlantStage(uint256)": "infinite",
						"userPlants(address,uint256)": "infinite",
						"waterPlant(uint256)": "infinite",
						"withdraw()": "infinite"
					},
					"internal": {
						"updateWaterLevel(uint256)": "infinite"
					}
				},
				"methodIdentifiers": {
					"HARVEST_REWARD()": "891c0785",
					"PLANT_PRICE()": "cfc9a5f8",
					"STAGE_DURATION()": "51f9efde",
					"WATER_DEPLETION_RATE()": "bacb5ebd",
					"WATER_DEPLETION_TIME()": "7ed4c5be",
					"balanceOwner()": "1b2da512",
					"calculateWaterLevel(uint256)": "754e150d",
					"getPlant(uint256)": "ed0b1f5f",
					"getUserPlants(address)": "30cec0eb",
					"harvestPlant(uint256)": "e38f8448",
					"owner()": "8da5cb5b",
					"plantCounter()": "9c471749",
					"plantSeed()": "74119a38",
					"plants(uint256)": "8dd2361c",
					"updatePlantStage(uint256)": "ddd42596",
					"userPlants(address,uint256)": "8aee578b",
					"waterPlant(uint256)": "9886bcfa",
					"withdraw()": "3ccfd60b"
				}
			},
			"storageLayout": {
				"storage": [
					{
						"astId": 33,
						"contract": "contracts/LiskGarden.sol:LiskGarden",
						"label": "plants",
						"offset": 0,
						"slot": "0",
						"type": "t_mapping(t_uint256,t_struct(Plant)24_storage)"
					},
					{
						"astId": 38,
						"contract": "contracts/LiskGarden.sol:LiskGarden",
						"label": "userPlants",
						"offset": 0,
						"slot": "1",
						"type": "t_mapping(t_address,t_array(t_uint256)dyn_storage)"
					},
					{
						"astId": 40,
						"contract": "contracts/LiskGarden.sol:LiskGarden",
						"label": "plantCounter",
						"offset": 0,
						"slot": "2",
						"type": "t_uint256"
					},
					{
						"astId": 42,
						"contract": "contracts/LiskGarden.sol:LiskGarden",
						"label": "owner",
						"offset": 0,
						"slot": "3",
						"type": "t_address"
					}
				],
				"types": {
					"t_address": {
						"encoding": "inplace",
						"label": "address",
						"numberOfBytes": "20"
					},
					"t_array(t_uint256)dyn_storage": {
						"base": "t_uint256",
						"encoding": "dynamic_array",
						"label": "uint256[]",
						"numberOfBytes": "32"
					},
					"t_bool": {
						"encoding": "inplace",
						"label": "bool",
						"numberOfBytes": "1"
					},
					"t_enum(GrowthStage)6": {
						"encoding": "inplace",
						"label": "enum LiskGarden.GrowthStage",
						"numberOfBytes": "1"
					},
					"t_mapping(t_address,t_array(t_uint256)dyn_storage)": {
						"encoding": "mapping",
						"key": "t_address",
						"label": "mapping(address => uint256[])",
						"numberOfBytes": "32",
						"value": "t_array(t_uint256)dyn_storage"
					},
					"t_mapping(t_uint256,t_struct(Plant)24_storage)": {
						"encoding": "mapping",
						"key": "t_uint256",
						"label": "mapping(uint256 => struct LiskGarden.Plant)",
						"numberOfBytes": "32",
						"value": "t_struct(Plant)24_storage"
					},
					"t_struct(Plant)24_storage": {
						"encoding": "inplace",
						"label": "struct LiskGarden.Plant",
						"members": [
							{
								"astId": 8,
								"contract": "contracts/LiskGarden.sol:LiskGarden",
								"label": "id",
								"offset": 0,
								"slot": "0",
								"type": "t_uint256"
							},
							{
								"astId": 10,
								"contract": "contracts/LiskGarden.sol:LiskGarden",
								"label": "owner",
								"offset": 0,
								"slot": "1",
								"type": "t_address"
							},
							{
								"astId": 13,
								"contract": "contracts/LiskGarden.sol:LiskGarden",
								"label": "stage",
								"offset": 20,
								"slot": "1",
								"type": "t_enum(GrowthStage)6"
							},
							{
								"astId": 15,
								"contract": "contracts/LiskGarden.sol:LiskGarden",
								"label": "plantedDate",
								"offset": 0,
								"slot": "2",
								"type": "t_uint256"
							},
							{
								"astId": 17,
								"contract": "contracts/LiskGarden.sol:LiskGarden",
								"label": "lastWatered",
								"offset": 0,
								"slot": "3",
								"type": "t_uint256"
							},
							{
								"astId": 19,
								"contract": "contracts/LiskGarden.sol:LiskGarden",
								"label": "waterLevel",
								"offset": 0,
								"slot": "4",
								"type": "t_uint8"
							},
							{
								"astId": 21,
								"contract": "contracts/LiskGarden.sol:LiskGarden",
								"label": "exists",
								"offset": 1,
								"slot": "4",
								"type": "t_bool"
							},
							{
								"astId": 23,
								"contract": "contracts/LiskGarden.sol:LiskGarden",
								"label": "isDead",
								"offset": 2,
								"slot": "4",
								"type": "t_bool"
							}
						],
						"numberOfBytes": "160"
					},
					"t_uint256": {
						"encoding": "inplace",
						"label": "uint256",
						"numberOfBytes": "32"
					},
					"t_uint8": {
						"encoding": "inplace",
						"label": "uint8",
						"numberOfBytes": "1"
					}
				}
			},
			"userdoc": {
				"kind": "user",
				"methods": {},
				"version": 1
			}
		}
	}
}